:020000040800F2
:1000000010090020A9070008B1050008B305000881
:10001000B7050008BB050008BF0500080000000088
:10002000000000000000000000000000C305000800
:10003000C505000800000000C7050008C905000844
:10004000C3070008C3070008C3070008C307000868
:10005000C3070008C3070008C3070008C307000858
:10006000C3070008C3070008C3070008C307000848
:10007000C3070008C3070008C3070008C307000838
:10008000C3070008C3070008C3070008C307000828
:10009000C3070008C3070008C3070008D504000809
:1000A000C3070008C3070008C3070008C307000808
:1000B000C3070008B329000811050008C30700089A
:1000C000C3070008C3070008C3070008C3070008E8
:1000D000C3070008C9270008C3070008C3070008B2
:1000E000C3070008C3070008C3070008C3070008C8
:1000F000C3070008C3070008C3070008C3070008B8
:10010000C3070008C3070008C3070008C3070008A7
:10011000C3070008C3070008C3070008C307000897
:10012000C3070008C3070008C3070008C307000887
:1001300000F002F800F073F80AA090E8000C824486
:100140008344AAF10107DA4501D100F068F8AFF263
:10015000090EBAE80F0013F0010F18BFFB1A43F0A5
:100160000103184728920000489200000A444FF00B
:10017000000C10F8013B13F0070408BF10F8014B06
:100180001D1108BF10F8015B641E05D010F8016B4B
:10019000641E01F8016BF9D113F0080F1EBF10F8AF
:1001A000014BAD1C0C1B09D16D1E58BF01F801CBD2
:1001B000FAD505E014F8016B01F8016B6D1EF9D555
:1001C0009142D6D37047000000230024002500266A
:1001D000103A28BF78C1FBD8520728BF30C148BFAA
:1001E0000B607047662908F0E486642904F01486E1
:1001F000782904F04D86002070471FB505F004FAF9
:1002000004000020002107F081FC401C60600020F9
:10021000002107F065FCE0601FBD10B510BD05F0C2
:100220003BFB1146FFF7E9FF00F06CF805F0B4FD69
:1002300003B4FFF7F2FF03BC02F06CFA2DE9F043C0
:10024000BDB04FF0000900240026002522E0B74889
:10025000005D202809D0B548005D06EB860101AAA3
:1002600002EBC10148556D1C641C0EE0641CAF48D4
:10027000005D202809D0002006EB860101AA02EBD0
:10028000C1014855761C002503E0A848005D2028E0
:10029000ECD000BFA548005D0028D8D101A807F028
:1002A000B1FA074607F0CAFEA14908600BA807F09B
:1002B000A9FA074607F040FC9E49086015A807F018
:1002C000A1FA074607F038FC9B4908604FF0000987
:1002D0000DE0002507E0002009EB890101AA02EBEF
:1002E000C10148556D1C142DF5DB09F10109701C85
:1002F0008145EEDB4FF000090024002600253DB0CB
:10030000BDE8F0831FB5002500BF02F07FF902F0C1
:10031000A1FA0020894908604FF0C80002F0B2F944
:1003200001208749C1F888010020864908604FF004
:10033000C80002F0A7F90120824908604FF00000D0
:10034000A1F1040108604FF0C80002F09BF9012000
:100350007D4908604FF000007C49C1F8A8014FF0CA
:10036000C80002F08FF901207849C1F8A80102F015
:10037000CBF94FF4165002F0DBF902F0E1FE02F087
:10038000D3FC02F0EFFD0DE07148006808B90120D0
:1003900000E000206E4908606EA004F031FD64208A
:1003A00002F070F902F04FFD0128EDD06DA004F0CD
:1003B00027FD072002F07EFD04462146272002F09B
:1003C00066FDFF21E22002F062FD092140F2E730E4
:1003D00002F038FB47214FF6FF7002F0A7FA41F612
:1003E0001F41312002F0F3FA03F02EFA03F04CFA29
:1003F00002F0EBFE04F0DAFA6BE004F097FB5C48E5
:10040000C1688068CDE90201594803C8CDE90001FF
:100410005748D0E90463324656A004F0F1FC5B482B
:100420000078012855D1414802F087FD78B90025B0
:1004300007E03E48425D294655A004F0E1FC681CF7
:1004400085B2042DF5DBFF21E22002F020FD3748C4
:100450000078FF2805D035484078FF2801D0FFF705
:10046000EDFE32480078FF281ED130484078FF2842
:100470001AD12E488078012804D12D4800686430B4
:100480002B4908602A480068B0F5617F02DD4FF40F
:10049000617001E02648006825490860234880789B
:1004A000022801D10020086000203849087001218D
:1004B0003C4801F0C9FB3C48006840F020003A4944
:1004C00008602148006808B9012000E000201E49AA
:1004D000086092E710B5202000F068FA78B120207B
:1004E00000F075FA00212F4801F0AEFB01202749EA
:1004F00008702D48006820F020002B490860124841
:10050000006808B9012000E000200F49086010BD14
:1005100010B50121234801F060FE10B1234802F01C
:100520003BFB01211F4801F069FE10BD7401002052
:10053000600100204C0000205000002088812242F1
:1005400000802242B0012242AC012242000022423D
:10055000A80122424E5246204552524F5221210DAF
:100560000A0000004E5246206F6B6B21210D0A00DD
:1005700068020020252E326C662020252E326C6603
:100580002020252E326C660D0A0000000800002095
:10059000746D705F6275665B25645D202025780D43
:1005A0000A000000000800400004014094010020FF
:1005B000704700BFFEE700BFFEE700BFFEE700BFD9
:1005C000FEE7704770477047704700000CB5002089
:1005D000019000906B48006840F4803069490860E1
:1005E00000BF6848006800F4003000900198401C8B
:1005F0000190009818B90198B0F5A06FF1D1614849
:10060000006810F4003F02D00120009001E00020BB
:1006100000900098012842D15B48006840F010002B
:10062000594908600846006820F003000860084641
:10063000006840F002000860524840685149486034
:100640000846406848600846406840F4806048605A
:100650000846406820F47C1048600846406840F432
:10066000E81048600846006840F08070086000BFED
:100670004448006810F0007FFAD04248406820F0FB
:100680000300404948600846406840F00200486066
:1006900000BF3C48406800F00C000828F9D10CBDB0
:1006A00010B5FFF793FF10BD10B53648006840F055
:1006B000010034490860084640683449084031491F
:1006C000486008460068324908402E4908600846DC
:1006D000006820F4802008600846406820F4FE008E
:1006E00048604FF41F008860FFF7DAFF4FF00060AA
:1006F0002849086010BD10B5002100200022214BC0
:100700005B6803F00C0121B1042906D0082928D127
:1007100007E0214B214C236027E01F4B1F4C236037
:1007200023E0184B5B6803F47010164B5B6803F40E
:100730008032022303EB904022B9194B4343174CFC
:1007400023600DE00F4B5B6813F4003F04D0144BA3
:100750004343124C236003E00F4B43430F4C236091
:1007600003E00D4B0D4C236000BF00BF054B5B68E1
:10077000C3F303130B4CE15C084B1B68CB40074CE5
:10078000236010BD00100240002002400000FFF86E
:10079000FFFFF6FE08ED00E000127A000C000020DA
:1007A00000093D0010000020094880470948004723
:1007B000FEE7FEE7FEE7FEE7FEE7FEE7FEE7FEE711
:1007C000FEE7FEE704480549054A064B704700006E
:1007D000A9060008310100081003002010090020BC
:1007E000100500201005002031490143314A1160F5
:1007F000704770B5002100230F22C4780CB32D4C34
:10080000246804F4E064C4F5E064210AC1F104033F
:10081000CA40447804FA03F1847814402143090162
:10082000254C0678A155047804F01F050124AC403E
:1008300005786D114FF0E02606EB8505C5F80041FF
:1008400009E0047804F01F050124AC401B4D067834
:10085000761145F8264070BD194A0A400243154BEF
:100860001B1F1A60704739B1124A121D12680243E9
:10087000104B1B1D1A6006E00E4A121D12688243BF
:100880000C4B1B1D1A607047042808D14FF0E02163
:10089000096941F004014FF0E022116107E04FF0D7
:1008A000E021096921F004014FF0E0221161704755
:1008B0000000FA050CED00E000E400E080E100E05B
:1008C00080FFFF1F002044490860091D0860091DC2
:1008D0000860091D086041483F49143108607047AD
:1008E00000213D498279002A3AD00A4612680368FD
:1008F0009A430B461A600A1D126803689A430B1D3F
:100900001A60027911440A6803681A430A60324A7D
:100910000832126803689A432F4B08331A601A1D75
:10092000126803689A432C4B0C331A604279102AE0
:100930000ED11A1F126803681A43274B08331A6036
:100940001A1D126803681A43234B0C331A600DE01A
:100950002149427911440A6803681A430A6005E094
:10096000027911440A6803689A430A6070470021BB
:10097000016001710C21417100218171704716499C
:10098000103109680143144A103211607047014662
:100990000020114A143212680A4201D0012000E0FE
:1009A000002070470C491431086070470146002050
:1009B0000022094B1B6803EA0102074B14331B6832
:1009C0000B4202D00AB1012000E00020704702492A
:1009D000143108607047000000040140FFFF0F0061
:1009E00010B50446CA48844208D10121042000F011
:1009F00027FB0021042000F023FB46E0C548844289
:100A000008D10121082000F01BFB0021082000F084
:100A100017FB3AE0C048844208D10121102000F0C1
:100A20000FFB0021102000F00BFB2EE0BB4884429E
:100A300008D10121202000F003FB0021202000F03C
:100A4000FFFA22E0B648844208D10121402000F09C
:100A5000F7FA0021402000F0F3FA16E0B148844292
:100A600008D10121802000F0EBFA0021802000F065
:100A7000E7FA0AE0AC48844207D10121801500F072
:100A8000DFFA0021A01500F0DBFA10BD10B501213E
:100A9000084600F0D5FA0021012000F0D1FA10BD7F
:100AA0002DE9F04102460025002600200023002405
:100AB000002791F803C00CF00F0591F803C01CF05B
:100AC000100F03D091F802C04CEA050591F800C060
:100AD000BCF1000F31D0146800202BE04FF0010C66
:100AE0000CFA00F3B1F800C00CEA03069E4220D1D4
:100AF00083004FF00F0C0CFA03F7BC4305FA03FC1C
:100B00004CEA040491F803C0BCF1280F06D14FF061
:100B1000010C0CFA00FCC2F814C00AE091F803C002
:100B2000BCF1480F05D14FF0010C0CFA00FCC2F8E3
:100B300010C0401C0828D1D31460B1F800C0BCF12B
:100B4000FF0F34DD546800202EE000F1080C4FF058
:100B5000010808FA0CF3B1F800C00CEA03069E4243
:100B600021D183004FF00F0C0CFA03F7BC4305FAB8
:100B700003FC4CEA040491F803C0BCF1280F05D132
:100B800000F1080C08FA0CF8C2F8148091F803C0C0
:100B9000BCF1480F07D100F1080C4FF0010808FA2A
:100BA0000CF8C2F81080401C0828CED35460BDE871
:100BB000F0814FF6FF710180022181700421C17024
:100BC00070470246002093680B4201D0012000E0EC
:100BD000002070470146886880B2704702460020B6
:100BE000D3680B4201D0012000E00020704701468D
:100BF000C86880B2704701617047416170470AB1AF
:100C0000016100E041617047C16070474FF480327C
:100C10000A4382618161826182698269704702460A
:100C20000020424B18684FF68073184040EA0210CB
:100C300008433E4B186070473D49C8617047F0B5A6
:100C40000A46002300240021002500F00046B6F1EA
:100C5000004F02D1354EF16901E0344E7168C0F3A6
:100C6000034583B200F44016B6F5401F08D121F0C9
:100C700070612E4E766826F070662C4F7E6012E012
:100C800000F48016B6F5801F06D1032606FA05F497
:100C9000A14341F0706106E0460D360103FA06F605
:100CA000B14341F0706122B1460D360103FA06F6F8
:100CB000314300F00046B6F1004F02D11B4EF16106
:100CC00001E01A4E7160F0BD30B500228B071C0F99
:100CD0000F2303FA04F2154B08338C1053F8243019
:100CE0009343124C08348D1044F8253023468C1061
:100CF00053F824308C07240F00FA04F423430B4CE0
:100D000008348D1044F8253030BD0A49086070471A
:100D100000080140000C0140001001400014014097
:100D200000180140001C014000200140000001406B
:100D300000002042DC002042DD48006840F0010055
:100D4000DB49086008464068DA490840D8494860ED
:100D500008460068D8490840D54908600846006838
:100D600020F4802008600846406820F4FE004860B7
:100D70004FF41F0088607047CD49096821F4803125
:100D8000CB4A11601146096821F480211160B0F549
:100D9000803F03D0B0F5802F0ED106E0C44909682A
:100DA00041F48031C24A116007E0C149096841F449
:100DB000A021BF4A116000E000BF00BF704710B51E
:100DC00001460022002300204A11012A02D1B84C1A
:100DD000236806E0022A02D1B54C236A01E0B44C34
:100DE000636A01F01F02012494401C4201D00120DB
:100DF00000E0002010BD38B5002000900024002540
:100E000000BF3120FFF7DBFF05460098401C009033
:100E10000098B0F5A06F01D0002DF2D03120FFF77F
:100E2000CEFF08B1012400E00024204638BD014671
:100E300000209F4A106820F0F80040EAC1001060CE
:100E400070479E490860704702460020984B5868DA
:100E500020F47C1042EA01031843954B5860704718
:100E600096490866704701460020914A506820F074
:100E700003000843506070478D48406800F00C0044
:100E80007047014600208A4A506820F0F00008436D
:100E90005060704701460020854A506820F4E060A9
:100EA00008435060704701460020814A506820F492
:100EB000605040EAC1005060704729B17C4A527AC4
:100EC00002437B4B5A7204E0794A527A8243784B50
:100ED0005A7270477A490860704701460020744A88
:100EE000506820F440400843506070470021754A24
:100EF00011706F4A82F82010012802D0042808D10E
:100F000003E001216F4A117004E005216D4A117060
:100F100000E000BF00BF70476B490860704764493C
:100F2000096A0143624A116270476749443908609F
:100F3000704730B500210022002400235C4D6D680D
:100F400005F00C0121B1042905D0082923D105E0C1
:100F50005E4D056022E05D4D05601FE0544D6D68FB
:100F600005F47012524D6D6805F48034022505EBCE
:100F700092421CB9564D554305600BE04C4D6D68CF
:100F800015F4003F03D0524D5543056002E04F4D2C
:100F90005543056002E04D4D056000BF00BF444D64
:100FA0006D6805F0F00109094A4D6B5C0568DD408C
:100FB00045603F4D6D6805F4E061090A454D6B5C85
:100FC0004568DD4085603A4D6D6805F46051C90A99
:100FD000404D6B5C4568DD40C560354D6D6805F47E
:100FE0004041890B3C4D6B5CC568B5FBF3F5056171
:100FF00030BD29B12E4A526902432D4B5A6104E09B
:101000002B4A526982432A4B5A61704729B1284AB8
:1010100092690243264B9A6104E0254A9269824311
:10102000234B9A61704729B1214AD2690243204B70
:10103000DA6104E01E4AD26982431D4BDA617047CF
:1010400029B11B4AD2680243194BDA6004E0184AFE
:10105000D2688243164BDA60704729B1144A12698C
:101060000243134B1A6104E0114A12698243104B88
:101070001A61704714494039086070470F49C864C5
:1010800070470B49C87170470948406A40F080704A
:1010900007494862704701460020054A92680A42A3
:1010A00001D0012000E0002070470149887270479C
:1010B000001002400000FFF8FFFFF6FE0000424271
:1010C000D8004242201002408004424200127A00BE
:1010D00000093D00200000203000002010B504462B
:1010E000BE48844208D101218014FFF7A9FF0021E6
:1010F000A014FFF7A5FF16E0B948844208D10121EA
:101100000014FFF7AAFF00212014FFF7A6FF0AE052
:10111000B448844207D10121C013FFF79EFF00218C
:10112000E013FFF79AFF10BD10B50022028802F409
:1011300041520B884C8823438C882343CC8823431B
:101140000C8923434C8923438C892343CC89234333
:101150001A430280838B4FF2FF74234083830B8AF0
:10116000038210BD2DE9F04F85B005460C464FF0C7
:10117000000902274FF000084FF0010B0026B2468D
:10118000A88B4FF240010840A88302202884B5F8BC
:101190001C90A068022801D100BF38E0A08810B9D7
:1011A0004FF0010B01E04FF0020B8D48854200D15A
:1011B00000E000BF6846FFF7BCFEDDF800A0E08855
:1011C000B0F5007F0AD14FEA1A2000EB8000400002
:1011D000A168B0FBF1F0401D86B20BE04FEA4B1066
:1011E000BAFBF0F000EB80004000A168B0FBF1F02A
:1011F000401D86B20A20B6FBF0F606F00108A6EB09
:101200000800C0F34F074FF6FF7000EA0828022FCE
:1012100001DBFF2F02DD02274FF00008E08840EAE3
:10122000080038432884A088A189084361880843BE
:101230002188084340F4006040EA0909A5F81C90A1
:1012400005B0BDE8F08F0021018041808180C18020
:10125000018141818181C181072101827047002183
:10126000018041808180C1800221816000218181D3
:10127000704721B1028842F04002028004E00288F7
:101280004FF6BF731A400280704721B1828B42F43F
:101290008062828304E0828B4FF6FF331A408283A0
:1012A000704730B5002400230C110125A540ABB2D6
:1012B0001AB185881D43858002E085889D4385801D
:1012C00030BD1AB183880B43838002E083888B434F
:1012D0008380704781817047014688897047A1F5F6
:1012E0007E42FF3A04D0028842F48072028004E019
:1012F00002884FF6FF631A400280704721B182884E
:1013000042F00402828004E082884FF6FB731A40A8
:101310008280704702884FF2FF731A400280028871
:101320000A4302807047018841F480510180704770
:1013300021B1028842F40052028004E002884DF696
:10134000FF731A400280704702460020012901D035
:10135000108B00E0908A70470146088A7047B1F50B
:10136000804F04D1028842F48042028004E0028867
:101370004BF6FF731A400280704702460020138923
:101380000B4201D0012000E000207047CA430281D7
:101390007047F0B50246002000240023002501F02C
:1013A0000F070126BE40B4B20B1101269E40B3B216
:1013B000968806EA03051689264202D00DB101205F
:1013C00000E00020F0BD10B5002201F00F04012361
:1013D000A3409AB2D343038110BD00000030014006
:1013E00000380040003C004010B50446FE488442EE
:1013F00008D10121C014FFF723FE0021E014FFF7FC
:101400001FFEC4E0B4F1804F08D101210846FFF768
:1014100024FE00210120FFF720FEB8E0F3488442BB
:1014200008D101210220FFF718FE00210220FFF75A
:1014300014FEACE0EE48844208D101210420FFF7FD
:101440000CFE00210420FFF708FEA0E0E9488442DA
:1014500008D101210820FFF700FE00210820FFF736
:10146000FCFD94E0E448844208D101211020FFF7FC
:10147000F4FD00211020FFF7F0FD88E0DF488442F2
:1014800008D101212020FFF7E8FD00212020FFF7EF
:10149000E4FD7CE0DA48844208D101214014FFF7E2
:1014A000CFFD00216014FFF7CBFD70E0D5488442EA
:1014B00009D10121C804FFF7C3FD00214FF400202A
:1014C000FFF7BEFD63E0D048844209D10121080541
:1014D000FFF7B6FD00214FF48010FFF7B1FD56E095
:1014E000CA48844209D101214805FFF7A9FD00211E
:1014F0004FF40010FFF7A4FD49E0C548844208D12D
:1015000001214020FFF7A9FD00214020FFF7A5FDA4
:101510003DE0C048844208D101218020FFF79DFDB5
:1015200000218020FFF799FD31E0BB48844208D1BB
:1015300001218015FFF791FD0021A015FFF78DFD1A
:1015400025E0B648844209D101210804FFF778FD5F
:1015500000214FF48030FFF773FD18E0B04884425B
:1015600009D101214804FFF76BFD00214FF4003041
:10157000FFF766FD0BE0AB48844208D101218804E7
:10158000FFF75EFD00214FF48020FFF759FD10BDED
:1015900000220288944B98420ED0994B98420BD06F
:1015A000B0F1804F08D0914B984205D0904B9842B3
:1015B00002D0904B984204D14FF68F731A404B885B
:1015C0001A438D4B984207D08C4B984204D04FF66B
:1015D000FF431A40CB881A4302808B8883850B888F
:1015E0000385814B98420BD0854B984208D08B4B9A
:1015F000984205D08A4B984202D08A4B984201D13A
:101600000B7A038601238382704770B50024002281
:101610000023058C4FF6FE7635400584028C8388C6
:10162000048B4FF68F752C40B51E2C400D882C4333
:10163000751E2A400D892A434D882A436A4DA842C7
:101640000BD06F4DA84208D0744DA84205D0744D00
:10165000A84202D0734DA84213D14FF6F7752A4025
:101660004D892A434FF6FB752A408D882A434FF651
:10167000FF652B404FF6FF552B408D892B43CD89BD
:101680002B4383800483CD888586028470BD70B52A
:10169000002400220023058C4FF6EF7635400584A8
:1016A000028C8388048B48F6FF752C404FF6FF456B
:1016B0002C400D884FF6FF7606EA05252C434FF6A1
:1016C000DF752A400D8906EA05152A434D8806EA8A
:1016D00005152A43444DA84202D0494DA8421DD1C8
:1016E0004FF67F752A404D894FF6FF7606EA0515BD
:1016F0002A434FF6BF752A408D8806EA05152A430E
:101700004FF6FF352B404FF2FF752B408D8906EACF
:1017100085052B43CD8906EA85052B438380048309
:10172000CD880587028470BD70B500240022002397
:10173000058C4FF6FF6635400584028C8388848BC8
:101740004FF68F752C404FF6FC752C400D882C43BE
:101750004FF6FF552A400D894FF6FF7606EA05251C
:101760002A434D8806EA05252A431F4DA84202D088
:10177000234DA8421DD14FF2FF752A404D894FF6E7
:10178000FF7606EA05252A434FF6FF352A408D8865
:1017900006EA05252A434EF6FF752B404DF6FF75E8
:1017A0002B408D8906EA05152B43CD8906EA0515E0
:1017B0002B4383808483CD888587028470BD70B578
:1017C000002200230024058C4EF6FF763540058468
:1017D000038C8488828B48F6FF752A404FF6FF45BC
:1017E0002A400D8820E00000002C01400004004049
:1017F00000080040000C00400010004000140040B1
:1018000000340140004C01400050014000540140B0
:1018100000180040001C0040002000400040014033
:1018200000440140004801404FF6FF7606EA0525D6
:101830002A434DF6FF752B400D8906EA05352B43EB
:101840004D8806EA05352B43FA4DA84202D0FA4DE1
:10185000A84208D14BF6FF752C408D894FF6FF76D4
:1018600006EA85152C4384808283CD88A0F84050F9
:10187000038470BD828B4FF2FF331A408283828BC8
:101880004FF6FF7303EA01231A4382837047F0B5D2
:101890000C461546002200210026078C4EF6FF7CE0
:1018A00007EA0C070784828B018C4FF6FF7707EA63
:1018B000043640F6FF473A404FF6FF7707EA052720
:1018C0003A434FF6FF7707EA03373A43D94FB84216
:1018D0000ED0D94FB8420BD0B0F1804F08D0D74FBF
:1018E000B84205D0D64FB84202D0D64FB84206D142
:1018F0004DF6FF77394046F48057394305E047F607
:10190000FF57394044F48057394382830184F0BD46
:10191000828B4FF6F3731A408283828B0A43828351
:101920007047F0B50C461546002200210026078CB2
:101930004FF6FF6C07EA0C070784828B018C4FF689
:10194000FF7707EA04264FF60C773A404FF6FF7709
:1019500007EA03172F433A43B64FB8420ED0B64FAB
:10196000B8420BD0B0F1804F08D0B44FB84205D088
:10197000B34FB84202D0B34FB84206D14FF6FF572B
:10198000394046F48077394305E04FF2FF5739403C
:1019900044F48077394382830184F0BD028B4FF297
:1019A000FF331A400283028B4FF6FF7303EA0123D1
:1019B0001A4302837047F0B50C46154600220021F9
:1019C0000026078C4FF6EF7C07EA0C070784028B92
:1019D000018C4FF6FF7707EA041640F6FF473A40BE
:1019E0004FF6FF7707EA03373A434FF6FF7707EAE8
:1019F00005273A438F4FB8420ED08F4FB8420BD0D5
:101A0000B0F1804F08D08D4FB84205D08C4FB8420E
:101A100002D08C4FB84206D14FF6DF77394046F0FE
:101A20001007394305E04FF65F77394044F010075F
:101A3000394302830184F0BD028B4FF6F3731A40E1
:101A40000283028B0A4302837047F0B50C461546A9
:101A500000220021068C4FF6FE773E400684028B62
:101A6000018C4FF60C7632407E1C06EA03162E439C
:101A70003243704EB0420ED06F4EB0420BD0B0F138
:101A8000804F08D06D4EB04205D06D4EB04202D0AE
:101A90006C4EB04206D14FF6FD76314044F001065F
:101AA000314305E04FF6F576314044F0010631430D
:101AB00002830184F0BD70B505460C465D48854241
:101AC0000ED05D4885420BD0B5F1804F08D05B4801
:101AD000854205D05A48854202D05A48854200D1F5
:101AE00000E000BF208850B92389A2886188284679
:101AF000FFF7ABFFE1882846FFF79EFF25E020882F
:101B000004280AD12389A28861882846FFF753FF59
:101B1000E1882846FFF742FF17E0208808280AD10D
:101B20002389A28861882846FFF7FBFEE1882846C2
:101B3000FFF7EEFE09E02389A28861882846FFF7B7
:101B4000A6FEE1882846FFF795FE70BD2DE9F0411D
:101B500005460C4600260127608808B9022600E0E9
:101B60000026A088012801D1022700E00127208853
:101B7000A0B92389A28861882846FFF766FFE1881B
:101B80002846FFF759FF23893A4631462846FFF792
:101B900012FFE1882846FFF701FF13E02389A2889E
:101BA00061882846FFF707FFE1882846FFF7F6FE21
:101BB00023893A4631462846FFF747FFE188284601
:101BC000FFF73AFFBDE8F0810A884B881A438B88FB
:101BD0001A43CB881A430B891A434B891A438B89C2
:101BE0001A43A0F8442070474FF6FF71818000210E
:101BF0000180C180418001727047002101804180D5
:101C00008180C180018141818181C1817047002132
:101C100001804180012181800021C18001817047C4
:101C20000021018041808180C180018141818181C9
:101C300070470000002C01400034014000040040C7
:101C400000080040000C004021B1028842F001026F
:101C5000028004E002884FF6FE731A40028070474B
:101C600031B1B0F8442042F40042A0F8442005E02D
:101C7000B0F84420C2F30E02A0F8442070471AB115
:101C800083890B43838102E083898B43838170477F
:101C90008182704741EA0203A0F8483070471AB1C8
:101CA00083890B43838102E083898B43838170475F
:101CB00001894FF6F8721140018170470A460021F0
:101CC00001894FF68F73194011430181704730B578
:101CD00004460D4629462046FFF7F0FF208940F0D4
:101CE0000700208130BD2DE9F04104460D4616461F
:101CF0001F46602D06D13B46012231462046FFF7A4
:101D00005AFE05E03B46012231462046FFF79DFE84
:101D100029462046FFF7D2FF208940F007002081A6
:101D2000BDE8F08130B50C4600210189C9B24FF6FB
:101D3000FF7505EA0325154325432943018130BD7D
:101D40002DE9F04105460E461746984600244346C5
:101D50003A4631462846FFF7E5FF2C894FF6F870E2
:101D6000044044F007044FF68F70044044F07004C0
:101D70002C81BDE8F081F0B504460D4616461F469D
:101D80003B46324629462046FFF7CCFF208940F4E7
:101D900080402081F0BD0185828270470A46002183
:101DA00001884FF68F731940114301807047F0B5D9
:101DB0000C4615461E460021002200230189028B95
:101DC000038C4FF6F877394021434FF6FC473A40F1
:101DD00040F201173A434FF6DD773B404FF6FF776D
:101DE00007EA06172F433B43018102830384F0BDBA
:101DF0000A460021018B4FF68F731940114301836E
:101E000070470A460021018B48F6FF7319404FF6D0
:101E1000FF7303EA02231943018370470A46002136
:101E2000818B4FF68F7319401143818370470A46A7
:101E30000021818B48F6FF7319404FF6FF7303EAC8
:101E4000022319438183704721B1028842F0800246
:101E5000028004E002884FF67F731A4002807047C8
:101E600021B1828842F00402828004E082884FF629
:101E7000FB731A408280704721B1828842F00802C9
:101E8000828004E082884FF6F7731A4082807047A0
:101E900021B1828842F00102828004E082884FF6FC
:101EA000FE731A40828070470A460021018B4FF66C
:101EB000F77319401143018370470A460021018BD3
:101EC0004FF2FF7319404FF6FF7303EA02231943E1
:101ED000018370470A460021818B4FF6F773194042
:101EE0001143818370470A460021818B4FF2FF73B3
:101EF00019404FF6FF7303EA0223194381837047A9
:101F00000A460021018B4FF6FB73194011430183F0
:101F100070470A460021018B4FF6FF3319404FF6F8
:101F2000FF7303EA02231943018370470A46002125
:101F3000818B4FF6FB7319401143818370470A462A
:101F40000021818B4FF6FF3319404FF6FF7303EAF0
:101F500002231943818370470A460021018B4FF603
:101F60007F7319401143018370470A460021018B9A
:101F7000C1F30E014FF6FF7303EA022319430183F5
:101F800070470A460021818B4FF67F731940114339
:101F9000818370470A460021818BC1F30E014FF601
:101FA000FF7303EA02231943818370470A46002125
:101FB000018C4FF6FD7319401143018470470A46A6
:101FC0000021018C4FF6F7731940114301847047CB
:101FD0000A460021018C4FF6DF7319404FF6FF735C
:101FE00003EA02131943018470470A460021018C59
:101FF0004FF67F7319404FF6FF7303EA021319433C
:10200000018470470A460021018C4FF6FF531940A6
:102010004FF6FF7303EA02231943018470470A460F
:102020000021018C4FF2FF7319404FF6FF7303EA52
:1020300002231943018470470A460021018C4DF6A2
:10204000FF7319404FF6FF7303EA0233194301840B
:10205000704730B5002301248C40A3B2048C9C430C
:102060000484048C02FA01F5ADB22C43048430BD23
:1020700030B5002304248C40A3B2048C9C43048418
:10208000048C02FA01F5ADB22C43048430BD70B566
:102090000346002000241846183001258D40ACB2BC
:1020A0001D8CA5431D8409B1082909D100EB6100ED
:1020B000056825F0700505600568154305600EE0AC
:1020C0000D1FC5F34E052844056825F4E04505605D
:1020D00005684FF6FF7606EA02263543056070BDB7
:1020E00021B1028842F00202028004E002884FF629
:1020F000FD731A400280704721B1028842F0040249
:10210000028004E002884FF6FB731A400280704799
:1021100021B1828842F08002828004E082884FF6FA
:102120007F731A408280704702884FF6F7731A4017
:10213000028002880A430280704782884FF68F73BC
:102140001A40828082880A438280704702894FF653
:10215000F8731A40028102890A430281704702899A
:102160004FF67F731A40028102890A430281704749
:1021700081847047818570478186704701877047E9
:1021800081877047A0F84010704702884FF6FF43E0
:102190001A40028002880A43028070470146888EF6
:1021A00070470146088F70470146888F7047014687
:1021B000B1F8400070470146888C70470146088D91
:1021C000704702460020138A0B4201D0012000E034
:1021D00000207047CA430282704730B50246002093
:1021E00000230024158A05EA0103958905EA010404
:1021F00013B10CB1012000E0002030BDCA430282BF
:102200007047000010B50446FB48844209D1012103
:102210008803FEF715FF00214FF48040FEF710FF02
:1022200032E0F648844209D101214804FEF715FF47
:1022300000214FF40030FEF710FF25E0F048844203
:1022400009D101218804FEF708FF00214FF4802006
:10225000FEF703FF18E0EB48844209D10121C804CE
:10226000FEF7FBFE00214FF40020FEF7F6FE0BE028
:10227000E548844208D101210805FEF7EEFE002161
:102280004FF48010FEF7E9FE10BD2DE9F04786B04F
:1022900005460E460024A24600BFA1460027B0898D
:1022A00000B100BF2F462C8A4CF6FF700440F08826
:1022B00004432C82AC894EF6F3100440B088318977
:1022C0000843718908430443AC81AC8A4FF6FF4050
:1022D0000440B0890443AC8201A8FEF72AFEC64838
:1022E000874202D1DDF810A001E0DDF80CA0A8893A
:1022F00010F4004F08D00AEBCA0000EB0A10316856
:102300004900B0FBF1F807E00AEBCA0000EB0A1045
:1023100031688900B0FBF1F86420B8FBF0F00401EB
:102320002009642101FB1089A88910F4004F08D00E
:10233000322000EBC900B0FBF1F000F007000443CD
:1023400008E0322000EB09106421B0FBF1F000F04E
:102350000F0004432C8106B0BDE8F0874FF41651FE
:10236000016000218180C18001810C214181002117
:102370008181704710B502460020108A4FF2FF039A
:1023800018400B884C8823438C882343CC882343F4
:102390001843108210BD0021018041808180C180DE
:1023A000704721B1828942F40052828104E082891F
:1023B0004DF6FF731A4082817047F0B50346002442
:1023C000002600250020A1F510676A3F00D100BF5C
:1023D0001846C1F3421401F01F06012707FA06F55B
:1023E000012C01D10C3004E0022C01D1103000E0AE
:1023F00014301AB107682F43076002E00768AF4343
:102400000760F0BD1AB1838A0B43838202E0838A9E
:102410008B4383827047028A4FF6F0731A40028220
:10242000028A0A430282704782894FF2FF731A4080
:10243000828182890A438281704721B1828942F078
:102440000202828104E082894FF6FD731A40828184
:102450007047028A4FF6DF731A400282028A0A43EB
:102460000282704721B1028A42F48042028204E073
:10247000028A4BF6FF731A4002827047C1F30802CA
:102480008280704701468888C0F3080070478189C0
:1024900041F0010181817047028BD2B20283028B2D
:1024A00042EA012202837047028B02F47F420283D8
:1024B000028B0A430283704721B1828A42F02002D4
:1024C000828204E0828A4FF6DF731A40828270476C
:1024D00021B1828A42F01002828204E0828A4FF6A1
:1024E000EF731A408282704721B1828A42F008025B
:1024F000828204E0828A4FF6F7731A408282704724
:1025000021B1828942F40042828103E08289C2F3D0
:102510000E028281704721B1828A42F40062828277
:1025200004E0828A4FF2FF731A4082827047828AE7
:102530004FF6FB731A408282828A0A438282704776
:1025400021B1828A42F00202828204E0828A4FF63E
:10255000FD731A408282704702460020B1F5007F69
:1025600000D100BF13880B4201D0012000E0002001
:10257000704701F40072B2F5007F00D100BFCA437A
:102580000280704770B50246002400230025002019
:10259000A1F510666A3E00D100BFC1F3421501F0FB
:1025A0001F03012606FA03F3012D02D19689334059
:1025B00006E0022D02D1168A334001E0968A3340AC
:1025C0000C12012606FA04F41688344013B10CB13B
:1025D000012000E0002070BD10B500220023A1F50D
:1025E00010646A3C00D100BF0A1201249440A3B2D7
:1025F000DC43048010BD000000380140004400406E
:1026000000480040004C00400050004010B56FF002
:102610000400FEF739F9374800683749B0FBF1F09C
:10262000364908700846007800EB4001C1EBC01045
:102630004FF6FF7101EAC0003149088010BD014624
:102640002E4A12784A434FF0E0235A6100229A61E1
:102650001A46126942F001021A6100BF4FF0E022EF
:10266000106910F0010F02D010F4803FF6D04FF047
:10267000E022126922F001024FF0E0231A610022E9
:102680009A61704701461E4A12884A434FF0E02380
:102690005A6100229A611A46126942F001021A61D7
:1026A00000BF4FF0E022106910F0010F02D010F4CB
:1026B000803FF6D04FF0E022126922F001024FF085
:1026C000E0231A6100229A61704710B50446002089
:1026D0000C49088008E04FF47A70FFF7D3FF0948EF
:1026E0000088401C0749088006480088A042F2DBA9
:1026F00010BD00000C00002000127A003400002001
:10270000360000203800002010B54FF4A060FEF71E
:102710006BF810BD014600BF704700BF494A1288E0
:1027200012F0400FFAD0C2B2464B1B1D1A80704700
:1027300010B586B00446012144F20400FEF766FCA1
:102740004FF40070ADF8140003208DF81600182027
:102750008DF8170005A93C48FEF7A2F94FF48060F8
:10276000ADF8140004208DF8170005A93648FEF7CF
:1027700097F925208DF8000003208DF801008DF8D1
:10278000020001208DF803006846FEF732F801943C
:102790000020ADF80800ADF80A00ADF80C00ADF867
:1027A00010000C20ADF80E0001A92648FFF76DFDC2
:1027B000012240F225512348FFF7FFFD0121214866
:1027C000FFF7EFFD06B010BD10B540F225511D48D2
:1027D000FFF7D8FE10B31B48FFF754FEC4B21B48E6
:1027E000008810F4004F2BD11848008810F4804F57
:1027F0000CD00A2C03D000201449088020E0134894
:10280000008840F400401149088019E00D2C06D1E1
:102810000E48008840F480400C49088010E00B48C6
:102820000088C0F30D000A490C5408480088401C79
:102830000649088008460088C72801DD0020088076
:1028400010BD000000380140000801403C0000209D
:10285000A001002008B501213020FEF7D7FB04209D
:10286000ADF8000010208DF8030003208DF8020061
:1028700069462948FEF714F94FF4E050ADF800001E
:1028800069462648FEF70CF90120254908602549CC
:10289000C1F8B001244908602249C1F8A80108BD67
:1028A00000201F4908604FF001001E49C1F8B00127
:1028B0001D4908601B49C1F8A8017047012018494B
:1028C00008604FF000001749C1F8B0014FF0010057
:1028D000154908601349C1F8A80170470120104943
:1028E00008601049C1F8B0014FF000000E490860BF
:1028F0004FF001000B49C1F8A801704701200849B9
:1029000008600849C1F8B001074908604FF00000AD
:102910000449C1F8A80170470014014000100140AB
:102920008881224200002242AC0122427FB5054646
:102930000C4601210220FEF776FBADF80850ADF8F9
:1029400004400020ADF80A00ADF8060001A93648A1
:10295000FEF71EFE002201213348FFF790F91D20EB
:102960008DF8000001208DF8010003208DF8020091
:1029700001208DF803006846FDF73BFF01212A483E
:10298000FFF762F97FBD70B5002427482430008826
:102990002649086000202449243108802348006823
:1029A00006F0BAF80546224906F0FEF8044620462D
:1029B00070BD10B501211C48FFF70FFC30B11DA000
:1029C00002F01EFA01211848FFF718FC10BD7FB570
:1029D00005460C4601210420FEF725FBADF8085002
:1029E000ADF804400020ADF80A00ADF8060001A9DA
:1029F0001348FEF7CDFD012211461148FFF73FF9BC
:102A00001E208DF8000000208DF8010002208DF8B6
:102A1000020001208DF803006846FDF7EAFE01215F
:102A20000748FFF711F97FBD000400404400002073
:102A3000BD3786353320D6D0B6CF0D0A0000000052
:102A40000008004030B589B005460C460121084613
:102A5000FEF7E9FA01210520FEF7D8FA0F20ADF8BC
:102A6000200018208DF8230003208DF8220008A9EB
:102A70004748FEF715F8ADF81850ADF8144000209F
:102A8000ADF81A00ADF8160005A94FF08040FEF72A
:102A90007FFD7020ADF804000120ADF80600002095
:102AA000ADF80A000220ADF80C0001A94007FEF7BE
:102AB000ACFD0821C806FFF7F7F97020ADF8040057
:102AC0000120ADF806000020ADF80A000220ADF8A4
:102AD0000C0001A94007FEF7DAFD0821C806FFF740
:102AE000ECF97020ADF804000120ADF806000020DC
:102AF000ADF80A000220ADF80C0001A94007FEF76E
:102B000013FE0821C806FFF7E5F97020ADF80400B0
:102B10000120ADF806000020ADF80A000220ADF853
:102B20000C0001A94007FEF74AFE0821C806FFF77E
:102B3000DAF901218807FFF787F901218807FFF7F4
:102B400083F809B030BD10B500214FF08040FFF789
:102B500019FB00214FF08040FFF710FB00214FF0E0
:102B60008040FFF709FB00214FF08040FFF708FB92
:102B700010BD0849088070474FF0804108877047B2
:102B80004FF08041888670474FF0804188877047BA
:102B9000000801404000004070B504464E480068FF
:102BA0004D494860206880F000454C48016828463F
:102BB00006F08AF948490860494800684849486071
:102BC00048496068096806F07FF945490860464849
:102BD0000068454948604549A068096806F074F9ED
:102BE000414908600868424906F0AAF806D23E4901
:102BF0000868404906F068F93B4908603A490868A6
:102C00003D4905F09DFF06D237490868394905F06E
:102C1000E7FD3549086030480068384908602E4AA9
:102C20005168106806F050F90546354905F046FE32
:102C3000324948602A48006832490860284A516889
:102C4000106806F041F905462D4905F037FE2D497B
:102C50004860254800682C490860284948682B4985
:102C6000096805F0A1FF064624480168304605F0D2
:102C7000B7FD054626480168284605F095FF254919
:102C80000860204948682149096805F08DFF06461B
:102C90001C480168304605F0A3FD05461C48016844
:102CA000284605F081FF1C490860174801681B4849
:102CB00005F07AFF1A4908601A48007840B10846C2
:102CC0000268154801681348006801F0BDFF02E082
:102CD0000020FFF738FF70BD600000205800002082
:102CE0006800002054000020700000205C000020DC
:102CF000000034430000B443000034C378000020D7
:102D00000AD7A33B8000002088000020500000204C
:102D10004C0000209000002094000020333323401A
:102D2000980000204800002000B587B00121142041
:102D3000FEF76CF91020ADF8180003208DF81A008A
:102D400010208DF81B0006A9B248FDF7A9FE06A9C0
:102D5000B148FDF7A5FE2020ADF8180048208DF8F9
:102D60001B0003208DF81A0006A9AB48FDF798FE5A
:102D700000F08FF90021A948FEF77BFA0020ADF89A
:102D800004004FF48270ADF806000020ADF8080092
:102D9000ADF80A00ADF80C004FF40070ADF80E006D
:102DA0001820ADF810000020ADF812000720ADF893
:102DB000140001A99948FEF7B7F901219748FEF7D9
:102DC00058FA0020964908604FF001009549C1F873
:102DD000900107B000BD2DE9F04107460D461646AB
:102DE000002091490860384600F02CF98046002404
:102DF00005E0FF2000F026F92855601CC4B2B4425B
:102E0000F7DB0120884908604046BDE8F0812DE9E4
:102E1000F04107460C4615460020834908603846B5
:102E200000F010F98046002605E014F8010B00F0D0
:102E300009F9701CC6B2AE42F7DB01207A4908607E
:102E40004046BDE8F0811CB578A103C9CDE9000179
:102E5000082000F05FF9052269463020FFF7D7FF10
:102E6000052269461020FFF7B6FF002406E01DF892
:102E70000400A52800D003E0601CC4B2052CF6DBDA
:102E800000BF052C01D001201CBD0020FCE770B55F
:102E900005460C46002064490860284600F0D2F838
:102EA0000646204600F0CEF801205E49C1F89001A8
:102EB000304670BD70B5044600205B49086020466E
:102EC00000F0C0F8FF2000F0BDF80546012055498C
:102ED000C1F89001284670BD70B50546102000F07D
:102EE00019F900204E4908604FF0200229464FF0A2
:102EF000A000FFF78CFF01204E49C1F8900100BFF0
:102F00004D4800680028FBD14FF00700FFF7D2FFC3
:102F1000044621462720FFF7BAFF14F0100F05D012
:102F2000FF21E120FFF7B3FF102070BD14F0200F48
:102F300001D02020F9E7FF20F7E770B5044607200D
:102F4000FFF7B8FF054629462720FFF7A0FF2022FC
:102F500021466120FFF73FFFFF21E220FFF797FFA7
:102F6000002070BD10B500202D4908604FF005020B
:102F700032494FF02A00FFF74AFF01212120FFF7D5
:102F800086FF01212220FFF782FF28212520FFF75D
:102F90007EFF20213120FFF77AFF0F212620FFF747
:102FA00076FF0F212020FFF772FF01202149C1F891
:102FB00090017820FFF743FB10BD10B500201849A1
:102FC00008604FF005021E494FF03000FFF71FFF69
:102FD00005221A492A20FFF71AFF01212120FFF7B5
:102FE00056FF01212220FFF752FF1A212420FFF76C
:102FF0004EFF28212520FFF74AFF0F212620FFF74B
:1030000046FF0E212020FFF742FF01200949C1F8A9
:10301000900110BD00080140001001400030014047
:10302000900121420000224290012242A5A5A5A5BF
:10303000A50000000000214214012242B7900008C0
:10304000B290000870B50546002405E0601CC4B2CB
:10305000C82C01DD002070BD02213748FEF78DF934
:103060000028F3D029463448FEF734F9002405E05F
:10307000601CC4B2C82C01DD0020ECE701212E4801
:10308000FEF77BF90028F3D02B48FEF725F9C0B2F4
:10309000E1E700B587B0012141F20400FDF7B6FF7A
:1030A000E020ADF8180018208DF81B0003208DF8E3
:1030B0001A0006A92148FDF7F3FCE0211F48FDF79F
:1030C0009AFD0020ADF804004FF48270ADF80600C0
:1030D0000020ADF808000220ADF80A000120ADF88C
:1030E0000C004002ADF80E003820ADF810000020B2
:1030F000ADF812000720ADF8140001A90E48FEF744
:1031000013F801210C48FEF7B4F8FF20FFF79AFFEF
:1031100007B000BD10B50446074800884FF6C771D8
:10312000084005490880084600882043088001219E
:103130000148FEF79EF810BD003001400008014034
:103140000EB501210846FDF761FF05210220FDF7BC
:10315000BBFD2020019000208DF808000C208DF888
:10316000090001208DF80A0001A8FDF7B9FB17201E
:103170008DF8000000208DF801008DF8020001207C
:103180008DF803006846FDF734FB0EBD1CB50A211F
:103190003C2000F01CFB8DF800000B213C2000F0CF
:1031A00016FB8DF801000C213C2000F010FB8DF87F
:1031B00002001E213C2000F00AFB8DF803009DF860
:1031C00003109CA001F01CFE1CBD10B500220221C2
:1031D0003C2000F01BFBE02201213C2000F016FB0C
:1031E00010BD3EB504462346062203213C2000F0D4
:1031F000DBFAC5B26078217840EA012000B28F493D
:103200000880E078A17840EA012000B28C4908806B
:103210006079217940EA012000B28A49088060790A
:103220002179E278CDE900210290A37862782178B3
:1032300085A001F0E5FD3EBD2DE9F04104460025E5
:10324000002621463C2000F0C2FA0546601CC1B2AF
:103250003C2000F0BCFA064646EA052007B2384694
:10326000BDE8F0812DE9F0410320FFF7E5FF00B252
:10327000724908800720FFF7DFFF00B2704908801D
:103280000520FFF7D9FF00B26E4908806B4800881F
:10329000163800B2694908806948B0F9000004F0A6
:1032A000FCFE06460022724B04F078FC044604F053
:1032B000C5FE00B2624908806248B0F9000004F01F
:1032C000ECFE064600226B4B04F068FC044604F05A
:1032D000B5FE00B25B490880BDE8F0812DE9F04FF2
:1032E00093B0FFF7BFFF64484FF06632634BD0E9FD
:1032F00004A1504604F00EFDCDE9080104F098FA4F
:1033000004460D465C484FF066325C4BD0E904A1A0
:10331000504604F0FFFCCDE9080104F04BFB0646E3
:103320000F4655484FF06632544BD0E900A1504645
:1033300004F0F0FCCDE9080104F07AFACDE91001BF
:103340004D49D1E900A14FF066324C4B504604F094
:10335000E1FCCDE9080104F02DFB8046894639489F
:10336000B0F9000004F099FE824622462B4604F094
:10337000FBFE42464B46CDE9040104F0F5FECDE9E3
:1033800008012F48B0F9000004F087FE824632465B
:103390003B4604F0E9FE42464B46CDE9000104F00D
:1033A000E3FECDE904012548B0F9000004F075FE04
:1033B0008246DDE9102304F0D7FECDE90201DDE904
:1033C000042304F0EBFBCDE90601DDE9082304F05A
:1033D000E5FBCDE90E011B48B0F9000004F05DFEED
:1033E000824632463B4604F0BFFECDE90801144850
:1033F000B0F9000004F051FE824622462B4604F04C
:10340000B3FECDE90601DDE9082305F0D3F8CDE9E7
:103410000C010CA80FC804F035F982464FF0663253
:10342000164B04F0A1FECDE90A01DDE90A0113B053
:10343000BDE8F08F2564200D0A000000A0000020E8
:10344000A2000020A40000202D2D2D2D2D2D2D2D8E
:103450002D2D2D2D2D2D2D2D256420202564202072
:10346000256420256420202564202025640D0A0081
:1034700000404140000021406802002066A64C4008
:1034800010B5FC48006820F07040FA490860084612
:10349000006840F0405008600120F7490860F74993
:1034A000C1F898014FF00500FFF7C9F80020F24974
:1034B00008604FF00500FFF7C2F80020EF49C1F89F
:1034C000980110BD10B5EB48006820F07040E94944
:1034D00008600846006840F0405008600020E84955
:1034E0000860E649C1F89C014FF00500FFF7A7F816
:1034F0000120E3490860E149C1F89C014FF0050053
:10350000FFF79DF810BD10B50024DA48006820F0E0
:103510007040D84908600846006840F000400860E4
:103520000120D54908604FF00200FFF788F801201C
:10353000D249C1F898010520FFF781F807E0601C27
:10354000C4B2FA2C03DDFFF7BDFF012010BDCD484A
:1035500000680028F3D1CA49086000BFF6E710B53B
:103560000020C7490860C348006820F07040C14986
:1035700008600846006840F0405008604FF00000C6
:10358000BE49C1F89C014FF00300FFF758F8012035
:10359000BB4908604FF00500FFF751F80020B7491C
:1035A000C1F8980110BD10B50020B5490860B148B8
:1035B000006820F07040AF4908600846006840F09D
:1035C000405008604FF00100AC49C1F89C014FF039
:1035D0000200FFF734F80120A94908604FF002000B
:1035E000FFF72DF80020A549C1F8980110BD70B56E
:1035F0000446A048006820F070409E4908600846D4
:10360000006840F04050086000209D490860054671
:103610001AE0E009984908604FF00200FFF70FF840
:1036200001209649C1F898010420FFF708F800200E
:10363000934908604FEA44604FEA10644FF002007B
:10364000FEF7FDFF681CC5B2082DE2DB70BD70B54A
:10365000054600248748006820F0704085490860CE
:103660000846006840F000400860002616E0002090
:10367000834908604FF00200FEF7E1FF01207F4917
:10368000C1F898016006040E7E48006808B1601C0D
:10369000C4B20120FEF7D3FF701CC6B2082EE6DBD1
:1036A00015B9FFF780FF01E0FFF759FF204670BD15
:1036B0002DE9F04106460F4690461C46FFF7E0FE16
:1036C000002141EA4601C8B2FFF791FFFFF71BFF57
:1036D00020B1FFF7F7FE0020BDE8F0813846FFF784
:1036E00086FFFFF710FF00250BE02078FFF77FFF34
:1036F000FFF709FF18B1FFF7E5FE0020ECE7641CB7
:103700006D1C4545F1DBFFF7DDFE0120E4E72DE907
:10371000F04104460D4616461F463B4632462946B2
:103720002046FFF7C5FF10B10020BDE8F0814FF043
:10373000FF30FAE72DE9F04105460F4614461E46D4
:10374000FFF79EFE002141EA4501C8B2FFF74FFF97
:10375000FFF7D9FE20B1FFF7B5FE0020BDE8F081EC
:103760003846FFF744FFFFF7CEFEFFF789FE012141
:1037700001EB4501C8B2FFF73AFFFFF7C4FE0DE0C9
:103780000120FFF764FF3070012C02D1FFF70BFF1F
:1037900001E0FFF7E4FE761C601EC4B2002CEFD1FE
:1037A000FFF790FE0120D9E72DE9F04104460D46D0
:1037B00016461F463B46324629462046FFF7BAFFCB
:1037C00010B10020BDE8F0814FF0FF30FAE770B58E
:1037D00004460D46FFF754FE2046FFF708FFFFF7AB
:1037E00092FE2846FFF703FFFFF78DFEFFF748FE26
:1037F000611CC8B2FFF7FBFEFFF785FE0020FFF754
:1038000026FF0646FFF75EFE304670BD70B50646E1
:103810000C461546FFF734FE3046FFF7E8FEFFF78B
:1038200072FE18B1FFF74EFE002070BD2046FFF774
:10383000DEFEFFF768FE2846FFF7D9FEFFF763FEBE
:10384000FFF740FE0120F0E708B501210820FDF751
:10385000DDFBC020ADF8000010208DF80300032030
:103860008DF8020069460348FDF71AF9FFF72AFEB2
:1038700008BD0000000C01409C81214200802142D3
:10388000988121421C81214270B50024002500BF8F
:1038900006E0002500E06D1CB5F57A7FFBDB641CBB
:1038A000B4F57A7FF5DB00226B21D020FFF7AEFF65
:1038B00007221921D020FFF7A9FF06221A21D020C4
:1038C000FFF7A4FF18221B21D020FFF79FFF002243
:1038D0001C21D020FFF79AFF70BD10B50024752180
:1038E000D020FFF774FF044610BD2DE9F0410446D7
:1038F000002500262146D020FFF769FF0546601C01
:10390000C1B2D020FFF763FF064646EA052007B2A2
:103910003846BDE8F08110B53B20FFF7E6FF4E4981
:103920000988401A00B24D4908803D20FFF7DDFFAD
:1039300049494988401A00B2484948803F20FFF76A
:10394000D4FF45498988401A00B244498880432001
:10395000FFF7CBFF00B2424908804520FFF7C5FFC3
:1039600000B2404908804720FFF7BFFF00B23E4940
:10397000088010BD2DE9F0473849B1F9000004F086
:103980008CFB044604F0D8F8384908603349B1F993
:10399000020004F082FB044604F0CEF8334948608C
:1039A0002E49B1F9040004F078FB044604F0C4F891
:1039B0002E4988602A48B0F9000004F06EFB0646E4
:1039C0004FF066322A4B04F0A5F980462948D0E929
:1039D00000633246404604F0EDFD044604F0ACF8C6
:1039E000254908601F48B0F9000004F056FB064660
:1039F0004FF066321E4B04F08DF904461D48D0E9A5
:103A000002633246204604F0D5FD804604F094F867
:103A1000194948601448B0F9000004F03EFB06461E
:103A20004FF06632124B04F075F904460D46114909
:103A3000D1E904633246294604F0BCFD804604F017
:103A40007BF80D498860BDE8F08710B5FFF763FF8C
:103A5000FFF790FF10BD0000B0000020D000002054
:103A6000DC000020DE000020E000002080020020BA
:103A700066663040B80000208C0200202DE9F04737
:103A800004464FF07C51204605F08EF881462546CD
:103A90002E46FE48A0EB660635462946484605F008
:103AA00083F88246294605F07FF880464FF07F5123
:103AB00005F077F90746294605F076F805462846C9
:103AC000BDE8F0874FF07E50F14908600020F149D1
:103AD0000860F1490860F14908604FF07E50F049F4
:103AE00008600020EF490860EF490860EF4908606E
:103AF000EF490860EF490860EF490860EF49086046
:103B0000EF490860EF490860EF49086070470FB45B
:103B100000B5ABB0DE480168006805F045F81190CB
:103B2000DC480168DA48006805F03EF81090DA4891
:103B30000168D748006805F037F80F90D74801684A
:103B4000D348006805F030F80E90D248016800684C
:103B500005F02AF80D90D0480168CE48006805F0BD
:103B600023F80C90CD480168CA48006805F01CF89D
:103B70000B90C9480168006805F016F80A90C7481C
:103B80000168C548006805F00FF80990C34801684E
:103B9000006805F009F808902C9818902D98179057
:103BA0002E9816902F98039004F0EEFDC74AC84B4C
:103BB000CDE9040104F0D8FACDE9060103F0BCFF19
:103BC0001B903098039004F0DFFDC04AC04BCDE954
:103BD000040104F0C9FACDE9060103F0ADFF1A9023
:103BE0003198039004F0D0FDB84AB94BCDE90401F7
:103BF00004F0BAFACDE9060103F09EFF1990169978
:103C0000084604F0D1FF06901799084604F0CCFF4F
:103C100004901899084604F0C7FF0390049904F033
:103C2000DFFD0590069904F0DBFD0790FFF726FF06
:103C30002A902A99189804F0B7FF18902A99179893
:103C400004F0B2FF17902A99169804F0ADFF169071
:103C50003499084604F0A8FF06903399084604F00A
:103C6000A3FF04903299084604F09EFF0390049944
:103C700004F0B6FD0590069904F0B2FD0790FFF739
:103C8000FDFE2A902A99329804F08EFF32902A99EC
:103C9000339804F089FF33902A99349804F084FF14
:103CA00034900F990B9804F09BFD05904FF08040E5
:103CB000349904F079FF0490059904F075FF07909A
:103CC0000E990C9805F000F903904FF0804033995D
:103CD00004F06AFF0290039904F066FF05904FF02C
:103CE0007C500A9905F0F0F80190089905F0ECF87D
:103CF00003904FF08040329904F056FF02900399F0
:103D000004F052FF0490059904F06AFD06900799AB
:103D100004F066FD29901099099805F0D5F80590F2
:103D20004FF08040349904F03FFF0490059904F06F
:103D30003BFF07904FF07C500D9905F0C5F80190BE
:103D4000089905F0C1F803904FF08040339904F0D2
:103D50002BFF0290039904F027FF05900E990C9811
:103D600004F03EFD03904FF08040329904F01CFFB8
:103D70000290039904F018FF0490059904F030FDB7
:103D80000690079904F02CFD28904FF07C500D9977
:103D900005F09AF803900A9905F096F805904FF00F
:103DA0008040349904F000FF0490059904F0FCFE73
:103DB00007901099099804F013FD03904FF080408C
:103DC000339904F0F1FE0290039904F0EDFE0590A2
:103DD0000F990B9805F078F803904FF080403299D6
:103DE00004F0E2FE0290039904F0DEFE04900599CF
:103DF00004F0F6FC0690079904F0F2FC279028994D
:103E0000084604F0D1FE06902999084604F0CCFE3D
:103E10000590069904F0E4FC079003F04AFE269012
:103E2000279825900F990B9805F04EF84FF0804198
:103E3000079004F0B9FE24900999109804F0D0FC82
:103E40004FF08041079004F0AFFE23900D99119838
:103E500005F03AF806900A9905F036F807900899A7
:103E600004F0BEFC22900F990B9805F02DF80590F8
:103E70004FF08040259904F097FE0490059904F0D6
:103E800093FE07904FF07C500A9923E0DF59375F8B
:103E9000E8000020EC000020F0000020F4000020EA
:103EA000380100203C010020400100204401002096
:103EB000F8000020FC000020000100202C01002060
:103EC0003001002034010020540100205DA79196AC
:103ED000CADB913F04F0F8FF0390089904F0F4FF67
:103EE00005904FF08040269904F05EFE04900599FD
:103EF00004F05AFE0690079904F072FC219009998B
:103F0000109804F06DFC05904FF08040259904F066
:103F10004BFE0490059904F047FE07900E990C980B
:103F200004F0D2FF05904FF08040269904F03CFE4B
:103F30000490059904F038FE0690079904F050FCAF
:103F400020904FF07C500D9904F0BEFF03900A9929
:103F500004F0BAFF05904FF08040259904F024FE4C
:103F60000490059904F020FE07900B990F9804F037
:103F700037FC05904FF08040269904F015FE049020
:103F8000059904F011FE0690079904F029FC1F9092
:103F90002099349804F008FE05901F99339804F096
:103FA00003FE0490059904F08FFF0790239916985B
:103FB00004F0FAFD05902299179804F0F5FD04909D
:103FC000059904F081FF0690079904F009FC1E9002
:103FD0001F99329804F0E8FD05902199349804F077
:103FE000E3FD0490059904F06FFF0790229918985B
:103FF00004F0DAFD05902499169804F0D5FD04909C
:10400000059904F061FF0690079904F0E9FB1D9003
:104010002199339804F0C8FD05902099329804F056
:10402000C3FD0490059904F04FFF07902499179859
:1040300004F0BAFD05902399189804F0B5FD04909A
:10404000059904F041FF0690079904F0C9FB1C9004
:10405000FEF799FCFE4908600846006804F094FBEE
:104060000022FC4BCDE9040104F07EF8CDE9060105
:1040700003F062FDF849086000211E9804F0E0FC9E
:104080006FD000211D9804F0DBFC6AD000211C9841
:1040900004F0D6FC65D0F1491E9804F085FD069029
:1040A000ED480168069804F07FFD0790EC48016830
:1040B000079804F095FBEA490860E8491D9804F068
:1040C00073FD0690E4480168069804F06DFD0790C2
:1040D000E4480168079804F083FBE2490860DF497F
:1040E0001C9804F061FD0690DB480168069804F016
:1040F0005BFD0790DC480168079804F071FBDA4922
:1041000008604FF080401E9904F04EFD0690D448A0
:104110000168069804F064FB07901B9904F060FBAB
:104120001B904FF080401D9904F03EFD0690CD4855
:104130000168069804F054FB07901A9904F050FBAC
:104140001A904FF080401C9904F02EFD0690C6484E
:104150000168069804F044FB0790199904F040FBAD
:104160001990C2481999006804F01EFD0590C048D6
:104170001A99006804F018FD0390BE48006880F0AA
:10418000004001901B9904F00FFD0290039904F088
:104190009BFE0490059904F097FE0690AE480168D6
:1041A000069804F001FD0790B3480168079804F0F1
:1041B00017FB1590AD481A99006804F0F5FC0590BE
:1041C000AB481999006804F0EFFC0390AA481B99CA
:1041D000006804F0E9FC0290039904F001FB0490EC
:1041E000059904F071FE06909B480168069804F05A
:1041F000DBFC07909F480168079804F0F1FA1490DF
:104200009A481B99006804F0CFFC059099481999C9
:10421000006804F0C9FC039097481A99006804F0FC
:10422000C3FC0290039904F04FFE0490059904F03A
:10423000D7FA069088480168069804F0B5FC079004
:104240008B480168079804F0CBFA139088481B99B3
:10425000006804F0A9FC059086481A99006804F0EB
:10426000A3FC039084481999006804F09DFC029017
:10427000039904F0B5FA0490059904F025FE069020
:1042800075480168069804F08FFC0790774801682C
:10429000079804F0A5FA12901299084604F084FCDD
:1042A00006901399084604F07FFC04901499084680
:1042B00004F07AFC02901599084604F075FC019010
:1042C000029904F08DFA0390049904F089FA05909C
:1042D000069904F085FA0790FFF7D0FB2A902A99F7
:1042E000159804F061FC644908602A99149804F058
:1042F0005BFC604908602A99139804F055FC5C49FE
:1043000008602A99129804F04FFC584908602BB0B5
:104310005DF814FB0FB42DE9F04F8DB0DDF858B007
:1043200017980C9018980B90199804F02DFA534A8E
:10433000534BCDE9040103F017FFCDE9060103F06B
:10434000FBFB0A901A9804F01FFA4C4A4C4BCDE93B
:10435000040103F009FFCDE9060103F0EDFB09902C
:104360001B9804F011FA454A454BCDE9040103F0CE
:10437000FBFECDE9060103F0DFFB08900B99084630
:1043800004F012FC06900C99084604F00DFC594606
:104390000490584604F008FC0390049904F020FAB5
:1043A0000590069904F01CFA0790FFF767FB074693
:1043B0000021384604F044FB02D132A000F020FD79
:1043C0003946584604F0F0FB834639460C9804F011
:1043D000EBFB0C9039460B9804F0E6FB0B9024485D
:1043E00001682548006804F0DFFB06901F4801685B
:1043F0002048006804F0D8FB0590069904F064FD9D
:104400004FF08041079004F0CFFB804617480168C9
:104410001748006804F0C8FB069016480168164863
:10442000006804F0C1FB0590069904F0D9F94FF03B
:104430008041079004F0B8FB81460C480168006891
:1044400004F0B2FB07900A480168006820E0000011
:10445000540100200000E03F280100200AD7A33BC0
:10446000F8000020FC00002000010020F4000020E3
:10447000F0000020EC000020E80000205DA79196ED
:10448000CADB913F204552524F52202000000000CD
:1044900004F08AFB0590FE480168006804F084FB84
:1044A0000390FC480168006804F07EFB02900399C9
:1044B00004F00AFD0490059904F006FD06900799A2
:1044C00004F08EF9824649460B9804F06DFB514684
:1044D00007900C9804F068FB0690079904F0F4FC30
:1044E00004465146584604F05FFB414607900B983E
:1044F00004F05AFB0690079904F0E6FC0546414695
:104500000C9804F051FB49460790584604F04CFBC8
:104510000690079904F0D8FC0646DF49204604F0CF
:1045200043FB0790DD480168079804F059F9DB491F
:104530000860D949284604F037FB0790D84801683D
:10454000079804F04DF9D6490860D349304604F085
:104550002BFB0790D3480168079804F041F9D14933
:10456000086021464FF0804004F01EFB06900A9937
:1045700004F036F90790C9480168079804F030F94B
:104580000A9029464FF0804004F00EFB06900999EE
:1045900004F026F90790C2480168079804F020F952
:1045A000099031464FF0804004F0FEFA06900899D9
:1045B00004F016F90790BB480168079804F010F959
:1045C0000890FEF7E0F9B84908600846006804F072
:1045D000DBF80022B54BCDE9040103F0C5FDCDE9C0
:1045E000060103F0A9FAB2490860B24808990068C8
:1045F00004F0DAFA0590B0480999006804F0D4FA9A
:104600000390A348006880F0004001900A9904F0EC
:10461000CBFA0290039904F057FC0490059904F03A
:1046200053FC0690A2480168069804F0BDFA079072
:1046300098480168079804F0D3F8964908609D48A7
:104640000999006804F0B0FA05909B480899006841
:1046500004F0AAFA03908F480A99006804F0A4FABB
:104660000290039904F0BCF80490059904F02CFC26
:1046700006908F480168069804F096FA07908448DF
:104680000168079804F0ACF88149086089480A99E4
:10469000006804F089FA05907D480899006804F0E4
:1046A00083FA03907B480999006804F07DFA029030
:1046B000039904F009FC0490059904F091F8069020
:1046C0007B480168069804F06FFA07907A48016801
:1046D000079804F085F87849086077480A990068D7
:1046E00004F062FA05906A480999006804F05CFADF
:1046F000039068480899006804F056FA02900399FC
:1047000004F06EF80490059904F0DEFB069068480A
:104710000168069804F048FA07906648016807980F
:1047200004F05EF86349086008460168006804F018
:104730003BFA069060480168006804F035FA04907E
:1047400053480168006804F02FFA0290514801684C
:10475000006804F029FA0190029904F041F80390EE
:10476000049904F03DF80590069904F039F8079093
:10477000FFF784F9074639464648006804F014FA02
:104780004449086039464248006804F00DFA40493F
:10479000086039464848006804F006FA464908604F
:1047A00039464448006804F0FFF9424908600DB0FA
:1047B000BDE8F00F5DF814FB2DE9F04F85B082469F
:1047C0003C480168006804F0EFF906463A48016881
:1047D000006804F0E9F907462D480168006804F014
:1047E000E3F980462B480168006804F0DDF9814652
:1047F000414603F0F5FF0546394604F065FB0446E3
:10480000314604F061FB04902A48016821480068A1
:1048100004F0CAF98146284801681D48006804F080
:10482000C3F94946009003F0DBFF804603F0ACFF7C
:10483000064600224FF0804303F096FC044603F046
:104840007BF903901C4801681248006804F0ACF939
:104850008146184801680E48006804F0A5F94946E9
:10486000009004F031FB804603F08EFF06460022E4
:104870004FF0804303F078FC044603F05DF9834673
:10488000034801680348006804F08EF9009015E0C1
:10489000EC000020E80000200AD7A33BF80000202D
:1048A000FC00002000010020540100200000E03F37
:1048B00028010020F4000020F0000020C148016819
:1048C000C148006804F070F98146009903F088FF40
:1048D000804603F059FF064600224FF0804303F064
:1048E00043FC044603F028F90290B64801680068CA
:1048F00004F05AF90646B4480168006804F054F917
:104900000746B2480168006804F04EF98046B04896
:104910000168006804F048F98146414604F0D4FA81
:104920000546394604F0D0FA0446314603F058FFF4
:104930000190019803F028FF06460F46029803F005
:1049400023FF804632463B4602F09CFE04464FF071
:104950006632A04B03F008FCCAE90401584603F094
:1049600013FF064602F03EFC81F0004104464FF082
:104970006632984B03F0F8FBCAE90001FEF7AEFC83
:10498000CAE9020100221346DAE90241204603F097
:10499000AFFB08D20022904BDAE90241204603F037
:1049A000FDF8CAE9020105B0BDE8F08F7FB58B487C
:1049B000006808B9012000E00020884908604FF035
:1049C0000000874908602FE08448006808B901208A
:1049D00000E0002081490860FFF737F88149D1E9FC
:1049E0000101CDE900017F4803687F4807C8FFF750
:1049F00091FC7E48FFF7E0FE0A20FDF743FE7B486E
:104A0000C1688068CDE90201784903C9CDE9000198
:104A10007648D0E90443224675A000F0F1F97048C9
:104A20000068401C6E4908606D4800686428CBDB54
:104A300000206B49086048E00A20FDF723FEFFF7DD
:104A400004F86849D1E90101CDE90001654803682E
:104A5000654807C8FFF75EFC6448FFF7ADFE634892
:104A6000D0E9044322466A4903C903F097F8684A2B
:104A700003C25E49D1E900432246664903C903F0F7
:104A80008DF8644A03C25948D0E90243224662497C
:104A900003C903F083F8604A03C20A20FDF7F2FD60
:104AA0005248C1688068CDE90201504803C8CDE989
:104AB00000014E49D1E90443224658A000F0A0F974
:104AC00047480068401C464908604548006864281B
:104AD000B2DB0022594B4E4903C903F01BF9584A77
:104AE000C2E904010022554B4A4903C903F012F9F7
:104AF000534A03C20022514B474903C903F00AF944
:104B00004F4AC2E902010021414A11605160414A05
:104B100011605160404A116051603048006808B926
:104B2000012000E000202D4908607FBD2DE9FC41F7
:104B3000FEF78BFF2B49D1E90101CDE9000129489E
:104B40000368294807C8FFF7E5FB2848FFF734FE4C
:104B50003B48D0E9044325482246D0E90461304669
:104B600003F028FD214AC2E904013548D0E9004399
:104B700010462246D0E90061304603F01BFD1B4A77
:104B800003C22F49D1E902431849D1E90261224603
:104B9000304603F00FFD154AC2E902011046D0E984
:104BA0000421104602F0C8FF264908600F48D0E9EA
:104BB0000021104602F0C0FF2249486000208860B2
:104BC000BDE8FC81F4000020F0000020EC00002093
:104BD000E800002066A64C4000807640A8012242F2
:104BE000080100208C0200208002002068020020C2
:104BF0004A424A422D2D2D20252E326C662020253A
:104C00002E326C662020252E326C660D0A000000C4
:104C1000100100201801002020010020686568654F
:104C20002D2D2D20252E326C662020252E326C66EF
:104C30002020252E326C660D0A000000000059402D
:104C400098020020940100202DE9F04704460E460A
:104C5000154684F000446348006803F045FF814630
:104C6000214603F0BDFD8046314604F02DF907468C
:104C7000294603F0B5FD5C4908604FF07F51284696
:104C800003F092FF81465748006803F02DFF8246EB
:104C9000214603F0A5FD8046314603F0A1FD0746FD
:104CA000494604F011F9514908604E48006803F084
:104CB0001BFF8146214604F007F98046314603F088
:104CC0008FFD0746294603F08BFD494908604FF0E8
:104CD0007F51284603F068FF81464248006803F090
:104CE00003FF8246214604F0EFF80746314604F000
:104CF000EBF88046494604F0E7F83E490860002199
:104D00003948006803F01CFF02D8002036490860CB
:104D100039493548006804F013F802D8364832495A
:104D2000086000213148006803F00AFF02D8002023
:104D30002E49086030492D48006804F001F802D877
:104D40002D482A49086000212948006803F0F8FE30
:104D500002D800202649086027492548006803F04A
:104D6000EFFF02D82448224908600021214800684A
:104D700003F0E6FE02D800201E4908601E491D48C7
:104D8000006803F0DDFF02D81B481A490860194883
:104D9000006803F089FE87B239464FF08040FDF786
:104DA000F1F91148006803F07FFE87B239464FF0F1
:104DB0008040FDF7E3F90D48006803F075FE87B207
:104DC00039464FF08040FDF7D7F90948006803F0F5
:104DD0006BFE87B239464FF08040FDF7D1F9BDE850
:104DE000F0870000600100206401002068010020BD
:104DF0006C0100207001002000C079447047000061
:104E00000FB4044910B503AA029800F09BFB10BC34
:104E10005DF814FB400000202DE9F0410646002417
:104E200010687529314616A511D0AFF3008000280F
:104E300003DAC0F1000013A507E031688A0701D545
:104E400011A502E0490704D510A5012401E0AFF344
:104E5000008000210A2306F1240707E0B0FBF3F2EB
:104E600003FB1200303078541046491C0028F5D15D
:104E700023462A463046BDE8F04100F0F6B800006F
:104E8000000000002D0000002B00000020000000AA
:104E900070B504460D4621461068AFF300802188A6
:104EA000090502D5104A7A4402E00F4A7A440E32CC
:104EB000002104F1240307E000F00F064FEA101070
:104EC000965D5E5401F101010028F5D1034620787A
:104ED000000704D5702D02D009B1113202232046FB
:104EE000BDE8704000F0C1B8124200002DE9F04763
:104EF0004FF0000A89460446C0F820A02046E16829
:104F00008847002876D0252806D0D4E9012190478B
:104F1000206A401C2062F1E7E168204600268847AD
:104F2000C4F81CA005460027C4F818A02A2D09D0F3
:104F3000284602F050F938B304EB8708303DC8F832
:104F4000185019E059F8041B204604EB87029161C0
:104F5000E1688847012F054618D1E069002820DA6A
:104F600026F020061DE0D8F8180000EB800005EBC5
:104F700040003038C8F818002046E16888470546E8
:104F800002F029F90028EED1012F0AD02E2D08D1E8
:104F90002046E16888477F1C0546022F46F0200620
:104FA000C4DBA069002803DA404246F00106A06194
:104FB000F00701D026F010066C2D0AD0682D08D01D
:104FC0004C2D39D06A2D35D0742D35D07A2D33D073
:104FD00016E0E1682F4620468847B84205460AD1C8
:104FE0006C2F27D04FF48060E16806432046884745
:104FF000054605E027E06C2F1AD04FF48070064379
:105000000DB3A5F14100192802D8203546F40066F9
:105010004A462946204626604E46FBF7E3F880B113
:1050200001280BD0F61D26F0070000F1080965E7FE
:105030004020E4E78020D7E70020D5E706F1040907
:105040005CE7284661E7206ABDE8F0877047704753
:105050007047704710B500F0DBFA006810BD10B55E
:10506000044600F0D5FA046010BD2DE9F0470D4666
:1050700099469246044600F124080168880604D542
:10508000E06921F01001216000E00120A84202DD6A
:10509000A0EB050700E00027A16907EB050202EB82
:1050A0000900A1EB0000A0612078C00602D42046D0
:1050B000AFF30080002608E0D4E901211AF80600C9
:1050C0009047206A401C761C20624E45F4DB207815
:1050D000C0060AD52046AFF3008006E0D4E90121DE
:1050E00030209047206A401C2062381EA7F101073B
:1050F000F4DC07E0D4E9012118F805009047206AA4
:10510000401C2062281EA5F10105F3DC2046AFF308
:1051100000802078000602D50220BDE8F08701203B
:10512000FBE770472DE9FF4F0C461E464FF0FF3757
:105130008BB0D2E90001DDF860800A908A46C1F3A5
:105140000A5505B93D46002108464FF00000BAF166
:10515000000F00F4400005DA00EB80004FF440013E
:1051600001EA50004FEA9059B9F1010F00DDB9464C
:105170000A9850EA4A000ED044F61050A5F2FF35C6
:1051800045432F14B8F1000F1ED07542291E1EDDB5
:10519000C9F100021CE0B8F1010F4FF0000001D08E
:1051A000302103E0F24305E02154401CB042FBDB18
:1051B00030460022002121540B99C1F80880C1E932
:1051C00000200FB0BDE8F08FBD1B6D1CDEE74A4626
:1051D00000DA694206A800F0E5FA06AB07CB03AB9C
:1051E00007C350460A9901F066F88DE80700A0F55C
:1051F00000501F3800900398002D09DD42F21F0176
:105200004A46084403A90390684601F0F0FA08E012
:10521000A0F500504A461F3803A90390684601F0E4
:105220000EFB8DE807000004000C03D04FF0FF30A8
:10523000410800E01046B8F1000F03D000220092B0
:1052400015461FE0751E06D400F0E6F902F13002A3
:1052500062556D1EF8D5B3460122084302D00022E4
:105260007F1C04E02078302801D100227F1E002A14
:10527000099787D01DE0112D07DA00F0CDF9303203
:1052800062556D1C50EA0102F5D108430FD100218F
:10529000681E05E0235C625C6354491C2254401E76
:1052A0008142F7DBAB46A81B401E099001E0009845
:1052B00048B1002004F80B000B98099AC0F8088048
:1052C000C0E9002B7DE711264FF000085AE72DE9D1
:1052D000F04F88460446D21D22F0070191B0D1E973
:1052E0000001CDE90A0101F0F4FB02460B98C00F62
:1052F00001D02D2007E02068810701D52B2002E096
:10530000202101EAC000032A099001D0072A05DB09
:1053100003464146204600F0E5F90FE1207880067B
:1053200001D5E06900E00620B8F1650F814606D09E
:10533000B8F1660F18D0B8F1670F72D132E00020D3
:10534000B9F1110F009001DB112301E009F1010314
:105350000AAA01A90CA8FFF7E5FEDDE90C700026FA
:1053600009F10105834648E001204B4600904FF0CB
:1053700000470AAA01A90CA8FFF7D4FEDDE90DB089
:105380000C995D46002618B909F1010001EB0005F2
:10539000B9EB050003D4C0F1FF3609F10105A5EB17
:1053A00009002BE0B9F1010F01DA4FF001090020EB
:1053B000B9F1110F0090484601DD112300E00346CA
:1053C0000AAA01A90CA8FFF7ADFEDDE90C704D4655
:1053D00000268346207800070AD4AB4500DA5D46F4
:1053E00001A8012D04DD411911F8011C302907D055
:1053F0004F4502DA17F1040F04DA0120824610E06B
:105400006D1EEEE7002F02DCED1B3E4403E0781C2E
:10541000A84200DD0546A7EB060000F1010A4FF0A7
:1054200000472078000703D4AA4501DB4FF0FF3A7C
:105430000021B7F1004F0DF143088DF8431023D040
:1054400002202B23002F01DA7F422D234FF00A0C7C
:10545000011EA0F1010000DC4FB197FBFCF10CFB39
:1054600011720F4602F1300208F8012DF0E7A8F1A1
:10547000010003702188090501D5452100E065215F
:10548000A0F1010800F8011C09980FA9A1EB080779
:1054900007F1070700B1012000EB050101EBEA70FD
:1054A000A1693844A1EB0000A0F10100A0612078BF
:1054B000C00602D42046AFF30080099830B1D4E989
:1054C00001219047206A00F1010020622078C00687
:1054D00020D52046AFF300801CE0002E04DBB3454E
:1054E00002DD01A8805D00E03020D4E90121904771
:1054F000206A761C401CBAF1010A20620AD100F031
:1055000083F8C0680168405CD4E901219047206AB3
:10551000401C2062281EA5F10105DEDC07E0D4E96D
:10552000012118F8010B9047206A401C2062381EA8
:10553000A7F10107F3DC2046AFF30080022011B091
:1055400040E60000074B70B50D467B4400F0B7F80D
:105550000446284600F098F910B14FF0FF3070BDB6
:10556000204670BDCDD1FFFF0FB4002300B589B038
:105570000CA900910B99CB60204B7B440693204BE8
:105580007B44079304236FF00042CDE901321D4AAA
:105590007A446B4608920246002003F06CFD09B085
:1055A0005DF814FB70B506464FF0FF3015460C460B
:1055B000324686B00091CDE9010169460020049091
:1055C00004A8FFF7D1FF03460498211825B108B1BC
:1055D0000A4600E022462A6000280DD0002B02DD9A
:1055E0000098884208D03246081B69460094CDE9ED
:1055F000010404A8FFF7B8FF06B070BDE701000082
:10560000FF0100000F01000000487047D002002099
:1056100000487047B002002030B5B0F10A024FEAEE
:10562000900E71F100034EEA817EB0EB0E0061EB4B
:1056300091014FEA101E4EEA017E10EB0E0041EB85
:1056400011114FEA102E4EEA016E10EB0E0041EBE5
:1056500011214FEA104E4EEA014E10EB0E0041EBC5
:105660001141401841F100014FEAD00040EA417079
:105670004FEAD10110EB80054FEA810444EA9074AF
:1056800044EB01046D1944EB0404521BA3414FF099
:10569000000348BF0A3200D530BD401C41F1000173
:1056A00030BD10B5044600F01DF90068005D00F043
:1056B000010010BD01694A1C02610878704700B5FD
:1056C0008FB0CDE901310021059105497944CDE93B
:1056D000031011466846FFF709FC0FB000BD00003B
:1056E000E5FFFFFF2DE9F0411F4604460326016850
:1056F000072A01F4006004DB08B116A505E016A531
:1057000003E008B115A500E015A521F01000206008
:10571000A069C01EA0610FB1401EA0612046AFF37A
:1057200000804FB1D4E9012138469047206A401CDF
:105730002062C01C206206E0206AFAE7D4E9012159
:1057400015F8010B9047761EF8D22046AFF3008083
:10575000BDE8F0814E414E006E616E00494E46003C
:10576000696E6600426842B1016811F8013B23B1DD
:10577000521EC0E90012184670470121C160881E00
:10578000704742685AB1C368016843B983688B4265
:1057900005D0491E521CC0E90012002070474FF08E
:1057A000FF3070472DE9F047814616468AB03548EC
:1057B0007844D0E9002380680092CDE90130314877
:1057C00078440C38D0E90223006903924FF0370285
:1057D000CDE9043041F69B30014491FBF2F0A0F199
:1057E000800502FB10141B3C02D56442012000E03E
:1057F0000020DFF890A080460027FA44AAF1C60AEC
:105800000DE0E00709D03246684607EB47010AEB96
:10581000810101F014F88DE8070064107F1C002C52
:10582000EFD1184F7F44B43F17E0E80713D007EBE0
:1058300004100DF1180A90E80E00AAE80E00C068E6
:10584000F04201D198190890324606A903A800F049
:10585000F6FF03AB07C36D10641C002DE5D1324683
:105860006946B8F1000F03A802D000F0C0FF01E0C4
:1058700000F0E5FFC9E90001C9F808200AB0BDE859
:10588000F0870000C03B0000007B00F08000704704
:1058900000487047B00200207546FFF7F9FFAE469A
:1058A00005006946534620F00700854618B020B52C
:1058B000FAF788FFBDE820404FF000064FF00007E0
:1058C0004FF000084FF0000B21F00701AC46ACE8A8
:1058D000C009ACE8C009ACE8C009ACE8C0098D4615
:1058E0007047000010B5FFF78FFE001D10BD00BF10
:1058F0001D2200002DE9FF4F064689B00878FF28D9
:1059000006D0491C2D2805D000244FF0000908E0DE
:1059100000200CE00124F8E709EB8903491C00EBA7
:1059200043090878FF28F7D114B1C9F10000814676
:10593000107800252C46AA4629462D2801D02B2870
:1059400004D1521C2D2813D0002082468B4610789B
:10595000FF280FD04FF0000C0A21521CA5FB017844
:1059600004FB018105FB0C11C5194BEB0104EEE7AB
:105970000120EAE7002108464FF00000BAF1000FCD
:1059800002D000EB80004008C0F38158B8F1010F4D
:1059900001DD4FF0FF380C9809EB000755EA0400D1
:1059A00006D14FEACA70C6E900B00DB0BDE8F08F6D
:1059B00017F5FA7F4FF0020904DA4FEACA70C6E918
:1059C00000B00BE0B7F5FA7F0DDDF0487844D0E980
:1059D0000010C6E9001040EACA707060FFF718FEB8
:1059E000C0F80090E1E7391E02DAC8F1000200E0D9
:1059F000424600DA794206A8FFF7D4FE06AB07CB91
:105A000003AB07C344F23E005BEA04010090584632
:105A100004D144F21E012C465D460091210C09047C
:105A2000014306D10099240444EA15442D04103999
:105A3000009104F07F41014306D10099240244EA19
:105A400015642D020839009104F07041014306D11C
:105A50000099240144EA15742D01091F009104F0F6
:105A60004041014306D10099A40044EA9574AD0079
:105A7000891E009104F00041084304D100986D197B
:105A80006441401E009042466846002FCDE9014522
:105A900003A902DD00F0E7FE01E000F0BCFEBAF170
:105AA000000F04460D4601D084F0004440F2FF7719
:105AB00024F00040284303D0C4F30A50B84212D166
:105AC000FFF7A6FDC0F80090C4F30A50B8420AD10F
:105AD000AF487844D0E90010C6E9001004F0004156
