:020000040800F2
:1000000010090020C1070008C9050008CB05000839
:10001000CF050008D3050008D70500080000000040
:10002000000000000000000000000000DB050008E8
:10003000DD05000800000000DF050008E1050008FC
:10004000DB070008DB070008DB070008DB07000808
:10005000DB070008DB070008DB070008DB070008F8
:10006000DB070008DB070008DB070008DB070008E8
:10007000DB070008DB070008DB070008DB070008D8
:10008000DB070008DB070008DB070008DB070008C8
:10009000DB070008DB070008DB070008ED040008A9
:1000A000DB070008DB070008DB070008DB070008A8
:1000B000DB070008CB29000829050008DB0700083A
:1000C000DB070008DB070008DB070008DB07000888
:1000D000DB070008E1270008DB070008DB07000852
:1000E000DB070008DB070008DB070008DB07000868
:1000F000DB070008DB070008DB070008DB07000858
:10010000DB070008DB070008DB070008DB07000847
:10011000DB070008DB070008DB070008DB07000837
:10012000DB070008DB070008DB070008DB07000827
:1001300000F002F800F073F80AA090E8000C824486
:100140008344AAF10107DA4501D100F068F8AFF263
:10015000090EBAE80F0013F0010F18BFFB1A43F0A5
:1001600001031847A0920000C09200000A444FF01B
:10017000000C10F8013B13F0070408BF10F8014B06
:100180001D1108BF10F8015B641E05D010F8016B4B
:10019000641E01F8016BF9D113F0080F1EBF10F8AF
:1001A000014BAD1C0C1B09D16D1E58BF01F801CBD2
:1001B000FAD505E014F8016B01F8016B6D1EF9D555
:1001C0009142D6D37047000000230024002500266A
:1001D000103A28BF78C1FBD8520728BF30C148BFAA
:1001E0000B607047662908F02087642904F0508668
:1001F000782904F08986002070471FB505F040FA81
:1002000004000020002107F0BDFC401C60600020BD
:10021000002107F0A1FCE0601FBD10B510BD05F086
:1002200077FB1146FFF7E9FF00F06CF805F0F0FDF1
:1002300003B4FFF7F2FF03BC02F078FA2DE9F043B4
:10024000BDB04FF0000900240026002522E0BD4883
:10025000005D202809D0BB48005D06EB860101AA9D
:1002600002EBC10148556D1C641C0EE0641CB548CE
:10027000005D202809D0002006EB860101AA02EBD0
:10028000C1014855761C002503E0AE48005D2028DA
:10029000ECD000BFAB48005D0028D8D101A807F022
:1002A000EDFA074607F006FFA74908600BA807F01C
:1002B000E5FA074607F07CFCA449086015A807F09A
:1002C000DDFA074607F074FCA14908604FF0000909
:1002D0000DE0002507E0002009EB890101AA02EBEF
:1002E000C10148556D1C142DF5DB09F10109701C85
:1002F0008145EEDB4FF000090024002600253DB0CB
:10030000BDE8F0831FB5002500BF02F08BF902F0B5
:10031000ADFA00208F4908604FF0C80002F0BEF926
:1003200001208D49C1F8880100208C4908604FF0F8
:10033000C80002F0B3F90120884908604FF00000BE
:10034000A1F1040108604FF0C80002F0A7F90120F4
:10035000834908604FF000008249C1F8A8014FF0BE
:10036000C80002F09BF901207E49C1F8A80102F003
:10037000D7F94FF4165002F0E7F902F0EDFE02F063
:10038000DFFC02F0FBFD0DE07748006808B90120B2
:1003900000E000207449086074A004F06DFD642042
:1003A00002F07CF902F05BFD0128EDD073A004F0AF
:1003B00063FD072002F08AFD04462146272002F053
:1003C00072FDFF21E22002F06EFD092140F2E730CC
:1003D00002F044FB47214FF6FF7002F0B3FA41F6FA
:1003E0001F41312002F0FFFA03F03AFA03F058FA05
:1003F00002F0F7FE04F0E6FA77E004F0A3FB6248AF
:10040000C1688068CDE902015F4803C8CDE90001F9
:100410005D48D0E9046332465CA004F02DFD6148DC
:100420000078012861D1474802F093FD78B9002592
:1004300007E04448425D29465BA004F01DFD681CAE
:1004400085B2042DF5DBFF21E22002F02CFD3D48B2
:100450000078FF2805D03B484078FF2801D0FFF7FF
:10046000EDFE38480078FF282AD136484078FF282A
:1004700026D134488078012804D13348006864309C
:100480003149086030480068B0F5617F02DD4FF403
:10049000617001E02C4800682B4908602948807889
:1004A000022803D1084600683238086026480068F0
:1004B000002801DA002001E0234800682249086092
:1004C00000203849087001213C4801F0C9FB3C4834
:1004D000006840F020003A4908602148006808B9E7
:1004E000012000E000201E49086086E710B52020AA
:1004F00000F068FA78B1202000F075FA00212F484A
:1005000001F0AEFB0120274908702D48006820F05B
:1005100020002B4908601248006808B9012000E05B
:1005200000200F49086010BD10B50121234801F0DB
:1005300060FE10B1234802F03BFB01211F4801F08F
:1005400069FE10BD74010020600100204C000020F5
:10055000500000208881224200802242B0012242C5
:10056000AC01224200002242A80122424E52462003
:100570004552524F5221210D0A0000004E52462092
:100580006F6B6B21210D0A0068020020252E326C52
:10059000662020252E326C662020252E326C660DBA
:1005A0000A00000008000020746D705F6275665BD1
:1005B00025645D202025780D0A0000000008004019
:1005C0000004014094010020704700BFFEE700BF17
:1005D000FEE700BFFEE700BFFEE7704770477047C9
:1005E000704700000CB50020019000906B48006837
:1005F00040F480306949086000BF6848006800F432
:10060000003000900198401C0190009818B90198A2
:10061000B0F5A06FF1D16148006810F4003F02D03E
:100620000120009001E0002000900098012842D1B4
:100630005B48006840F010005949086008460068AF
:1006400020F0030008600846006840F002000860DF
:10065000524840685149486008464068486008462A
:10066000406840F4806048600846406820F47C1090
:1006700048600846406840F4E81048600846006852
:1006800040F08070086000BF4448006810F0007FB0
:10069000FAD04248406820F00300404948600846CC
:1006A000406840F00200486000BF3C48406800F0ED
:1006B0000C000828F9D10CBD10B5FFF793FF10BD51
:1006C00010B53648006840F001003449086008461B
:1006D000406834490840314948600846006832495A
:1006E00008402E4908600846006820F48020086011
:1006F0000846406820F4FE0048604FF41F00886000
:10070000FFF7DAFF4FF000602849086010BD10B510
:10071000002100200022214B5B6803F00C0121B175
:10072000042906D0082928D107E0214B214C236059
:1007300027E01F4B1F4C236023E0184B5B6803F43A
:100740007010164B5B6803F48032022303EB904079
:1007500022B9194B4343174C23600DE00F4B5B68E4
:1007600013F4003F04D0144B4343124C236003E0C6
:100770000F4B43430F4C236003E00D4B0D4C2360A4
:1007800000BF00BF054B5B68C3F303130B4CE15C78
:10079000084B1B68CB40074C236010BD0010024083
:1007A000002002400000FFF8FFFFF6FE08ED00E029
:1007B00000127A000C00002000093D00100000200B
:1007C0000948804709480047FEE7FEE7FEE7FEE7E5
:1007D000FEE7FEE7FEE7FEE7FEE7FEE70448054921
:1007E000054A064B70470000C106000831010008A9
:1007F0001003002010090020100500201005002023
:1008000031490143314A1160704770B5002100231E
:100810000F22C4780CB32D4C246804F4E064C4F5B2
:10082000E064210AC1F10403CA40447804FA03F1E8
:100830008478144021430901254C0678A155047899
:1008400004F01F050124AC4005786D114FF0E0263F
:1008500006EB8505C5F8004109E0047804F01F05A2
:100860000124AC401B4D0678761145F8264070BD3A
:10087000194A0A400243154B1B1F1A60704739B1D1
:10088000124A121D12680243104B1B1D1A6006E02B
:100890000E4A121D126882430C4B1B1D1A607047D2
:1008A000042808D14FF0E021096941F004014FF01C
:1008B000E022116107E04FF0E021096921F0040115
:1008C0004FF0E022116170470000FA050CED00E0E6
:1008D00000E400E080E100E080FFFF1F00204449C9
:1008E0000860091D0860091D0860091D086041486D
:1008F0003F4914310860704700213D498279002A40
:100900003AD00A46126803689A430B461A600A1DD9
:10091000126803689A430B1D1A60027911440A6831
:1009200003681A430A60324A0832126803689A431D
:100930002F4B08331A601A1D126803689A432C4B18
:100940000C331A604279102A0ED11A1F12680368FC
:100950001A43274B08331A601A1D126803681A439A
:10096000234B0C331A600DE02149427911440A6887
:1009700003681A430A6005E0027911440A680368B3
:100980009A430A6070470021016001710C21417196
:100990000021817170471649103109680143144ADA
:1009A00010321160704701460020114A143212685B
:1009B0000A4201D0012000E0002070470C491431A8
:1009C00008607047014600200022094B1B6803EABB
:1009D0000102074B14331B680B4202D00AB10120FD
:1009E00000E00020704702491431086070470000A1
:1009F00000040140FFFF0F0010B50446CA488442BE
:100A000008D10121042000F027FB0021042000F080
:100A100023FB46E0C548844208D10121082000F0AC
:100A20001BFB0021082000F017FB3AE0C04884427D
:100A300008D10121102000F00FFB0021102000F050
:100A40000BFB2EE0BB48844208D10121202000F09E
:100A500003FB0021202000F0FFFA22E0B648844288
:100A600008D10121402000F0F7FA0021402000F0D9
:100A7000F3FA16E0B148844208D10121802000F049
:100A8000EBFA0021802000F0E7FA0AE0AC4884424B
:100A900007D10121801500F0DFFA0021A01500F038
:100AA000DBFA10BD10B50121084600F0D5FA00218F
:100AB000012000F0D1FA10BD2DE9F04102460025D9
:100AC0000026002000230024002791F803C00CF02A
:100AD0000F0591F803C01CF0100F03D091F802C06D
:100AE0004CEA050591F800C0BCF1000F31D0146844
:100AF00000202BE04FF0010C0CFA00F3B1F800C01D
:100B00000CEA03069E4220D183004FF00F0C0CFA32
:100B100003F7BC4305FA03FC4CEA040491F803C054
:100B2000BCF1280F06D14FF0010C0CFA00FCC2F802
:100B300014C00AE091F803C0BCF1480F05D14FF092
:100B4000010C0CFA00FCC2F810C0401C0828D1D3DC
:100B50001460B1F800C0BCF1FF0F34DD5468002010
:100B60002EE000F1080C4FF0010808FA0CF3B1F880
:100B700000C00CEA03069E4221D183004FF00F0C07
:100B80000CFA03F7BC4305FA03FC4CEA040491F8A1
:100B900003C0BCF1280F05D100F1080C08FA0CF8CD
:100BA000C2F8148091F803C0BCF1480F07D100F1DE
:100BB000080C4FF0010808FA0CF8C2F81080401C2D
:100BC0000828CED35460BDE8F0814FF6FF71018054
:100BD000022181700421C170704702460020936891
:100BE0000B4201D0012000E00020704701468868D8
:100BF00080B2704702460020D3680B4201D001202A
:100C000000E0002070470146C86880B2704701616B
:100C10007047416170470AB1016100E0416170476E
:100C2000C16070474FF480320A4382618161826102
:100C300082698269704702460020424B18684FF66D
:100C40008073184040EA021008433E4B186070471A
:100C50003D49C8617047F0B50A46002300240021D1
:100C6000002500F00046B6F1004F02D1354EF16983
:100C700001E0344E7168C0F3034583B200F44016BE
:100C8000B6F5401F08D121F070612E4E766826F02F
:100C900070662C4F7E6012E000F48016B6F5801F5F
:100CA00006D1032606FA05F4A14341F0706106E07F
:100CB000460D360103FA06F6B14341F0706122B1E8
:100CC000460D360103FA06F6314300F00046B6F150
:100CD000004F02D11B4EF16101E01A4E7160F0BD70
:100CE00030B500228B071C0F0F2303FA04F2154BBB
:100CF00008338C1053F824309343124C08348D1071
:100D000044F8253023468C1053F824308C07240FE8
:100D100000FA04F423430B4C08348D1044F82530BA
:100D200030BD0A490860704700080140000C0140CE
:100D3000001001400014014000180140001C014057
:100D4000002001400000014000002042DC00204261
:100D5000DD48006840F00100DB4908600846406853
:100D6000DA490840D849486008460068D849084030
:100D7000D54908600846006820F4802008600846CD
:100D8000406820F4FE0048604FF41F008860704700
:100D9000CD49096821F48031CB4A116011460968B8
:100DA00021F480211160B0F5803F03D0B0F5802F91
:100DB0000ED106E0C449096841F48031C24A11608D
:100DC00007E0C149096841F4A021BF4A116000E071
:100DD00000BF00BF704710B501460022002300206D
:100DE0004A11012A02D1B84C236806E0022A02D136
:100DF000B54C236A01E0B44C636A01F01F02012480
:100E000094401C4201D0012000E0002010BD38B504
:100E1000002000900024002500BF3120FFF7DBFFF9
:100E200005460098401C00900098B0F5A06F01D0D6
:100E3000002DF2D03120FFF7CEFF08B1012400E0F1
:100E40000024204638BD014600209F4A106820F04B
:100E5000F80040EAC100106070479E490860704782
:100E600002460020984B586820F47C1042EA0103A7
:100E70001843954B5860704796490866704701467D
:100E80000020914A506820F00300084350607047EA
:100E90008D48406800F00C007047014600208A4AE7
:100EA000506820F0F0000843506070470146002071
:100EB000854A506820F4E06008435060704701465E
:100EC0000020814A506820F4605040EAC100506020
:100ED000704729B17C4A527A02437B4B5A7204E034
:100EE000794A527A8243784B5A7270477A4908603D
:100EF000704701460020744A506820F4404008437F
:100F0000506070470021754A11706F4A82F82010B6
:100F1000012802D0042808D103E001216F4A117092
:100F200004E005216D4A117000E000BF00BF70476A
:100F30006B49086070476449096A0143624A11625B
:100F40007047674944390860704730B50021002276
:100F5000002400235C4D6D6805F00C0121B10429CB
:100F600005D0082923D105E05E4D056022E05D4DE6
:100F700005601FE0544D6D6805F47012524D6D68A8
:100F800005F48034022505EB92421CB9564D5543B9
:100F900005600BE04C4D6D6815F4003F03D0524DD9
:100FA0005543056002E04F4D5543056002E04D4D4D
:100FB000056000BF00BF444D6D6805F0F0010909F0
:100FC0004A4D6B5C0568DD4045603F4D6D6805F43A
:100FD000E061090A454D6B5C4568DD4085603A4D2E
:100FE0006D6805F46051C90A404D6B5C4568DD4091
:100FF000C560354D6D6805F44041890B3C4D6B5C17
:10100000C568B5FBF3F5056130BD29B12E4A5269BB
:1010100002432D4B5A6104E02B4A526982432A4B0A
:101020005A61704729B1284A92690243264B9A6156
:1010300004E0254A92698243234B9A61704729B1A3
:10104000214AD2690243204BDA6104E01E4AD26988
:1010500082431D4BDA61704729B11B4AD2680243B3
:10106000194BDA6004E0184AD2688243164BDA6002
:10107000704729B1144A12690243134B1A6104E004
:10108000114A12698243104B1A6170471449403962
:10109000086070470F49C86470470B49C8717047B2
:1010A0000948406A40F0807007494862704701462D
:1010B0000020054A92680A4201D0012000E0002089
:1010C0007047014988727047001002400000FFF825
:1010D000FFFFF6FE00004242D800424220100240CC
:1010E0008004424200127A0000093D0020000020E6
:1010F0003000002010B50446BE48844208D10121CA
:101100008014FFF7A9FF0021A014FFF7A5FF16E048
:10111000B948844208D101210014FFF7AAFF002139
:101120002014FFF7A6FF0AE0B448844207D101214A
:10113000C013FFF79EFF0021E013FFF79AFF10BDD9
:1011400010B50022028802F441520B884C882343D8
:101150008C882343CC8823430C8923434C89234325
:101160008C892343CC8923431A430280838B4FF21B
:10117000FF74234083830B8A038210BD2DE9F04F57
:1011800085B005460C464FF0000902274FF00008D5
:101190004FF0010B0026B246A88B4FF240010840E9
:1011A000A88302202884B5F81C90A068022801D1E9
:1011B00000BF38E0A08810B94FF0010B01E04FF0FC
:1011C000020B8D48854200D100E000BF6846FFF762
:1011D000BCFEDDF800A0E088B0F5007F0AD14FEA40
:1011E0001A2000EB80004000A168B0FBF1F0401D28
:1011F00086B20BE04FEA4B10BAFBF0F000EB800038
:101200004000A168B0FBF1F0401D86B20A20B6FB99
:10121000F0F606F00108A6EB0800C0F34F074FF602
:10122000FF7000EA0828022F01DBFF2F02DD0227F2
:101230004FF00008E08840EA080038432884A0887E
:10124000A1890843618808432188084340F400606D
:1012500040EA0909A5F81C9005B0BDE8F08F00210F
:10126000018041808180C180018141818181C18172
:101270000721018270470021018041808180C18067
:101280000221816000218181704721B1028842F0F2
:101290004002028004E002884FF6BF731A400280C9
:1012A000704721B1828B42F48062828304E0828B9A
:1012B0004FF6FF331A408283704730B50024002375
:1012C0000C110125A540ABB21AB185881D4385805C
:1012D00002E085889D43858030BD1AB183880B4329
:1012E000838002E083888B438380704781817047CD
:1012F000014688897047A1F57E42FF3A04D00288F2
:1013000042F48072028004E002884FF6FF631A40C4
:101310000280704721B1828842F00402828004E09A
:1013200082884FF6FB731A408280704702884FF222
:10133000FF731A40028002880A43028070470188C6
:1013400041F480510180704721B1028842F400527B
:10135000028004E002884DF6FF731A400280704755
:1013600002460020012901D0108B00E0908A7047CE
:101370000146088A7047B1F5804F04D1028842F4D3
:101380008042028004E002884BF6FF731A4002801C
:1013900070470246002013890B4201D0012000E073
:1013A00000207047CA4302817047F0B50246002012
:1013B00000240023002501F00F070126BE40B4B22F
:1013C0000B1101269E40B3B2968806EA03051689E2
:1013D000264202D00DB1012000E00020F0BD10B582
:1013E000002201F00F040123A3409AB2D3430381EA
:1013F00010BD00000030014000380040003C0040BB
:1014000010B50446FE48844208D10121C014FFF7FC
:1014100023FE0021E014FFF71FFEC4E0B4F1804F6B
:1014200008D101210846FFF724FE00210120FFF723
:1014300020FEB8E0F348844208D101210220FFF7E2
:1014400018FE00210220FFF714FEACE0EE488442B3
:1014500008D101210420FFF70CFE00210420FFF732
:1014600008FEA0E0E948844208D101210820FFF7E6
:1014700000FE00210820FFF7FCFD94E0E4488442D0
:1014800008D101211020FFF7F4FD00211020FFF703
:10149000F0FD88E0DF48844208D101212020FFF7D9
:1014A000E8FD00212020FFF7E4FD7CE0DA488442DB
:1014B00008D101214014FFF7CFFD00216014FFF790
:1014C000CBFD70E0D548844209D10121C804FFF763
:1014D000C3FD00214FF40020FFF7BEFD63E0D048BC
:1014E000844209D101210805FFF7B6FD00214FF420
:1014F0008010FFF7B1FD56E0CA48844209D10121AE
:101500004805FFF7A9FD00214FF40010FFF7A4FDE7
:1015100049E0C548844208D101214020FFF7A9FDD8
:1015200000214020FFF7A5FD3DE0C048844208D1DE
:1015300001218020FFF79DFD00218020FFF799FD0C
:1015400031E0BB48844208D101218015FFF791FDAD
:101550000021A015FFF78DFD25E0B648844209D192
:1015600001210804FFF778FD00214FF48030FFF7D8
:1015700073FD18E0B048844209D101214804FFF707
:101580006BFD00214FF40030FFF766FD0BE0AB4828
:10159000844208D101218804FFF75EFD00214FF449
:1015A0008020FFF759FD10BD00220288944B98421D
:1015B0000ED0994B98420BD0B0F1804F08D0914B90
:1015C000984205D0904B984202D0904B984204D15B
:1015D0004FF68F731A404B881A438D4B984207D0B1
:1015E0008C4B984204D04FF6FF431A40CB881A43E5
:1015F00002808B8883850B880385814B98420BD0B2
:10160000854B984208D08B4B984205D08A4B984224
:1016100002D08A4B984201D10B7A03860123838240
:10162000704770B5002400220023058C4FF6FE762B
:1016300035400584028C8388048B4FF68F752C40CF
:10164000B51E2C400D882C43751E2A400D892A4357
:101650004D882A436A4DA8420BD06F4DA84208D04E
:10166000744DA84205D0744DA84202D0734DA842D3
:1016700013D14FF6F7752A404D892A434FF6FB7573
:101680002A408D882A434FF6FF652B404FF6FF55C1
:101690002B408D892B43CD892B4383800483CD88B8
:1016A0008586028470BD70B5002400220023058C5D
:1016B0004FF6EF7635400584028C8388048B48F61C
:1016C000FF752C404FF6FF452C400D884FF6FF76F6
:1016D00006EA05252C434FF6DF752A400D8906EAF8
:1016E00005152A434D8806EA05152A43444DA842AC
:1016F00002D0494DA8421DD14FF67F752A404D8931
:101700004FF6FF7606EA05152A434FF6BF752A40C5
:101710008D8806EA05152A434FF6FF352B404FF218
:10172000FF752B408D8906EA85052B43CD8906EA96
:1017300085052B4383800483CD880587028470BD93
:1017400070B5002400220023058C4FF6FF6635405B
:101750000584028C8388848B4FF68F752C404FF65E
:10176000FC752C400D882C434FF6FF552A400D89FF
:101770004FF6FF7606EA05252A434D8806EA052539
:101780002A431F4DA84202D0234DA8421DD14FF23B
:10179000FF752A404D894FF6FF7606EA05252A4354
:1017A0004FF6FF352A408D8806EA05252A434EF676
:1017B000FF752B404DF6FF752B408D8906EA051508
:1017C0002B43CD8906EA05152B4383808483CD887E
:1017D0008587028470BD70B5002200230024058C2B
:1017E0004EF6FF7635400584038C8488828B48F65C
:1017F000FF752A404FF6FF452A400D8820E0000083
:10180000002C01400004004000080040000C004093
:10181000001000400014004000340140004C014022
:10182000005001400054014000180040001C0040DE
:1018300000200040004001400044014000480140B9
:101840004FF6FF7606EA05252A434DF6FF752B4035
:101850000D8906EA05352B434D8806EA05352B43ED
:10186000FA4DA84202D0FA4DA84208D14BF6FF75B6
:101870002C408D894FF6FF7606EA85152C4384802F
:101880008283CD88A0F84050038470BD828B4FF2D4
:10189000FF331A408283828B4FF6FF7303EA0123E2
:1018A0001A4382837047F0B50C461546002200218A
:1018B0000026078C4EF6FF7C07EA0C070784828B14
:1018C000018C4FF6FF7707EA043640F6FF473A40AF
:1018D0004FF6FF7707EA05273A434FF6FF7707EA07
:1018E00003373A43D94FB8420ED0D94FB8420BD044
:1018F000B0F1804F08D0D74FB84205D0D64FB8428C
:1019000002D0D64FB84206D14DF6FF77394046F4A3
:101910008057394305E047F6FF57394044F4805774
:10192000394382830184F0BD828B4FF6F3731A40F2
:101930008283828B0A4382837047F0B50C4615463A
:10194000002200210026078C4FF6FF6C07EA0C07E7
:101950000784828B018C4FF6FF7707EA04264FF647
:101960000C773A404FF6FF7707EA03172F433A43C5
:10197000B64FB8420ED0B64FB8420BD0B0F1804F40
:1019800008D0B44FB84205D0B34FB84202D0B34FDD
:10199000B84206D14FF6FF57394046F480773943B5
:1019A00005E04FF2FF57394044F480773943828392
:1019B0000184F0BD028B4FF2FF331A400283028B89
:1019C0004FF6FF7303EA01231A4302837047F0B511
:1019D0000C461546002200210026078C4FF6EF7CAE
:1019E00007EA0C070784028B018C4FF6FF7707EAA2
:1019F000041640F6FF473A404FF6FF7707EA0337F1
:101A00003A434FF6FF7707EA05273A438F4FB8422C
:101A10000ED08F4FB8420BD0B0F1804F08D08D4F11
:101A2000B84205D08C4FB84202D08C4FB84206D194
:101A30004FF6DF77394046F01007394305E04FF69F
:101A40005F77394044F01007394302830184F0BDC9
:101A5000028B4FF6F3731A400283028B0A43028310
:101A60007047F0B50C46154600220021068C4FF653
:101A7000FE773E400684028B018C4FF60C76324096
:101A80007E1C06EA03162E433243704EB0420ED03F
:101A90006F4EB0420BD0B0F1804F08D06D4EB042C7
:101AA00005D06D4EB04202D06C4EB04206D14FF61A
:101AB000FD76314044F00106314305E04FF6F576FE
:101AC000314044F00106314302830184F0BD70B51A
:101AD00005460C465D4885420ED05D4885420BD0D8
:101AE000B5F1804F08D05B48854205D05A48854201
:101AF00002D05A48854200D100E000BF208850B98A
:101B00002389A28861882846FFF7ABFFE188284631
:101B1000FFF79EFF25E0208804280AD12389A288A8
:101B200061882846FFF753FFE1882846FFF742FF08
:101B300017E0208808280AD12389A28861882846CE
:101B4000FFF7FBFEE1882846FFF7EEFE09E0238958
:101B5000A28861882846FFF7A6FEE1882846FFF79D
:101B600095FE70BD2DE9F04105460C460026012783
:101B7000608808B9022600E00026A088012801D16B
:101B8000022700E001272088A0B92389A288618864
:101B90002846FFF766FFE1882846FFF759FF2389AB
:101BA0003A4631462846FFF712FFE1882846FFF7FC
:101BB00001FF13E02389A28861882846FFF707FF09
:101BC000E1882846FFF7F6FE23893A463146284643
:101BD000FFF747FFE1882846FFF73AFFBDE8F081AD
:101BE0000A884B881A438B881A43CB881A430B897F
:101BF0001A434B891A438B891A43A0F84420704733
:101C00004FF6FF71818000210180C1804180017207
:101C100070470021018041808180C1800181418124
:101C20008181C18170470021018041800121818033
:101C30000021C180018170470021018041808180A5
:101C4000C18001814181818170470000002C0140E9
:101C5000003401400004004000080040000C004037
:101C600021B1028842F00102028004E002884FF6AE
:101C7000FE731A400280704731B1B0F8442042F43C
:101C80000042A0F8442005E0B0F84420C2F30E0260
:101C9000A0F8442070471AB183890B43838102E086
:101CA00083898B43838170478182704741EA0203B5
:101CB000A0F8483070471AB183890B43838102E052
:101CC00083898B438381704701894FF6F8721140F5
:101CD000018170470A46002101894FF68F73194030
:101CE00011430181704730B504460D462946204610
:101CF000FFF7F0FF208940F00700208130BD2DE97B
:101D0000F04104460D4616461F46602D06D13B465F
:101D1000012231462046FFF75AFE05E03B460122EC
:101D200031462046FFF79DFE29462046FFF7D2FFA9
:101D3000208940F007002081BDE8F08130B50C46D5
:101D400000210189C9B24FF6FF7505EA0325154345
:101D500025432943018130BD2DE9F04105460E465A
:101D600017469846002443463A4631462846FFF730
:101D7000E5FF2C894FF6F870044044F007044FF655
:101D80008F70044044F070042C81BDE8F081F0B500
:101D900004460D4616461F463B4632462946204617
:101DA000FFF7CCFF208940F480402081F0BD018501
:101DB000828270470A46002101884FF68F731940CE
:101DC000114301807047F0B50C4615461E460021B0
:101DD000002200230189028B038C4FF6F8773940EB
:101DE00021434FF6FC473A4040F201173A434FF681
:101DF000DD773B404FF6FF7707EA06172F433B435B
:101E0000018102830384F0BD0A460021018B4FF655
:101E10008F7319401143018370470A460021018BDB
:101E200048F6FF7319404FF6FF7303EA0223194384
:101E3000018370470A460021818B4FF68F7319404A
:101E40001143818370470A460021818B48F6FF7356
:101E500019404FF6FF7303EA022319438183704749
:101E600021B1028842F08002028004E002884FF62D
:101E70007F731A400280704721B1828842F00402C9
:101E8000828004E082884FF6FB731A40828070479C
:101E900021B1828842F00802828004E082884FF6F5
:101EA000F7731A408280704721B1828842F00102A4
:101EB000828004E082884FF6FE731A408280704769
:101EC0000A460021018B4FF6F77319401143018335
:101ED00070470A460021018B4FF2FF7319404FF6FD
:101EE000FF7303EA02231943018370470A46002166
:101EF000818B4FF6F77319401143818370470A466F
:101F00000021818B4FF2FF7319404FF6FF7303EAF4
:101F100002231943818370470A460021018B4FF643
:101F2000FB7319401143018370470A460021018B5E
:101F30004FF6FF3319404FF6FF7303EA02231943AC
:101F4000018370470A460021818B4FF6FB731940CD
:101F50001143818370470A460021818B4FF6FF337E
:101F600019404FF6FF7303EA022319438183704738
:101F70000A460021018B4FF67F73194011430183FC
:101F800070470A460021018BC1F30E014FF6FF7323
:101F900003EA02231943018370470A460021818B1B
:101FA0004FF67F7319401143818370470A46002121
:101FB000818BC1F30E014FF6FF7303EA022319432D
:101FC000818370470A460021018C4FF6FD7319404A
:101FD0001143018470470A460021018C4FF6F773C4
:101FE00019401143018470470A460021018C4FF6C5
:101FF000DF7319404FF6FF7303EA0213194301849C
:1020000070470A460021018C4FF67F7319404FF646
:10201000FF7303EA02131943018470470A46002143
:10202000018C4FF6FF5319404FF6FF7303EA02236A
:102030001943018470470A460021018C4FF2FF7357
:1020400019404FF6FF7303EA0223194301847047D6
:102050000A460021018C4DF6FF7319404FF6FF73BD
:1020600003EA023319430184704730B50023012489
:102070008C40A3B2048C9C430484048C02FA01F5C6
:10208000ADB22C43048430BD30B5002304248C4011
:10209000A3B2048C9C430484048C02FA01F5ADB213
:1020A0002C43048430BD70B503460020002418463C
:1020B000183001258D40ACB21D8CA5431D8409B19B
:1020C000082909D100EB6100056825F0700505605D
:1020D0000568154305600EE00D1FC5F34E05284445
:1020E000056825F4E045056005684FF6FF7606EAC9
:1020F00002263543056070BD21B1028842F002021C
:10210000028004E002884FF6FD731A400280704797
:1021100021B1028842F00402028004E002884FF6F6
:10212000FB731A400280704721B1828842F080021E
:10213000828004E082884FF67F731A408280704765
:1021400002884FF6F7731A40028002880A43028021
:10215000704782884FF68F731A40828082880A43C4
:102160008280704702894FF6F8731A400281028913
:102170000A430281704702894FF67F731A40028139
:1021800002890A43028170478184704781857047C4
:10219000818670470187704781877047A0F840109B
:1021A000704702884FF6FF431A40028002880A43B4
:1021B000028070470146888E70470146088F70473D
:1021C0000146888F70470146B1F8400070470146CC
:1021D000888C70470146088D704702460020138A9C
:1021E0000B4201D0012000E000207047CA43028268
:1021F000704730B50246002000230024158A05EA06
:102200000103958905EA010413B10CB1012000E036
:10221000002030BDCA4302827047000010B504465A
:10222000FB48844209D101218803FEF715FF0021F4
:102230004FF48040FEF710FF32E0F648844209D1A7
:1022400001214804FEF715FF00214FF40030FEF78E
:1022500010FF25E0F048844209D101218804FEF7EF
:1022600008FF00214FF48020FEF703FF18E0EB4841
:10227000844209D10121C804FEF7FBFE00214FF47E
:102280000020FEF7F6FE0BE0E548844208D101216C
:102290000805FEF7EEFE00214FF48010FEF7E9FE80
:1022A00010BD2DE9F04786B005460E460024A24633
:1022B00000BFA1460027B08900B100BF2F462C8A7D
:1022C0004CF6FF700440F08804432C82AC894EF633
:1022D000F3100440B08831890843718908430443EE
:1022E000AC81AC8A4FF6FF400440B0890443AC8215
:1022F00001A8FEF72AFEC648874202D1DDF810A0E9
:1023000001E0DDF80CA0A88910F4004F08D00AEB1A
:10231000CA0000EB0A1031684900B0FBF1F807E091
:102320000AEBCA0000EB0A1031688900B0FBF1F833
:102330006420B8FBF0F004012009642101FB10893E
:10234000A88910F4004F08D0322000EBC900B0FB80
:10235000F1F000F00700044308E0322000EB091020
:102360006421B0FBF1F000F00F0004432C8106B0B3
:10237000BDE8F0874FF41651016000218180C180D3
:1023800001810C21418100218181704710B50246F5
:102390000020108A4FF2FF0318400B884C8823431B
:1023A0008C882343CC8823431843108210BD00211E
:1023B000018041808180C180704721B1828942F4CF
:1023C0000052828104E082894DF6FF731A408281B7
:1023D0007047F0B503460024002600250020A1F533
:1023E00010676A3F00D100BF1846C1F3421401F0E4
:1023F0001F06012707FA06F5012C01D10C3004E075
:10240000022C01D1103000E014301AB107682F43BC
:10241000076002E00768AF430760F0BD1AB1838A26
:102420000B43838202E0838A8B4383827047028A54
:102430004FF6F0731A400282028A0A430282704702
:1024400082894FF2FF731A40828182890A43828116
:10245000704721B1828942F00202828104E08289C0
:102460004FF6FD731A4082817047028A4FF6DF7380
:102470001A400282028A0A430282704721B1028A0C
:1024800042F48042028204E0028A4BF6FF731A4053
:1024900002827047C1F30802828070470146888833
:1024A000C0F308007047818941F0010181817047C4
:1024B000028BD2B20283028B42EA0122028370476E
:1024C000028B02F47F420283028B0A43028370472D
:1024D00021B1828A42F02002828204E0828A4FF691
:1024E000DF731A408282704721B1828A42F0100263
:1024F000828204E0828A4FF6EF731A40828270472C
:1025000021B1828A42F00802828204E0828A4FF678
:10251000F7731A408282704721B1828942F40042E7
:10252000828103E08289C2F30E028281704721B169
:10253000828A42F40062828204E0828A4FF2FF7350
:102540001A4082827047828A4FF6FB731A40828259
:10255000828A0A438282704721B1828A42F0020253
:10256000828204E0828A4FF6FD731A4082827047AD
:1025700002460020B1F5007F00D100BF13880B4256
:1025800001D0012000E00020704701F40072B2F594
:10259000007F00D100BFCA430280704770B5024679
:1025A0000024002300250020A1F510666A3E00D11A
:1025B00000BFC1F3421501F01F03012606FA03F321
:1025C000012D02D19689334006E0022D02D1168AF0
:1025D000334001E0968A33400C12012606FA04F4D7
:1025E0001688344013B10CB1012000E0002070BD0A
:1025F00010B500220023A1F510646A3C00D100BF91
:102600000A1201249440A3B2DC43048010BD0000F0
:10261000003801400044004000480040004C0040A9
:102620000050004010B56FF00400FEF739F937484C
:1026300000683749B0FBF1F0364908700846007869
:1026400000EB4001C1EBC0104FF6FF7101EAC00082
:102650003149088010BD01462E4A12784A434FF096
:10266000E0235A6100229A611A46126942F001027F
:102670001A6100BF4FF0E022106910F0010F02D084
:1026800010F4803FF6D04FF0E022126922F00102F0
:102690004FF0E0231A6100229A61704701461E4AFA
:1026A00012884A434FF0E0235A6100229A611A4689
:1026B000126942F001021A6100BF4FF0E022106976
:1026C00010F0010F02D010F4803FF6D04FF0E0225E
:1026D000126922F001024FF0E0231A6100229A6190
:1026E000704710B5044600200C49088008E04FF4FC
:1026F0007A70FFF7D3FF09480088401C074908801B
:1027000006480088A042F2DB10BD00000C0000204B
:1027100000127A003400002036000020380000202B
:1027200010B54FF4A060FEF76BF810BD014600BF76
:10273000704700BF494A128812F0400FFAD0C2B267
:10274000464B1B1D1A80704710B586B00446012108
:1027500044F20400FEF766FC4FF40070ADF814007C
:1027600003208DF8160018208DF8170005A93C48A5
:10277000FEF7A2F94FF48060ADF8140004208DF844
:10278000170005A93648FEF797F925208DF80000B7
:1027900003208DF801008DF8020001208DF8030060
:1027A0006846FEF732F801940020ADF80800ADF855
:1027B0000A00ADF80C00ADF810000C20ADF80E00CA
:1027C00001A92648FFF76DFD012240F2255123485B
:1027D000FFF7FFFD01212148FFF7EFFD06B010BD17
:1027E00010B540F225511D48FFF7D8FE10B31B4825
:1027F000FFF754FEC4B21B48008810F4004F2BD1E1
:102800001848008810F4804F0CD00A2C03D0002008
:102810001449088020E01348008840F40040114922
:10282000088019E00D2C06D10E48008840F4804045
:102830000C49088010E00B480088C0F30D000A49DD
:102840000C5408480088401C064908800846008847
:10285000C72801DD0020088010BD000000380140BD
:10286000000801403C000020A001002008B5012123
:102870003020FEF7D7FB0420ADF8000010208DF8C3
:10288000030003208DF8020069462948FEF714F979
:102890004FF4E050ADF8000069462648FEF70CF909
:1028A0000120254908602549C1F8B0012449086084
:1028B0002249C1F8A80108BD00201F4908604FF057
:1028C00001001E49C1F8B0011D4908601B49C1F84B
:1028D000A80170470120184908604FF0000017490F
:1028E000C1F8B0014FF00100154908601349C1F863
:1028F000A80170470120104908601049C1F8B001D3
:102900004FF000000E4908604FF001000B49C1F87C
:10291000A80170470120084908600849C1F8B001C2
:10292000074908604FF000000449C1F8A80170474A
:102930000014014000100140888122420000224220
:10294000AC0122427FB505460C4601210220FEF76C
:1029500076FBADF80850ADF804400020ADF80A0051
:10296000ADF8060001A93648FEF71EFE002201213F
:102970003348FFF790F91D208DF8000001208DF8F5
:10298000010003208DF8020001208DF80300684645
:10299000FDF73BFF01212A48FFF762F97FBD70B5C3
:1029A0000024274824300088264908600020244954
:1029B000243108802348006806F0EAF805462249D9
:1029C00006F02EF90446204670BD10B501211C48C2
:1029D000FFF70FFC30B11DA002F04EFA012118489C
:1029E000FFF718FC10BD7FB505460C4601210420F9
:1029F000FEF725FBADF80850ADF804400020ADF817
:102A00000A00ADF8060001A91348FEF7CDFD01222A
:102A100011461148FFF73FF91E208DF800000020F5
:102A20008DF8010002208DF8020001208DF80300CE
:102A30006846FDF7EAFE01210748FFF711F97FBD5F
:102A40000004004044000020BD3786353320D6D036
:102A5000B6CF0D0A000000000008004030B589B074
:102A600005460C4601210846FEF7E9FA012105203A
:102A7000FEF7D8FA0F20ADF8200018208DF82300BB
:102A800003208DF8220008A94748FEF715F8ADF895
:102A90001850ADF814400020ADF81A00ADF816003B
:102AA00005A94FF08040FEF77FFD7020ADF80400CF
:102AB0000120ADF806000020ADF80A000220ADF8B4
:102AC0000C0001A94007FEF7ACFD0821C806FFF77E
:102AD000F7F97020ADF804000120ADF806000020E1
:102AE000ADF80A000220ADF80C0001A94007FEF77E
:102AF000DAFD0821C806FFF7ECF97020ADF80400F4
:102B00000120ADF806000020ADF80A000220ADF863
:102B10000C0001A94007FEF713FE0821C806FFF7C5
:102B2000E5F97020ADF804000120ADF806000020A2
:102B3000ADF80A000220ADF80C0001A94007FEF72D
:102B40004AFE0821C806FFF7DAF901218807FFF7D6
:102B500087F901218807FFF783F809B030BD10B568
:102B600000214FF08040FFF719FB00214FF080401B
:102B7000FFF710FB00214FF08040FFF709FB002119
:102B80004FF08040FFF708FB10BD084908807047F0
:102B90004FF08041088770474FF08041888670472A
:102BA0004FF0804188877047000801404000004096
:102BB00070B504464E4800684D494860206880F072
:102BC00000454C480168284606F0BAF948490860B3
:102BD000494800684849486048496068096806F003
:102BE000AFF945490860464800684549486045498D
:102BF000A068096806F0A4F94149086008684249DC
:102C000006F0DAF806D23E490868404906F098F91D
:102C10003B4908603A4908683D4905F0CDFF06D2B6
:102C200037490868394905F017FE354908603048CA
:102C30000068384908602E4A5168106806F080F92B
:102C40000546354905F076FE324948602A48006855
:102C500032490860284A5168106806F071F9054643
:102C60002D4905F067FE2D494860254800682C492C
:102C70000860284948682B49096805F0D1FF0646D5
:102C800024480168304605F0E7FD054626480168FE
:102C9000284605F0C5FF25490860204948682149B4
:102CA000096805F0BDFF06461C480168304605F07E
:102CB000D3FD05461C480168284605F0B1FF1C49B4
:102CC0000860174801681B4805F0AAFF1A49086008
:102CD0001A48007840B10846026815480168134850
:102CE000006801F0EDFF02E00020FFF738FF70BD43
:102CF00060000020580000206800002054000020E0
:102D0000700000205C000020000034430000B44349
:102D1000000034C3780000200AD7A33B80000020C5
:102D200088000020500000204C000020900000206F
:102D300094000020333323409800002048000020F6
:102D400000B587B001211420FEF76CF91020ADF812
:102D5000180003208DF81A0010208DF81B0006A91A
:102D6000B248FDF7A9FE06A9B148FDF7A5FE20204F
:102D7000ADF8180048208DF81B0003208DF81A00CC
:102D800006A9AB48FDF798FE00F08FF90021A9488D
:102D9000FEF77BFA0020ADF804004FF48270ADF826
:102DA00006000020ADF80800ADF80A00ADF80C00F0
:102DB0004FF40070ADF80E001820ADF810000020A0
:102DC000ADF812000720ADF8140001A99948FEF7EC
:102DD000B7F901219748FEF758FA00209649086094
:102DE0004FF001009549C1F8900107B000BD2DE9F1
:102DF000F04107460D4616460020914908603846C6
:102E000000F02CF98046002405E0FF2000F026F9B0
:102E10002855601CC4B2B442F7DB01208849086021
:102E20004046BDE8F0812DE9F04107460C461546C5
:102E3000002083490860384600F010F980460026DB
:102E400005E014F8010B00F009F9701CC6B2AE429F
:102E5000F7DB01207A4908604046BDE8F0811CB5E7
:102E600078A103C9CDE90001082000F05FF905222F
:102E700069463020FFF7D7FF052269461020FFF78B
:102E8000B6FF002406E01DF80400A52800D003E0EA
:102E9000601CC4B2052CF6DB00BF052C01D001205C
:102EA0001CBD0020FCE770B505460C4600206449B7
:102EB0000860284600F0D2F80646204600F0CEF81A
:102EC00001205E49C1F89001304670BD70B50446DE
:102ED00000205B490860204600F0C0F8FF2000F0A9
:102EE000BDF8054601205549C1F89001284670BD3E
:102EF00070B50546102000F019F900204E49086011
:102F00004FF0200229464FF0A000FFF78CFF012070
:102F10004E49C1F8900100BF4D4800680028FBD120
:102F20004FF00700FFF7D2FF044621462720FFF7A6
:102F3000BAFF14F0100F05D0FF21E120FFF7B3FF17
:102F4000102070BD14F0200F01D02020F9E7FF20E1
:102F5000F7E770B504460720FFF7B8FF0546294696
:102F60002720FFF7A0FF202221466120FFF73FFF27
:102F7000FF21E220FFF797FF002070BD10B5002071
:102F80002D4908604FF0050232494FF02A00FFF743
:102F90004AFF01212120FFF786FF01212220FFF7B0
:102FA00082FF28212520FFF77EFF20213120FFF717
:102FB0007AFF0F212620FFF776FF0F212020FFF751
:102FC00072FF01202149C1F890017820FFF743FBEF
:102FD00010BD10B50020184908604FF005021E49C9
:102FE0004FF03000FFF71FFF05221A492A20FFF794
:102FF0001AFF01212120FFF756FF01212220FFF7B0
:1030000052FF1A212420FFF74EFF28212520FFF729
:103010004AFF0F212620FFF746FF0E212020FFF751
:1030200042FF01200949C1F8900110BD000801408C
:103030000010014000300140900121420000224276
:1030400090012242A5A5A5A5A500000000002142EF
:10305000140122422F9100082A91000870B50546FC
:10306000002405E0601CC4B2C82C01DD002070BD46
:1030700002213748FEF78DF90028F3D0294634485D
:10308000FEF734F9002405E0601CC4B2C82C01DD51
:103090000020ECE701212E48FEF77BF90028F3D051
:1030A0002B48FEF725F9C0B2E1E700B587B0012152
:1030B00041F20400FDF7B6FFE020ADF8180018203B
:1030C0008DF81B0003208DF81A0006A92148FDF792
:1030D000F3FCE0211F48FDF79AFD0020ADF8040045
:1030E0004FF48270ADF806000020ADF80800022011
:1030F000ADF80A000120ADF80C004002ADF80E005A
:103100003820ADF810000020ADF812000720ADF80F
:10311000140001A90E48FEF713F801210C48FEF730
:10312000B4F8FF20FFF79AFF07B000BD10B50446C2
:10313000074800884FF6C7710840054908800846CF
:1031400000882043088001210148FEF79EF810BD49
:1031500000300140000801400EB501210846FDF78E
:1031600061FF05210220FDF7BBFD2020019000201A
:103170008DF808000C208DF8090001208DF80A0058
:1031800001A8FDF7B9FB17208DF8000000208DF88D
:1031900001008DF8020001208DF803006846FDF75C
:1031A00034FB0EBD1CB50A213C2000F01CFB8DF841
:1031B00000000B213C2000F016FB8DF801000C21D3
:1031C0003C2000F010FB8DF802001E213C2000F096
:1031D0000AFB8DF803009DF803109CA001F04CFE43
:1031E0001CBD10B5002202213C2000F01BFBE02298
:1031F00001213C2000F016FB10BD3EB504462346DD
:10320000062203213C2000F0DBFAC5B26078217869
:1032100040EA012000B28F490880E078A17840EAB6
:10322000012000B28C4908806079217940EA0120B0
:1032300000B28A49088060792179E278CDE90021DD
:103240000290A3786278217885A001F015FE3EBD3A
:103250002DE9F04104460025002621463C2000F0DF
:10326000C2FA0546601CC1B23C2000F0BCFA06461A
:1032700046EA052007B23846BDE8F0812DE9F04165
:103280000320FFF7E5FF00B2724908800720FFF72F
:10329000DFFF00B2704908800520FFF7D9FF00B2B8
:1032A0006E4908806B480088163800B2694908806A
:1032B0006948B0F9000004F02CFF06460022724B6A
:1032C00004F0A8FC044604F0F5FE00B26249088050
:1032D0006248B0F9000004F01CFF064600226B4B68
:1032E00004F098FC044604F0E5FE00B25B49088057
:1032F000BDE8F0812DE9F04F93B0FFF7BFFF6448C0
:103300004FF06632634BD0E904A1504604F03EFD15
:10331000CDE9080104F0C8FA04460D465C484FF0B8
:1033200066325C4BD0E904A1504604F02FFDCDE994
:10333000080104F07BFB06460F4655484FF0663205
:10334000544BD0E900A1504604F020FDCDE908011E
:1033500004F0AAFACDE910014D49D1E900A14FF0DE
:1033600066324C4B504604F011FDCDE9080104F0E3
:103370005DFB804689463948B0F9000004F0C9FE7B
:10338000824622462B4604F02BFF42464B46CDE9AF
:10339000040104F025FFCDE908012F48B0F9000031
:1033A00004F0B7FE824632463B4604F019FF42461F
:1033B0004B46CDE9000104F013FFCDE90401254897
:1033C000B0F9000004F0A5FE8246DDE9102304F008
:1033D00007FFCDE90201DDE9042304F01BFCCDE980
:1033E0000601DDE9082304F015FCCDE90E011B48B8
:1033F000B0F9000004F08DFE824632463B4604F0F0
:10340000EFFECDE908011448B0F9000004F081FE98
:10341000824622462B4604F0E3FECDE90601DDE9B3
:10342000082305F003F9CDE90C010CA80FC804F03E
:1034300065F982464FF06632164B04F0D1FECDE9B5
:103440000A01DDE90A0113B0BDE8F08F2564200D03
:103450000A000000A0000020A2000020A40000201C
:103460002D2D2D2D2D2D2D2D2D2D2D2D2D2D2D2D8C
:103470002564202025642020256420256420202523
:1034800064202025640D0A000040414000002140D6
:103490006802002066A64C4010B5FC48006820F089
:1034A0007040FA4908600846006840F040500860E3
:1034B0000120F7490860F749C1F898014FF005006D
:1034C000FFF7C9F80020F24908604FF00500FFF748
:1034D000C2F80020EF49C1F8980110BD10B5EB48C3
:1034E000006820F07040E94908600846006840F034
:1034F000405008600020E8490860E649C1F89C0196
:103500004FF00500FFF7A7F80120E3490860E14903
:10351000C1F89C014FF00500FFF79DF810BD10B5F4
:103520000024DA48006820F07040D8490860084656
:10353000006840F0004008600120D54908604FF065
:103540000200FFF788F80120D249C1F89801052050
:10355000FFF781F807E0601CC4B2FA2C03DDFFF727
:10356000BDFF012010BDCD4800680028F3D1CA4935
:10357000086000BFF6E710B50020C7490860C348DF
:10358000006820F07040C14908600846006840F0BB
:10359000405008604FF00000BE49C1F89C014FF058
:1035A0000300FFF758F80120BB4908604FF0050001
:1035B000FFF751F80020B749C1F8980110BD10B5C8
:1035C0000020B5490860B148006820F07040AF495C
:1035D00008600846006840F0405008604FF0010065
:1035E000AC49C1F89C014FF00200FFF734F801200C
:1035F000A94908604FF00200FFF72DF80020A54907
:10360000C1F8980110BD70B50446A048006820F0CC
:1036100070409E4908600846006840F040500860CD
:1036200000209D49086005461AE0E00998490860B5
:103630004FF00200FFF70FF801209649C1F89801FA
:103640000420FFF708F80020934908604FEA44601F
:103650004FEA10644FF00200FEF7FDFF681CC5B290
:10366000082DE2DB70BD70B5054600248748006870
:1036700020F07040854908600846006840F000402E
:103680000860002616E00020834908604FF0020021
:10369000FEF7E1FF01207F49C1F898016006040EA2
:1036A0007E48006808B1601CC4B20120FEF7D3FF59
:1036B000701CC6B2082EE6DB15B9FFF780FF01E0EB
:1036C000FFF759FF204670BD2DE9F04106460F4631
:1036D00090461C46FFF7E0FE002141EA4601C8B2D1
:1036E000FFF791FFFFF71BFF20B1FFF7F7FE002068
:1036F000BDE8F0813846FFF786FFFFF710FF002591
:103700000BE02078FFF77FFFFFF709FF18B1FFF705
:10371000E5FE0020ECE7641C6D1C4545F1DBFFF77E
:10372000DDFE0120E4E72DE9F04104460D46164692
:103730001F463B46324629462046FFF7C5FF10B1DB
:103740000020BDE8F0814FF0FF30FAE72DE9F041AD
:1037500005460F4614461E46FFF79EFE002141EA2D
:103760004501C8B2FFF74FFFFFF7D9FE20B1FFF7C1
:10377000B5FE0020BDE8F0813846FFF744FFFFF7B3
:10378000CEFEFFF789FE012101EB4501C8B2FFF72C
:103790003AFFFFF7C4FE0DE00120FFF764FF307031
:1037A000012C02D1FFF70BFF01E0FFF7E4FE761CCE
:1037B000601EC4B2002CEFD1FFF790FE0120D9E7C4
:1037C0002DE9F04104460D4616461F463B4632465B
:1037D00029462046FFF7BAFF10B10020BDE8F0816E
:1037E0004FF0FF30FAE770B504460D46FFF754FE80
:1037F0002046FFF708FFFFF792FE2846FFF703FF7A
:10380000FFF78DFEFFF748FE611CC8B2FFF7FBFE15
:10381000FFF785FE0020FFF726FF0646FFF75EFE56
:10382000304670BD70B506460C461546FFF734FEAF
:103830003046FFF7E8FEFFF772FE18B1FFF74EFEC5
:10384000002070BD2046FFF7DEFEFFF768FE284629
:10385000FFF7D9FEFFF763FEFFF740FE0120F0E718
:1038600008B501210820FDF7DDFBC020ADF8000000
:1038700010208DF8030003208DF8020069460348EC
:10388000FDF71AF9FFF72AFE08BD0000000C014001
:103890009C81214200802142988121421C81214249
:1038A00070B50024002500BF06E0002500E06D1C77
:1038B000B5F57A7FFBDB641CB4F57A7FF5DB00227B
:1038C0006B21D020FFF7AEFF07221921D020FFF790
:1038D000A9FF06221A21D020FFF7A4FF18221B21DE
:1038E000D020FFF79FFF00221C21D020FFF79AFF76
:1038F00070BD10B500247521D020FFF774FF044679
:1039000010BD2DE9F0410446002500262146D020B7
:10391000FFF769FF0546601CC1B2D020FFF763FFC7
:10392000064646EA052007B23846BDE8F08110B5E4
:103930003B20FFF7E6FF4E490988401A00B24D4987
:1039400008803D20FFF7DDFF49494988401A00B251
:10395000484948803F20FFF7D4FF45498988401AED
:1039600000B2444988804320FFF7CBFF00B24249B0
:1039700008804520FFF7C5FF00B240490880472076
:10398000FFF7BFFF00B23E49088010BD2DE9F047A8
:103990003849B1F9000004F0BCFB044604F008F912
:1039A000384908603349B1F9020004F0B2FB04461B
:1039B00004F0FEF8334948602E49B1F9040004F0E0
:1039C000A8FB044604F0F4F82E4988602A48B0F9B0
:1039D000000004F09EFB06464FF066322A4B04F0CE
:1039E000D5F980462948D0E900633246404604F0C4
:1039F0001DFE044604F0DCF8254908601F48B0F9B4
:103A0000000004F086FB06464FF066321E4B04F0C1
:103A1000BDF904461D48D0E902633246204604F051
:103A200005FE804604F0C4F8194948601448B0F90E
:103A3000000004F06EFB06464FF06632124B04F0B5
:103A4000A5F904460D461149D1E9046332462946D9
:103A500004F0ECFD804604F0ABF80D498860BDE849
:103A6000F08710B5FFF763FFFFF790FF10BD000070
:103A7000B0000020D0000020DC000020DE0000208C
:103A8000E00000208002002066663040B800002080
:103A90008C0200202DE9F04704464FF07C5120466F
:103AA00005F0BEF8814625462E46FE48A0EB660688
:103AB00035462946484605F0B3F88246294605F0C2
:103AC000AFF880464FF07F5105F0A7F90746294629
:103AD00005F0A6F805462846BDE8F0874FF07E5071
:103AE000F14908600020F1490860F1490860F14996
:103AF00008604FF07E50F04908600020EF490860F0
:103B0000EF490860EF490860EF490860EF49086035
:103B1000EF490860EF490860EF490860EF49086025
:103B2000EF49086070470FB400B5ABB0DE480168DC
:103B3000006805F075F81190DC480168DA48006803
:103B400005F06EF81090DA480168D748006805F073
:103B500067F80F90D7480168D348006805F060F80F
:103B60000E90D2480168006805F05AF80D90D048D0
:103B70000168CE48006805F053F80C90CD48016804
:103B8000CA48006805F04CF80B90C9480168006805
:103B900005F046F80A90C7480168C548006805F076
:103BA0003FF80990C3480168006805F039F80890AB
:103BB0002C9818902D9817902E9816902F98039067
:103BC00004F01EFEC74AC84BCDE9040104F008FB0F
:103BD000CDE9060103F0ECFF1B903098039004F050
:103BE0000FFEC04AC04BCDE9040104F0F9FACDE95B
:103BF000060103F0DDFF1A903198039004F000FEF7
:103C0000B84AB94BCDE9040104F0EAFACDE906015E
:103C100003F0CEFF19901699084605F001F80690BA
:103C20001799084604F0FCFF04901899084604F020
:103C3000F7FF0390049904F00FFE0590069904F035
:103C40000BFE0790FFF726FF2A902A99189804F098
:103C5000E7FF18902A99179804F0E2FF17902A9925
:103C6000169804F0DDFF16903499084604F0D8FF4A
:103C700006903399084604F0D3FF04903299084621
:103C800004F0CEFF0390049904F0E6FD0590069938
:103C900004F0E2FD0790FFF7FDFE2A902A99329882
:103CA00004F0BEFF32902A99339804F0B9FF3390A4
:103CB0002A99349804F0B4FF34900F990B9804F0CB
:103CC000CBFD05904FF08040349904F0A9FF04909B
:103CD000059904F0A5FF07900E990C9805F030F9AE
:103CE00003904FF08040339904F09AFF02900399BB
:103CF00004F096FF05904FF07C500A9905F020F9EA
:103D00000190089905F01CF903904FF0804032991A
:103D100004F086FF0290039904F082FF0490059955
:103D200004F09AFD0690079904F096FD29901099E9
:103D3000099805F005F905904FF08040349904F09A
:103D40006FFF0490059904F06BFF07904FF07C50D3
:103D50000D9905F0F5F80190089905F0F1F8039038
:103D60004FF08040339904F05BFF0290039904F018
:103D700057FF05900E990C9804F06EFD03904FF0DC
:103D80008040329904F04CFF0290039904F048FF00
:103D90000490059904F060FD0690079904F05CFD1D
:103DA00028904FF07C500D9905F0CAF803900A99BD
:103DB00005F0C6F805904FF08040349904F030FFCC
:103DC0000490059904F02CFF07901099099804F0CD
:103DD00043FD03904FF08040339904F021FF02909F
:103DE000039904F01DFF05900F990B9805F0A8F8B2
:103DF00003904FF08040329904F012FF0290039933
:103E000004F00EFF0490059904F026FD0690079932
:103E100004F022FD27902899084604F001FF06903F
:103E20002999084604F0FCFE0590069904F014FD5B
:103E3000079003F07AFE2690279825900F990B980B
:103E400005F07EF84FF08041079004F0E9FE2490E1
:103E50000999109804F000FD4FF08041079004F09C
:103E6000DFFE23900D99119805F06AF806900A99E3
:103E700005F066F80790089904F0EEFC22900F997F
:103E80000B9805F05DF805904FF08040259904F0FF
:103E9000C7FE0490059904F0C3FE07904FF07C50D4
:103EA0000A9923E0DF59375FE8000020EC0000208A
:103EB000F0000020F4000020380100203C01002028
:103EC0004001002044010020F8000020FC000020F8
:103ED000000100202C0100203001002034010020CE
:103EE000540100205DA79196CADB913F05F028F8A8
:103EF0000390089905F024F805904FF0804026992A
:103F000004F08EFE0490059904F08AFE069007994D
:103F100004F0A2FC21900999109804F09DFC0590F2
:103F20004FF08040259904F07BFE0490059904F041
:103F300077FE07900E990C9805F002F805904FF067
:103F40008040269904F06CFE0490059904F068FE08
:103F50000690079904F080FC20904FF07C500D995A
:103F600004F0EEFF03900A9904F0EAFF05904FF089
:103F70008040259904F054FE0490059904F050FE09
:103F800007900B990F9804F067FC05904FF0804064
:103F9000269904F045FE0490059904F041FE069030
:103FA000079904F059FC1F902099349804F038FECA
:103FB00005901F99339804F033FE0490059904F09E
:103FC000BFFF07902399169804F02AFE05902299C6
:103FD000179804F025FE0490059904F0B1FF0690AF
:103FE000079904F039FC1E901F99329804F018FECE
:103FF00005902199349804F013FE0490059904F07B
:104000009FFF07902299189804F00AFE05902499C2
:10401000169804F005FE0490059904F091FF0690AF
:10402000079904F019FC1D902199339804F0F8FDCC
:1040300005902099329804F0F3FD0490059904F05E
:104040007FFF07902499179804F0EAFD05902399C3
:10405000189804F0E5FD0490059904F071FF0690AE
:10406000079904F0F9FB1C90FEF799FCFE490860E3
:104070000846006804F0C4FB0022FC4BCDE90401B3
:1040800004F0AEF8CDE9060103F092FDF8490860AE
:1040900000211E9804F010FD6FD000211D9804F03F
:1040A0000BFD6AD000211C9804F006FD65D0F14993
:1040B0001E9804F0B5FD0690ED480168069804F0DE
:1040C000AFFD0790EC480168079804F0C5FBEA498A
:1040D0000860E8491D9804F0A3FD0690E4480168D3
:1040E000069804F09DFD0790E4480168079804F0E5
:1040F000B3FBE2490860DF491C9804F091FD06908B
:10410000DB480168069804F08BFD0790DC480168E5
:10411000079804F0A1FBDA4908604FF080401E992F
:1041200004F07EFD0690D4480168069804F094FBE4
:1041300007901B9904F090FB1B904FF080401D9955
:1041400004F06EFD0690CD480168069804F084FBEB
:1041500007901A9904F080FB1A904FF080401C9948
:1041600004F05EFD0690C6480168069804F074FBF2
:104170000790199904F070FB1990C24819990068CA
:1041800004F04EFD0590C0481A99006804F048FDFF
:104190000390BE48006880F0004001901B9904F035
:1041A0003FFD0290039904F0CBFE0490059904F0C2
:1041B000C7FE0690AE480168069804F031FD0790EE
:1041C000B3480168079804F047FB1590AD481A9969
:1041D000006804F025FD0590AB481999006804F0CB
:1041E0001FFD0390AA481B99006804F019FD029076
:1041F000039904F031FB0490059904F0A1FE0690A8
:104200009B480168069804F00BFD07909F480168E1
:10421000079804F021FB14909A481B99006804F059
:10422000FFFC059099481999006804F0F9FC039087
:1042300097481A99006804F0F3FC0290039904F07F
:104240007FFE0490059904F007FB069088480168FA
:10425000069804F0E5FC07908B480168079804F085
:10426000FBFA139088481B99006804F0D9FC05906C
:1042700086481A99006804F0D3FC03908448199981
:10428000006804F0CDFC0290039904F0E5FA049074
:10429000059904F055FE069075480168069804F0EB
:1042A000BFFC079077480168079804F0D5FA129090
:1042B0001299084604F0B4FC06901399084604F0DD
:1042C000AFFC04901499084604F0AAFC02901599DA
:1042D000084604F0A5FC0190029904F0BDFA039091
:1042E000049904F0B9FA0590069904F0B5FA07901C
:1042F000FFF7D0FB2A902A99159804F091FC6449A5
:1043000008602A99149804F08BFC604908602A9987
:10431000139804F085FC5C4908602A99129804F00F
:104320007FFC584908602BB05DF814FB0FB42DE9F1
:10433000F04F8DB0DDF858B017980C9018980B908E
:10434000199804F05DFA534A534BCDE9040103F088
:1043500047FFCDE9060103F02BFC0A901A9804F000
:104360004FFA4C4A4C4BCDE9040103F039FFCDE93B
:10437000060103F01DFC09901B9804F041FA454A20
:10438000454BCDE9040103F02BFFCDE9060103F015
:104390000FFC08900B99084604F042FC06900C991B
:1043A000084604F03DFC59460490584604F038FC99
:1043B0000390049904F050FA0590069904F04CFA21
:1043C0000790FFF767FB07460021384604F074FBAF
:1043D00002D132A000F050FD3946584604F020FCCE
:1043E000834639460C9804F01BFC0C9039460B9818
:1043F00004F016FC0B90244801682548006804F07E
:104400000FFC06901F4801682048006804F008FC73
:104410000590069904F094FD4FF08041079004F058
:10442000FFFB8046174801681748006804F0F8FB56
:104430000690164801681648006804F0F1FB0590E4
:10444000069904F009FA4FF08041079004F0E8FB68
:1044500081460C480168006804F0E2FB07900A48B6
:104460000168006820E00000540100200000E03FE7
:10447000280100200AD7A33BF8000020FC00002000
:1044800000010020F4000020F0000020EC000020DB
:10449000E80000205DA79196CADB913F204552526B
:1044A0004F5220200000000004F0BAFB0590FE48A7
:1044B0000168006804F0B4FB0390FC4801680068E0
:1044C00004F0AEFB0290039904F03AFD04900599C4
:1044D00004F036FD0690079904F0BEF9824649467D
:1044E0000B9804F09DFB514607900C9804F098FB44
:1044F0000690079904F024FD04465146584604F0FE
:104500008FFB414607900B9804F08AFB06900799B1
:1045100004F016FD054641460C9804F081FB49461F
:104520000790584604F07CFB0690079904F008FDBC
:104530000646DF49204604F073FB0790DD4801681A
:10454000079804F089F9DB490860D949284604F046
:1045500067FB0790D8480168079804F07DF9D649B1
:104560000860D349304604F05BFB0790D3480168EC
:10457000079804F071F9D149086021464FF0804056
:1045800004F04EFB06900A9904F066F90790C948BA
:104590000168079804F060F90A9029464FF08040BE
:1045A00004F03EFB0690099904F056F90790C248C2
:1045B0000168079804F050F9099031464FF08040A7
:1045C00004F02EFB0690089904F046F90790BB48CA
:1045D0000168079804F040F90890FEF7E0F9B8493F
:1045E00008600846006804F00BF90022B54BCDE9DD
:1045F000040103F0F5FDCDE9060103F0D9FAB24953
:104600000860B2480899006804F00AFB0590B048B9
:104610000999006804F004FB0390A348006880F047
:10462000004001900A9904F0FBFA0290039904F00B
:1046300087FC0490059904F083FC0690A248016869
:10464000069804F0EDFA079098480168079804F07E
:1046500003F9964908609D480999006804F0E0FA5A
:1046600005909B480899006804F0DAFA03908F4897
:104670000A99006804F0D4FA0290039904F0ECF867
:104680000490059904F05CFC06908F480168069838
:1046900004F0C6FA079084480168079804F0DCF833
:1046A0008149086089480A99006804F0B9FA0590C0
:1046B0007D480899006804F0B3FA03907B48099993
:1046C000006804F0ADFA0290039904F039FC0490FC
:1046D000059904F0C1F806907B480168069804F03B
:1046E0009FFA07907A480168079804F0B5F878496E
:1046F000086077480A99006804F092FA05906A48C1
:104700000999006804F08CFA0390684808990068D9
:1047100004F086FA0290039904F09EF8049005993B
:1047200004F00EFC069068480168069804F078FAD8
:10473000079066480168079804F08EF8634908609E
:1047400008460168006804F06BFA0690604801684A
:10475000006804F065FA049053480168006804F0AA
:104760005FFA029051480168006804F059FA01901C
:10477000029904F071F80390049904F06DF8059023
:10478000069904F069F80790FFF784F9074639465F
:104790004648006804F044FA4449086039464248F3
:1047A000006804F03DFA404908603946484800680E
:1047B00004F036FA4649086039464448006804F077
:1047C0002FFA424908600DB0BDE8F00F5DF814FB08
:1047D0002DE9F04F85B082463C480168006804F03E
:1047E0001FFA06463A480168006804F019FA0746BD
:1047F0002D480168006804F013FA80462B480168D0
:10480000006804F00DFA8146414604F025F805469B
:10481000394604F095FB0446314604F091FB0490C0
:104820002A4801682148006804F0FAF981462848BE
:1048300001681D48006804F0F3F94946009004F04F
:104840000BF8804603F0DCFF064600224FF0804361
:1048500003F0C6FC044603F0ABF903901C48016862
:104860001248006804F0DCF98146184801680E48D7
:10487000006804F0D5F94946009004F061FB8046D9
:1048800003F0BEFF064600224FF0804303F0A8FC71
:10489000044603F08DF98346034801680348006825
:1048A00004F0BEF9009015E0EC000020E8000020C4
:1048B0000AD7A33BF8000020FC00002000010020E4
:1048C000540100200000E03F28010020F4000020F7
:1048D000F0000020D4480168D448006804F0A0F932
:1048E0008146009903F0B8FF804603F089FF064631
:1048F00000224FF0804303F073FC044603F058F9A4
:104900000290C9480168006804F08AF90646C74861
:104910000168006804F084F90746C548016800682A
:1049200004F07EF98046C3480168006804F078F915
:104930008146414604F004FB0546394604F000FB7D
:104940000446314603F088FF0190019803F058FFB8
:1049500006460F46029803F053FF804632463B4618
:1049600002F0CCFE04464FF06632B34B03F038FC45
:10497000CAE90401584603F043FF064602F06EFC04
:1049800081F0004104464FF06632AB4B03F028FC47
:10499000CAE90001FEF7AEFCCAE902010022134693
:1049A000DAE90241204603F0DFFB08D20022A34BE4
:1049B000DAE90241204603F02DF9CAE9020105B007
:1049C000BDE8F08F7FB59E48006808B9012000E07F
:1049D00000209B4908604FF000009A4908602FE0D2
:1049E0009748006808B9012000E000209449086059
:1049F000FFF737F89449D1E90101CDE90001924868
:104A00000368924807C8FFF791FC9148FFF7E0FE62
:104A10000A20FDF743FE8E48C1688068CDE9020197
:104A20008B4903C9CDE900018948D0E904432246F6
:104A300088A000F021FA83480068401C8149086082
:104A4000804800686428CBDB00207E49086048E08D
:104A50000A20FDF723FEFFF704F87B49D1E90101A5
:104A6000CDE9000178480368784807C8FFF75EFC85
:104A70007748FFF7ADFE7648D0E9044322467D49EA
:104A800003C903F0C7F87B4A03C27149D1E9004367
:104A90002246794903C903F0BDF8774A03C26C483E
:104AA000D0E902432246754903C903F0B3F8734ABB
:104AB00003C20A20FDF7F2FD6548C1688068CDE9B0
:104AC0000201634803C8CDE900016149D1E904430B
:104AD00022466BA000F0D0F95A480068401C5949A2
:104AE0000860584800686428B2DB00226C4B6149BA
:104AF00003C903F04BF96B4AC2E904010022684B79
:104B00005D4903C903F042F9664A03C20022644BBF
:104B10005A4903C903F03AF9624AC2E90201002185
:104B2000544A11605160544A11605160534A1160F7
:104B300051604348006808B9012000E00020404966
:104B400008607FBD2DE9FC41FEF78BFF3E49D1E9AE
:104B50000101CDE900013C4803683C4807C8FFF764
:104B6000E5FB3B48FFF734FE4E48D0E904433848A4
:104B70002246D0E90461304603F058FD344AC2E9C8
:104B8000040148491046D1E900432246D0E90061BA
:104B9000304603F04BFD2E4A03C242492C48D1E96E
:104BA00002432246D0E90261304603F03FFD284A25
:104BB000C2E902011046D0E90421104602F0F8FFD4
:104BC000394908602248D0E90021104602F0F0FF80
:104BD00035494860002088600868344904F0ECF8E2
:104BE00001D2012000E00020064603F092FA21F0F5
:104BF000004104460022134603F020FA0BD12A4953
:104C0000486803F0FDFD21F0004104460022284BD6
:104C100003F0E4FB06D2002026490860264908601C
:104C200026490860BDE8FC81F4000020F000002067
:104C3000EC000020E800002066A64C400080764092
:104C4000A8012242080100208C02002080020020DE
:104C5000680200204A424A422D2D2D20252E326C1A
:104C6000662020252E326C662020252E326C660DA3
:104C70000A0000001001002018010020200100207F
:104C8000686568652D2D2D20252E326C6620202527
:104C90002E326C662020252E326C660D0A00000034
:104CA0000000594098020020940100200000F041CB
:104CB00000003E40600100204C0000205000002019
:104CC0002DE9F04704460E46154684F0004463483B
:104CD000006803F045FF8146214603F0BDFD804694
:104CE000314604F02DF90746294603F0B5FD5C492D
:104CF00008604FF07F51284603F092FF81465748E5
:104D0000006803F02DFF8246214603F0A5FD804692
:104D1000314603F0A1FD0746494604F011F9514917
:104D200008604E48006803F01BFF8146214604F0EE
:104D300007F98046314603F08FFD0746294603F008
:104D40008BFD494908604FF07F51284603F068FF0A
:104D500081464248006803F003FF8246214604F082
:104D6000EFF80746314604F0EBF88046494604F078
:104D7000E7F83E49086000213948006803F01CFF4D
:104D800002D800203649086039493548006804F0E7
:104D900013F802D8364832490860002131480068CB
:104DA00003F00AFF02D800202E49086030492D4840
:104DB000006804F001F802D82D482A490860002153
:104DC0002948006803F0F8FE02D800202649086050
:104DD00027492548006803F0EFFF02D824482249FC
:104DE000086000212148006803F0E6FE02D8002098
:104DF0001E4908601E491D48006803F0DDFF02D807
:104E00001B481A4908601948006803F089FE87B2F8
:104E100039464FF08040FDF7C1F91148006803F0B2
:104E20007FFE87B239464FF08040FDF7B3F90D4859
:104E3000006803F075FE87B239464FF08040FDF7F9
:104E4000A7F90948006803F06BFE87B239464FF0B6
:104E50008040FDF7A1F9BDE8F08700006001002067
:104E600064010020680100206C0100207001002016
:104E700000C07944704700000FB4044910B503AA7C
:104E8000029800F09BFB10BC5DF814FB4000002072
:104E90002DE9F0410646002410687529314616A513
:104EA00011D0AFF30080002803DAC0F1000013A591
:104EB00007E031688A0701D511A502E0490704D54A
:104EC00010A5012401E0AFF3008000210A2306F1C0
:104ED000240707E0B0FBF3F203FB120030307854F4
:104EE0001046491C0028F5D123462A463046BDE825
:104EF000F04100F0F6B80000000000002D000000B6
:104F00002B0000002000000070B504460D4621462D
:104F10001068AFF300802188090502D5104A7A4451
:104F200002E00F4A7A440E32002104F1240307E024
:104F300000F00F064FEA1010965D5E5401F101017A
:104F40000028F5D103462078000704D5702D02D043
:104F500009B1113202232046BDE8704000F0C1B80B
:104F6000124200002DE9F0474FF0000A894604463E
:104F7000C0F820A02046E1688847002876D0252880
:104F800006D0D4E901219047206A401C2062F1E755
:104F9000E168204600268847C4F81CA00546002783
:104FA000C4F818A02A2D09D0284602F050F938B3C9
:104FB00004EB8708303DC8F8185019E059F8041B75
:104FC000204604EB87029161E1688847012F05467E
:104FD00018D1E069002820DA26F020061DE0D8F874
:104FE000180000EB800005EB40003038C8F81800CE
:104FF0002046E1688847054602F029F90028EED1ED
:10500000012F0AD02E2D08D12046E16888477F1C49
:105010000546022F46F02006C4DBA069002803DA0B
:10502000404246F00106A061F00701D026F01006CC
:105030006C2D0AD0682D08D04C2D39D06A2D35D072
:10504000742D35D07A2D33D016E0E1682F462046F6
:105050008847B84205460AD16C2F27D04FF48060AC
:10506000E168064320468847054605E027E06C2FA7
:105070001AD04FF4807006430DB3A5F141001928F2
:1050800002D8203546F400664A4629462046266066
:105090004E46FBF7A7F880B101280BD0F61D26F08D
:1050A000070000F1080965E74020E4E78020D7E722
:1050B0000020D5E706F104095CE7284661E7206A8D
:1050C000BDE8F087704770477047704710B500F033
:1050D000DBFA006810BD10B5044600F0D5FA046094
:1050E00010BD2DE9F0470D4699469246044600F161
:1050F00024080168880604D5E06921F010012160C8
:1051000000E00120A84202DDA0EB050700E0002737
:10511000A16907EB050202EB0900A1EB0000A06109
:105120002078C00602D42046AFF30080002608E0B5
:10513000D4E901211AF806009047206A401C761C29
:1051400020624E45F4DB2078C0060AD52046AFF336
:10515000008006E0D4E9012130209047206A401CFD
:105160002062381EA7F10107F4DC07E0D4E9012131
:1051700018F805009047206A401C2062281EA5F1FF
:105180000105F3DC2046AFF300802078000602D54D
:105190000220BDE8F0870120FBE770472DE9FF4FB3
:1051A0000C461E464FF0FF378BB0D2E90001DDF808
:1051B00060800A908A46C1F30A5505B93D46002130
:1051C00008464FF00000BAF1000F00F4400005DA85
:1051D00000EB80004FF4400101EA50004FEA905983
:1051E000B9F1010F00DDB9460A9850EA4A000ED025
:1051F00044F61050A5F2FF3545432F14B8F1000FC7
:105200001ED07542291E1EDDC9F100021CE0B8F156
:10521000010F4FF0000001D0302103E0F24305E020
:105220002154401CB042FBDB3046002200212154B7
:105230000B99C1F80880C1E900200FB0BDE8F08FDC
:10524000BD1B6D1CDEE74A4600DA694206A800F085
:10525000E5FA06AB07CB03AB07C350460A9901F04A
:1052600066F88DE80700A0F500501F3800900398FD
:10527000002D09DD42F21F014A46084403A90390AC
:10528000684601F0F0FA08E0A0F500504A461F38E1
:1052900003A90390684601F00EFB8DE807000004A7
:1052A000000C03D04FF0FF30410800E01046B8F189
:1052B000000F03D00022009215461FE0751E06D491
:1052C00000F0E6F902F1300262556D1EF8D5B346E2
:1052D0000122084302D000227F1C04E020783028FD
:1052E00001D100227F1E002A099787D01DE0112DD1
:1052F00007DA00F0CDF9303262556D1C50EA010238
:10530000F5D108430FD10021681E05E0235C625CE3
:105310006354491C2254401E8142F7DBAB46A81B54
:10532000401E099001E0009848B1002004F80B00ED
:105330000B98099AC0F80880C0E9002B7DE7112678
:105340004FF000085AE72DE9F04F88460446D21D79
:1053500022F0070191B0D1E90001CDE90A0101F085
:10536000F4FB02460B98C00F01D02D2007E0206807
:10537000810701D52B2002E0202101EAC000032A89
:10538000099001D0072A05DB03464146204600F07C
:10539000E5F90FE12078800601D5E06900E00620FC
:1053A000B8F1650F814606D0B8F1660F18D0B8F194
:1053B000670F72D132E00020B9F1110F009001DBCC
:1053C000112301E009F101030AAA01A90CA8FFF7C2
:1053D000E5FEDDE90C70002609F10105834648E091
:1053E00001204B4600904FF000470AAA01A90CA8E3
:1053F000FFF7D4FEDDE90DB00C995D46002618B923
:1054000009F1010001EB0005B9EB050003D4C0F17F
:10541000FF3609F10105A5EB09002BE0B9F1010FF9
:1054200001DA4FF001090020B9F1110F0090484650
:1054300001DD112300E003460AAA01A90CA8FFF729
:10544000ADFEDDE90C704D4600268346207800074E
:105450000AD4AB4500DA5D4601A8012D04DD4119EF
:1054600011F8011C302907D04F4502DA17F1040F5B
:1054700004DA0120824610E06D1EEEE7002F02DC08
:10548000ED1B3E4403E0781CA84200DD0546A7EB77
:10549000060000F1010A4FF000472078000703D40E
:1054A000AA4501DB4FF0FF3A0021B7F1004F0DF1A3
:1054B00043088DF8431023D002202B23002F01DA5C
:1054C0007F422D234FF00A0C011EA0F1010000DCE9
:1054D0004FB197FBFCF10CFB11720F4602F1300249
:1054E00008F8012DF0E7A8F10100037021880905F3
:1054F00001D5452100E06521A0F1010800F8011C5B
:1055000009980FA9A1EB080707F1070700B10120CF
:1055100000EB050101EBEA70A1693844A1EB000042
:10552000A0F10100A0612078C00602D42046AFF3AC
:105530000080099830B1D4E901219047206A00F138
:10554000010020622078C00620D52046AFF30080FD
:105550001CE0002E04DBB34502DD01A8805D00E005
:105560003020D4E901219047206A761C401CBAF112
:10557000010A20620AD100F083F8C0680168405C2B
:10558000D4E901219047206A401C2062281EA5F121
:105590000105DEDC07E0D4E9012118F8010B904792
:1055A000206A401C2062381EA7F10107F3DC204668
:1055B000AFF30080022011B040E60000074B70B549
:1055C0000D467B4400F0B7F80446284600F098F9F1
:1055D00010B14FF0FF3070BD204670BD6DD1FFFFA0
:1055E0000FB4002300B589B00CA900910B99CB60D2
:1055F000204B7B440693204B7B44079304236FF09E
:105600000042CDE901321D4A7A446B4608920246B7
:10561000002003F06CFD09B05DF814FB70B5064680
:105620004FF0FF3015460C46324686B00091CDE96A
:10563000010169460020049004A8FFF7D1FF03464A
:105640000498211825B108B10A4600E022462A60D4
:1056500000280DD0002B02DD0098884208D0324689
:10566000081B69460094CDE9010404A8FFF7B8FFC0
:1056700006B070BDE7010000FF0100000F0100004F
:1056800000487047D002002000487047B002002058
:1056900030B5B0F10A024FEA900E71F100034EEA04
:1056A000817EB0EB0E0061EB91014FEA101E4EEAD5
:1056B000017E10EB0E0041EB11114FEA102E4EEA65
:1056C000016E10EB0E0041EB11214FEA104E4EEA35
:1056D000014E10EB0E0041EB1141401841F1000169
:1056E0004FEAD00040EA41704FEAD10110EB80054B
:1056F0004FEA810444EA907444EB01046D1944EBD1
:105700000404521BA3414FF0000348BF0A3200D5E6
:1057100030BD401C41F1000130BD10B5044600F021
:105720001DF90068005D00F0010010BD01694A1C10
:1057300002610878704700B58FB0CDE901310021D2
:10574000059105497944CDE9031011466846FFF7F4
:1057500009FC0FB000BD0000E5FFFFFF2DE9F0419F
:105760001F46044603260168072A01F4006004DB93
:1057700008B116A505E016A503E008B115A500E0DF
:1057800015A521F010002060A069C01EA0610FB116
:10579000401EA0612046AFF300804FB1D4E9012143
:1057A00038469047206A401C2062C01C206206E0F8
:1057B000206AFAE7D4E9012115F8010B9047761E1B
:1057C000F8D22046AFF30080BDE8F0814E414E0094
:1057D0006E616E00494E4600696E6600426842B1D5
:1057E000016811F8013B23B1521EC0E900121846AE
:1057F00070470121C160881E704742685AB1C36872
:10580000016843B983688B4205D0491E521CC0E928
:105810000012002070474FF0FF3070472DE9F0472D
:10582000814616468AB035487844D0E9002380681E
:105830000092CDE90130314878440C38D0E9022398
:10584000006903924FF03702CDE9043041F69B30F6
:10585000014491FBF2F0A0F1800502FB10141B3C07
:1058600002D56442012000E00020DFF890A08046CD
:105870000027FA44AAF1C60A0DE0E00709D0324633
:10588000684607EB47010AEB810101F014F88DE847
:10589000070064107F1C002CEFD1184F7F44B43FE9
:1058A00017E0E80713D007EB04100DF1180A90E891
:1058B0000E00AAE80E00C068F04201D198190890C5
:1058C000324606A903A800F0F6FF03AB07C36D102C
:1058D000641C002DE5D132466946B8F1000F03A8DB
:1058E00002D000F0C0FF01E000F0E5FFC9E90001CF
:1058F000C9F808200AB0BDE8F0870000C03B0000EE
:10590000007B00F08000704700487047B002002024
:105910007546FFF7F9FFAE4605006946534620F08D
:105920000700854618B020B5FAF758FFBDE82040BB
:105930004FF000064FF000074FF000084FF0000B4B
:1059400021F00701AC46ACE8C009ACE8C009ACE8FE
:10595000C009ACE8C0098D467047000010B5FFF7DC
:105960008FFE001D10BD00BF1D2200002DE9FF4F5E
:10597000064689B00878FF2806D0491C2D2805D096
:1059800000244FF0000908E000200CE00124F8E7B3
:1059900009EB8903491C00EB43090878FF28F7D17C
:1059A00014B1C9F100008146107800252C46AA46A2
:1059B00029462D2801D02B2804D1521C2D2813D084
:1059C000002082468B461078FF280FD04FF0000C45
:1059D0000A21521CA5FB017804FB018105FB0C1177
:1059E000C5194BEB0104EEE70120EAE70021084668
:1059F0004FF00000BAF1000F02D000EB8000400829
:105A0000C0F38158B8F1010F01DD4FF0FF380C9859
:105A100009EB000755EA040006D14FEACA70C6E94F
:105A200000B00DB0BDE8F08F17F5FA7F4FF0020916
:105A300004DA4FEACA70C6E900B00BE0B7F5FA7FA6
:105A40000DDDF0487844D0E90010C6E9001040EAC6
:105A5000CA707060FFF718FEC0F80090E1E7391EC9
:105A600002DAC8F1000200E0424600DA794206A8F4
:105A7000FFF7D4FE06AB07CB03AB07C344F23E00EF
:105A80005BEA04010090584604D144F21E012C4602
:105A90005D460091210C0904014306D100992404BC
:105AA00044EA15442D041039009104F07F4101436C
:105AB00006D10099240244EA15642D0208390091A8
:105AC00004F07041014306D10099240144EA1574A1
:105AD0002D01091F009104F04041014306D10099B6
