:020000040800F2
:1000000070080020AD050008B5030008B70300081C
:10001000BB030008BF030008C30300080000000082
:10002000000000000000000000000000C7030008FE
:10003000C903000800000000CB030008CD0300083E
:10004000C7050008C7050008C7050008C705000860
:10005000C7050008C7050008C7050008C705000850
:10006000C7050008C7050008C7050008C705000840
:10007000C7050008C7050008C7050008C705000830
:10008000C7050008C7050008C7050008C705000820
:10009000C7050008C7050008C705000809030008D0
:1000A000C7050008C7050008C7050008C705000800
:1000B000C70500085F36000845030008C7050008AB
:1000C000C7050008C7050008C7050008C7050008E0
:1000D000C7050008CD250008C7050008C7050008AA
:1000E000C7050008C7050008C7050008C7050008C0
:1000F000C7050008C7050008C7050008C7050008B0
:10010000C7050008C7050008C7050008C70500089F
:10011000C7050008C7050008C7050008C70500088F
:10012000C7050008C7050008C7050008C70500087F
:1001300000F002F800F04AF80AA090E8000C8244AF
:100140008344AAF10107DA4501D100F03FF8AFF28C
:10015000090EBAE80F0013F0010F18BFFB1A43F0A5
:1001600001031847D07B0000F07B0000103A24BF49
:1001700078C878C1FAD8520724BF30C830C144BF0C
:1001800004680C607047000000230024002500264E
:10019000103A28BF78C1FBD8520728BF30C148BFEA
:1001A0000B607047662907F0F483642904F08083AC
:1001B000002070471FB504F0F5FE04000020002168
:1001C00006F066FBE0601FBD10B510BD05F00AF833
:1001D0001146FFF7EFFF00F009F805F028F803B427
:1001E000FFF7F2FF03BC02F097F900001FB500BF54
:1001F00000BF02F00DF902F0D3FD0020564908605F
:100200004FF0C80002F040F901205449C1F88801BC
:100210000020534908604FF0C80002F035F9012072
:100220004F4908604FF00000A1F1040108604FF051
:10023000C80002F029F901204A4908604FF0000087
:100240004949C1F8A8014FF0C80002F01DF901208A
:100250004549C1F8A80102F059F94FF4165002F0CF
:1002600069F902F0F9F902F001FF03F01DF80DE061
:100270003E48006808B9012000E000203B490860C2
:100280003BA004F009FB642002F0FEF802F07DFFC1
:100290000128EDD03AA004F0FFFA072002F0ACFFED
:1002A00004462146272002F094FFFF21E22002F0BD
:1002B00090FF092140F2E73003F066F847214FF63E
:1002C000FF7003F089F947214FF4FA7003F0D5F974
:1002D00002F046FD02F0D0FD02F003FA04F0A0F9AE
:1002E00011E004F05DFA2948C1688068CDE9020197
:1002F000264803C8CDE900012448D0E904532A4622
:1003000023A004F0C9FAECE710B5202000F050FA61
:1003100078B1202000F05DFA0021234801F096FB1F
:100320000120224908702248006820F0200020495E
:1003300008600C48006808B9012000E00020094965
:10034000086010BD10B50121174801F048FE0121D9
:10035000154801F055FE10BD8881224200802242DE
:10036000B0012242AC01224200002242A8012242F6
:100370004E5246204552524F5221210D0A00000094
:100380004E5246206F6B6B21210D0A00C8010020E0
:10039000252E326C662020252E326C662020252EDC
:1003A000326C660D0A00000000080040F8000020D2
:1003B00000040140704700BFFEE700BFFEE700BF3A
:1003C000FEE700BFFEE770477047704770470000C8
:1003D0000CB50020019000906B48006840F480301C
:1003E0006949086000BF6848006800F40030009068
:1003F0000198401C0190009818B90198B0F5A06FC1
:10040000F1D16148006810F4003F02D00120009053
:1004100001E0002000900098012842D15B4800686C
:1004200040F01000594908600846006820F00300B9
:1004300008600846006840F00200086052484068C2
:10044000514948600846406848600846406840F4A2
:10045000806048600846406820F47C104860084688
:10046000406840F4E81048600846006840F080703A
:10047000086000BF4448006810F0007FFAD042488E
:10048000406820F00300404948600846406840F05A
:100490000200486000BF3C48406800F00C0008289B
:1004A000F9D10CBD10B5FFF793FF10BD10B536485C
:1004B000006840F00100344908600846406834494B
:1004C00008403149486008460068324908402E49D2
:1004D00008600846006820F48020086008464068EC
:1004E00020F4FE0048604FF41F008860FFF7DAFF39
:1004F0004FF000602849086010BD10B500210020B1
:100500000022214B5B6803F00C0121B1042906D0C5
:10051000082928D107E0214B214C236027E01F4BFD
:100520001F4C236023E0184B5B6803F47010164BDC
:100530005B6803F48032022303EB904022B9194B2D
:100540004343174C23600DE00F4B5B6813F4003FEF
:1005500004D0144B4343124C236003E00F4B43433E
:100560000F4C236003E00D4B0D4C236000BF00BF18
:10057000054B5B68C3F303130B4CE15C084B1B6832
:10058000CB40074C236010BD001002400020024009
:100590000000FFF8FFFFF6FE08ED00E000127A0011
:1005A0000000002000093D000400002009488047A9
:1005B00009480047FEE7FEE7FEE7FEE7FEE7FEE745
:1005C000FEE7FEE7FEE7FEE704480549054A064B5D
:1005D00070470000AD0400083101000870020020DF
:1005E000700800207004002070040020314901438D
:1005F000314A1160704770B5002100230F22C47882
:100600000CB32D4C246804F4E064C4F5E064210AC2
:10061000C1F10403CA40447804FA03F18478144019
:1006200021430901254C0678A155047804F01F05E3
:100630000124AC4005786D114FF0E02606EB8505EE
:10064000C5F8004109E0047804F01F050124AC401E
:100650001B4D0678761145F8264070BD194A0A40B0
:100660000243154B1B1F1A60704739B1124A121D05
:1006700012680243104B1B1D1A6006E00E4A121D41
:10068000126882430C4B1B1D1A607047042808D166
:100690004FF0E021096941F004014FF0E0221161BF
:1006A00007E04FF0E021096921F004014FF0E0225A
:1006B000116170470000FA050CED00E000E400E075
:1006C00080E100E080FFFF1F002044490860091D11
:1006D0000860091D0860091D086041483F49143140
:1006E0000860704700213D498279002A3AD00A46C5
:1006F000126803689A430B461A600A1D1268036861
:100700009A430B1D1A60027911440A6803681A4360
:100710000A60324A0832126803689A432F4B083342
:100720001A601A1D126803689A432C4B0C331A6026
:100730004279102A0ED11A1F126803681A43274BF8
:1007400008331A601A1D126803681A43234B0C33CE
:100750001A600DE02149427911440A6803681A437E
:100760000A6005E0027911440A6803689A430A6046
:1007700070470021016001710C21417100218171DC
:1007800070471649103109680143144A103211604C
:10079000704701460020114A143212680A4201D003
:1007A000012000E0002070470C49143108607047B8
:1007B000014600200022094B1B6803EA0102074B97
:1007C00014331B680B4202D00AB1012000E0002064
:1007D000704702491431086070470000000401406E
:1007E000FFFF0F0010B50446CA48844208D101211A
:1007F000042000F027FB0021042000F023FB46E04A
:10080000C548844208D10121082000F01BFB0021CB
:10081000082000F017FB3AE0C048844208D10121CB
:10082000102000F00FFB0021102000F00BFB2EE049
:10083000BB48844208D10121202000F003FB0021A5
:10084000202000F0FFFA22E0B648844208D10121BE
:10085000402000F0F7FA0021402000F0F3FA16E003
:10086000B148844208D10121802000F0EBFA002138
:10087000802000F0E7FA0AE0AC48844207D1012169
:10088000801500F0DFFA0021A01500F0DBFA10BDA2
:1008900010B50121084600F0D5FA0021012000F032
:1008A000D1FA10BD2DE9F0410246002500260020B6
:1008B00000230024002791F803C00CF00F0591F8E5
:1008C00003C01CF0100F03D091F802C04CEA0505DC
:1008D00091F800C0BCF1000F31D0146800202BE06B
:1008E0004FF0010C0CFA00F3B1F800C00CEA03065B
:1008F0009E4220D183004FF00F0C0CFA03F7BC434B
:1009000005FA03FC4CEA040491F803C0BCF1280F7B
:1009100006D14FF0010C0CFA00FCC2F814C00AE03A
:1009200091F803C0BCF1480F05D14FF0010C0CFA4F
:1009300000FCC2F810C0401C0828D1D31460B1F8E4
:1009400000C0BCF1FF0F34DD546800202EE000F140
:10095000080C4FF0010808FA0CF3B1F800C00CEADB
:1009600003069E4221D183004FF00F0C0CFA03F7CF
:10097000BC4305FA03FC4CEA040491F803C0BCF143
:10098000280F05D100F1080C08FA0CF8C2F8148001
:1009900091F803C0BCF1480F07D100F1080C4FF0EB
:1009A000010808FA0CF8C2F81080401C0828CED3C1
:1009B0005460BDE8F0814FF6FF7101800221817023
:1009C0000421C17070470246002093680B4201D099
:1009D000012000E0002070470146886880B270471F
:1009E00002460020D3680B4201D0012000E0002025
:1009F00070470146C86880B2704701617047416125
:100A000070470AB1016100E041617047C160704701
:100A10004FF480320A438261816182618269826916
:100A2000704702460020424B18684FF6807318400A
:100A300040EA021008433E4B186070473D49C861C8
:100A40007047F0B50A46002300240021002500F07D
:100A50000046B6F1004F02D1354EF16901E0344E47
:100A60007168C0F3034583B200F44016B6F5401F29
:100A700008D121F070612E4E766826F070662C4FFA
:100A80007E6012E000F48016B6F5801F06D10326C2
:100A900006FA05F4A14341F0706106E0460D360107
:100AA00003FA06F6B14341F0706122B1460D3601FA
:100AB00003FA06F6314300F00046B6F1004F02D1CA
:100AC0001B4EF16101E01A4E7160F0BD30B500229D
:100AD0008B071C0F0F2303FA04F2154B08338C10FD
:100AE00053F824309343124C08348D1044F82530C9
:100AF00023468C1053F824308C07240F00FA04F49A
:100B000023430B4C08348D1044F8253030BD0A497E
:100B10000860704700080140000C014000100140CF
:100B20000014014000180140001C01400020014059
:100B30000000014000002042DC002042DD48006847
:100B400040F00100DB49086008464068DA49084087
:100B5000D849486008460068D8490840D549086027
:100B60000846006820F4802008600846406820F4A9
:100B7000FE0048604FF41F0088607047CD49096847
:100B800021F48031CB4A11601146096821F480219B
:100B90001160B0F5803F03D0B0F5802F0ED106E094
:100BA000C449096841F48031C24A116007E0C14973
:100BB000096841F4A021BF4A116000E000BF00BFF6
:100BC000704710B501460022002300204A11012A77
:100BD00002D1B84C236806E0022A02D1B54C236A40
:100BE00001E0B44C636A01F01F02012494401C42EE
:100BF00001D0012000E0002010BD38B50020009099
:100C00000024002500BF3120FFF7DBFF05460098D8
:100C1000401C00900098B0F5A06F01D0002DF2D0DC
:100C20003120FFF7CEFF08B1012400E00024204668
:100C300038BD014600209F4A106820F0F80040EAC5
:100C4000C100106070479E4908607047024600204E
:100C5000984B586820F47C1042EA01031843954BE6
:100C60005860704796490866704701460020914ACF
:100C7000506820F003000843506070478D4840687A
:100C800000F00C007047014600208A4A506820F0AE
:100C9000F00008435060704701460020854A5068C4
:100CA00020F4E06008435060704701460020814A0C
:100CB000506820F4605040EAC1005060704729B18C
:100CC0007C4A527A02437B4B5A7204E0794A527A48
:100CD0008243784B5A7270477A49086070470146E0
:100CE0000020744A506820F4404008435060704728
:100CF0000021754A11706F4A82F82010012802D035
:100D0000042808D103E001216F4A117004E0052195
:100D10006D4A117000E000BF00BF70476B4908606A
:100D200070476449096A0143624A11627047674922
:100D300044390860704730B50021002200240023A8
:100D40005C4D6D6805F00C0121B1042905D008291E
:100D500023D105E05E4D056022E05D4D05601FE09A
:100D6000544D6D6805F47012524D6D6805F4803471
:100D7000022505EB92421CB9564D554305600BE028
:100D80004C4D6D6815F4003F03D0524D554305603E
:100D900002E04F4D5543056002E04D4D056000BF38
:100DA00000BF444D6D6805F0F00109094A4D6B5CC8
:100DB0000568DD4045603F4D6D6805F4E061090A56
:100DC000454D6B5C4568DD4085603A4D6D6805F4C6
:100DD0006051C90A404D6B5C4568DD40C560354DCA
:100DE0006D6805F44041890B3C4D6B5CC568B5FBF3
:100DF000F3F5056130BD29B12E4A526902432D4BEE
:100E00005A6104E02B4A526982432A4B5A61704767
:100E100029B1284A92690243264B9A6104E0254A87
:100E200092698243234B9A61704729B1214AD26962
:100E30000243204BDA6104E01E4AD26982431D4B13
:100E4000DA61704729B11B4AD2680243194BDA6054
:100E500004E0184AD2688243164BDA60704729B121
:100E6000144A12690243134B1A6104E0114A1269D1
:100E70008243104B1A61704714494039086070472B
:100E80000F49C86470470B49C87170470948406AE8
:100E900040F0807007494862704701460020054ACB
:100EA00092680A4201D0012000E000207047014909
:100EB00088727047001002400000FFF8FFFFF6FE46
:100EC00000004242D80042422010024080044242C8
:100ED00000127A0000093D001400002024000020C8
:100EE00010B50446BE48844208D101218014FFF7A2
:100EF000A9FF0021A014FFF7A5FF16E0B94884421E
:100F000008D101210014FFF7AAFF00212014FFF7E8
:100F1000A6FF0AE0B448844207D10121C013FFF7BD
:100F20009EFF0021E013FFF79AFF10BD10B50022CD
:100F3000028802F441520B884C8823438C88234357
:100F4000CC8823430C8923434C8923438C89234336
:100F5000CC8923431A430280838B4FF2FF742340D2
:100F600083830B8A038210BD2DE9F04F85B00546BF
:100F70000C464FF0000902274FF000084FF0010B1C
:100F80000026B246A88B4FF240010840A8830220F9
:100F90002884B5F81C90A068022801D100BF38E071
:100FA000A08810B94FF0010B01E04FF0020B8D4803
:100FB000854200D100E000BF6846FFF7BCFEDDF8C7
:100FC00000A0E088B0F5007F0AD14FEA1A2000EBBC
:100FD00080004000A168B0FBF1F0401D86B20BE03C
:100FE0004FEA4B10BAFBF0F000EB80004000A16824
:100FF000B0FBF1F0401D86B20A20B6FBF0F606F019
:101000000108A6EB0800C0F34F074FF6FF7000EA97
:101010000828022F01DBFF2F02DD02274FF0000816
:10102000E08840EA080038432884A088A189084362
:10103000618808432188084340F4006040EA0909B8
:10104000A5F81C9005B0BDE8F08F0021018041801B
:101050008180C180018141818181C181072101821B
:1010600070470021018041808180C1800221816020
:1010700000218181704721B1028842F04002028044
:1010800004E002884FF6BF731A400280704721B116
:10109000828B42F48062828304E0828B4FF6FF33BE
:1010A0001A408283704730B5002400230C110125BB
:1010B000A540ABB21AB185881D43858002E08588C2
:1010C0009D43858030BD1AB183880B43838002E045
:1010D00083888B438380704781817047014688896C
:1010E0007047A1F57E42FF3A04D0028842F4807234
:1010F000028004E002884FF6FF631A4002807047C6
:1011000021B1828842F00402828004E082884FF696
:10111000FB731A408280704702884FF2FF731A40B7
:10112000028002880A4302807047018841F480519E
:101130000180704721B1028842F40052028004E02D
:1011400002884DF6FF731A40028070470246002065
:10115000012901D0108B00E0908A70470146088A6F
:101160007047B1F5804F04D1028842F4804202807A
:1011700004E002884BF6FF731A4002807047024673
:10118000002013890B4201D0012000E000207047AD
:10119000CA4302817047F0B50246002000240023B4
:1011A000002501F00F070126BE40B4B20B11012645
:1011B0009E40B3B2968806EA03051689264202D0FD
:1011C0000DB1012000E00020F0BD10B5002201F0BB
:1011D0000F040123A3409AB2D343038110BD000042
:1011E0000030014000380040003C004010B504468B
:1011F000FE48844208D10121C014FFF723FE0021DC
:10120000E014FFF71FFEC4E0B4F1804F08D10121C4
:101210000846FFF724FE00210120FFF720FEB8E07A
:10122000F348844208D101210220FFF718FE002173
:101230000220FFF714FEACE0EE48844208D1012101
:101240000420FFF70CFE00210420FFF708FEA0E0B9
:10125000E948844208D101210820FFF700FE00215F
:101260000820FFF7FCFD94E0E448844208D1012106
:101270001020FFF7F4FD00211020FFF7F0FD88E0BB
:10128000DF48844208D101212020FFF7E8FD00213A
:101290002020FFF7E4FD7CE0DA48844208D10121F8
:1012A0004014FFF7CFFD00216014FFF7CBFD70E085
:1012B000D548844209D10121C804FFF7C3FD0021AC
:1012C0004FF40020FFF7BEFD63E0D048844209D10F
:1012D00001210805FFF7B6FD00214FF48010FFF74C
:1012E000B1FD56E0CA48844209D101214805FFF703
:1012F000A9FD00214FF40010FFF7A4FD49E0C54807
:10130000844208D101214020FFF7A9FD002140209F
:10131000FFF7A5FD3DE0C048844208D101218020AF
:10132000FFF79DFD00218020FFF799FD31E0BB48CC
:10133000844208D101218015FFF791FD0021A015FD
:10134000FFF78DFD25E0B648844209D1012108044C
:10135000FFF778FD00214FF48030FFF773FD18E0B0
:10136000B048844209D101214804FFF76BFD0021F8
:101370004FF40030FFF766FD0BE0AB48844208D124
:1013800001218804FFF75EFD00214FF48020FFF764
:1013900059FD10BD00220288944B98420ED0994B03
:1013A00098420BD0B0F1804F08D0914B984205D0B5
:1013B000904B984202D0904B984204D14FF68F73D5
:1013C0001A404B881A438D4B984207D08C4B984259
:1013D00004D04FF6FF431A40CB881A4302808B8813
:1013E00083850B880385814B98420BD0854B9842AF
:1013F00008D08B4B984205D08A4B984202D08A4B3A
:10140000984201D10B7A038601238382704770B51D
:10141000002400220023058C4FF6FE76354005841B
:10142000028C8388048B4FF68F752C40B51E2C40A0
:101430000D882C43751E2A400D892A434D882A4366
:101440006A4DA8420BD06F4DA84208D0744DA842F7
:1014500005D0744DA84202D0734DA84213D14FF667
:10146000F7752A404D892A434FF6FB752A408D882F
:101470002A434FF6FF652B404FF6FF552B408D89D1
:101480002B43CD892B4383800483CD8885860284BA
:1014900070BD70B5002400220023058C4FF6EF7656
:1014A00035400584028C8388048B48F6FF752C40F8
:1014B0004FF6FF452C400D884FF6FF7606EA0525CE
:1014C0002C434FF6DF752A400D8906EA05152A439D
:1014D0004D8806EA05152A43444DA84202D0494DDD
:1014E000A8421DD14FF67F752A404D894FF6FF76F1
:1014F00006EA05152A434FF6BF752A408D8806EA8D
:1015000005152A434FF6FF352B404FF2FF752B4050
:101510008D8906EA85052B43CD8906EA85052B438F
:1015200083800483CD880587028470BD70B5002454
:1015300000220023058C4FF6FF6635400584028C9F
:101540008388848B4FF68F752C404FF6FC752C40AA
:101550000D882C434FF6FF552A400D894FF6FF7634
:1015600006EA05252A434D8806EA05252A431F4D2C
:10157000A84202D0234DA8421DD14FF2FF752A4048
:101580004D894FF6FF7606EA05252A434FF6FF35CB
:101590002A408D8806EA05252A434EF6FF752B4022
:1015A0004DF6FF752B408D8906EA05152B43CD8935
:1015B00006EA05152B4383808483CD8885870284C2
:1015C00070BD70B5002200230024058C4EF6FF7616
:1015D00035400584038C8488828B48F6FF752A4049
:1015E0004FF6FF452A400D8820E00000002C014006
:1015F0000004004000080040000C004000100040C3
:101600000014004000340140004C014000500140F3
:101610000054014000180040001C00400020004021
:101620000040014000440140004801404FF6FF7671
:1016300006EA05252A434DF6FF752B400D8906EA7B
:1016400005352B434D8806EA05352B43FA4DA84254
:1016500002D0FA4DA84208D14BF6FF752C408D8977
:101660004FF6FF7606EA85152C4384808283CD8869
:10167000A0F84050038470BD828B4FF2FF331A40B4
:101680008283828B4FF6FF7303EA01231A4382831E
:101690007047F0B50C461546002200210026078C45
:1016A0004EF6FF7C07EA0C070784828B018C4FF60D
:1016B000FF7707EA043640F6FF473A404FF6FF77D8
:1016C00007EA05273A434FF6FF7707EA03373A431D
:1016D000D94FB8420ED0D94FB8420BD0B0F1804F9D
:1016E00008D0D74FB84205D0D64FB84202D0D64F17
:1016F000B84206D14DF6FF77394046F4805739435A
:1017000005E047F6FF57394044F480573943828358
:101710000184F0BD828B4FF6F3731A408283828B73
:101720000A4382837047F0B50C461546002200211B
:101730000026078C4FF6FF6C07EA0C070784828BA4
:10174000018C4FF6FF7707EA04264FF60C773A40F4
:101750004FF6FF7707EA03172F433A43B64FB842D5
:101760000ED0B64FB8420BD0B0F1804F08D0B44F76
:10177000B84205D0B34FB84202D0B34FB84206D1F9
:101780004FF6FF57394046F48077394305E04FF272
:10179000FF57394044F48077394382830184F0BD98
:1017A000028B4FF2FF331A400283028B4FF6FF7316
:1017B00003EA01231A4302837047F0B50C4615462D
:1017C000002200210026078C4FF6EF7C07EA0C0769
:1017D0000784028B018C4FF6FF7707EA041640F668
:1017E000FF473A404FF6FF7707EA03373A434FF691
:1017F000FF7707EA05273A438F4FB8420ED08F4F45
:10180000B8420BD0B0F1804F08D08D4FB84205D010
:101810008C4FB84202D08C4FB84206D14FF6DF77DA
:10182000394046F01007394305E04FF65F773940FD
:1018300044F01007394302830184F0BD028B4FF658
:10184000F3731A400283028B0A4302837047F0B598
:101850000C46154600220021068C4FF6FE773E40CE
:101860000684028B018C4FF60C7632407E1C06EA11
:1018700003162E433243704EB0420ED06F4EB0422C
:101880000BD0B0F1804F08D06D4EB04205D06D4EF8
:10189000B04202D06C4EB04206D14FF6FD763140D8
:1018A00044F00106314305E04FF6F576314044F04F
:1018B0000106314302830184F0BD70B505460C4634
:1018C0005D4885420ED05D4885420BD0B5F1804F12
:1018D00008D05B48854205D05A48854202D05A4814
:1018E000854200D100E000BF208850B92389A2883A
:1018F00061882846FFF7ABFFE1882846FFF79EFF87
:1019000025E0208804280AD12389A28861882846F6
:10191000FFF753FFE1882846FFF742FF17E02088D2
:1019200008280AD12389A28861882846FFF7FBFE90
:10193000E1882846FFF7EEFE09E02389A288618846
:101940002846FFF7A6FEE1882846FFF795FE70BD02
:101950002DE9F04105460C4600260127608808B9AC
:10196000022600E00026A088012801D1022700E01D
:1019700001272088A0B92389A28861882846FFF71B
:1019800066FFE1882846FFF759FF23893A4631462A
:101990002846FFF712FFE1882846FFF701FF13E012
:1019A0002389A28861882846FFF707FFE188284637
:1019B000FFF7F6FE23893A4631462846FFF747FFF0
:1019C000E1882846FFF73AFFBDE8F0810A884B8896
:1019D0001A438B881A43CB881A430B891A434B89C5
:1019E0001A438B891A43A0F8442070474FF6FF71C1
:1019F000818000210180C1804180017270470021F7
:101A0000018041808180C180018141818181C181CA
:101A10007047002101804180012181800021C18027
:101A2000018170470021018041808180C180018156
:101A30004181818170470000002C01400034014049
:101A40000004004000080040000C004021B1028862
:101A500042F00102028004E002884FF6FE731A4051
:101A60000280704731B1B0F8442042F40042A0F83F
:101A7000442005E0B0F84420C2F30E02A0F8442050
:101A800070471AB183890B43838102E083898B43BA
:101A9000838170478182704741EA0203A0F8483091
:101AA00070471AB183890B43838102E083898B439A
:101AB0008381704701894FF6F872114001817047A8
:101AC0000A46002101894FF68F73194011430181A5
:101AD000704730B504460D4629462046FFF7F0FF13
:101AE000208940F00700208130BD2DE9F0410446F7
:101AF0000D4616461F46602D06D13B460122314653
:101B00002046FFF75AFE05E03B46012231462046BB
:101B1000FFF79DFE29462046FFF7D2FF208940F0BF
:101B200007002081BDE8F08130B50C460021018915
:101B3000C9B24FF6FF7505EA03251543254329432E
:101B4000018130BD2DE9F04105460E461746984605
:101B5000002443463A4631462846FFF7E5FF2C89E4
:101B60004FF6F870044044F007044FF68F700440BD
:101B700044F070042C81BDE8F081F0B504460D46B8
:101B800016461F463B46324629462046FFF7CCFF05
:101B9000208940F480402081F0BD01858282704719
:101BA0000A46002101884FF68F73194011430180C6
:101BB0007047F0B50C4615461E4600210022002352
:101BC0000189028B038C4FF6F877394021434FF699
:101BD000FC473A4040F201173A434FF6DD773B406D
:101BE0004FF6FF7707EA06172F433B430181028335
:101BF0000384F0BD0A460021018B4FF68F73194014
:101C00001143018370470A460021018B48F6FF7398
:101C100019404FF6FF7303EA02231943018370470B
:101C20000A460021818B4FF68F731940114381833F
:101C300070470A460021818B48F6FF7319404FF622
:101C4000FF7303EA022319438183704721B102889D
:101C500042F08002028004E002884FF67F731A404F
:101C60000280704721B1828842F00402828004E041
:101C700082884FF6FB731A408280704721B18288B8
:101C800042F00802828004E082884FF6F7731A401F
:101C90008280704721B1828842F00102828004E094
:101CA00082884FF6FE731A40828070470A460021F0
:101CB000018B4FF6F77319401143018370470A46B1
:101CC0000021018B4FF2FF7319404FF6FF7303EAB7
:101CD00002231943018370470A460021818B4FF686
:101CE000F77319401143818370470A460021818BA5
:101CF0004FF2FF7319404FF6FF7303EA02231943B3
:101D0000818370470A460021018B4FF6FB7319400F
:101D10001143018370470A460021018B4FF6FF33C0
:101D200019404FF6FF7303EA0223194301837047FA
:101D30000A460021818B4FF6FB73194011438183C2
:101D400070470A460021818B4FF6FF3319404FF64A
:101D5000FF7303EA02231943818370470A46002177
:101D6000018B4FF67F7319401143018370470A4678
:101D70000021018BC1F30E014FF6FF7303EA02232A
:101D80001943018370470A460021818B4FF67F7308
:101D900019401143818370470A460021818BC1F3AA
:101DA0000E014FF6FF7303EA022319438183704744
:101DB0000A460021018C4FF6FD731940114301843E
:101DC00070470A460021018C4FF6F7731940114302
:101DD000018470470A460021018C4FF6DF731940D9
:101DE0004FF6FF7303EA02131943018470470A4652
:101DF0000021018C4FF67F7319404FF6FF7303EA01
:101E000002131943018470470A460021018C4FF6E2
:101E1000FF5319404FF6FF7303EA0223194301846D
:101E200070470A460021018C4FF2FF7319404FF6AC
:101E3000FF7303EA02231943018470470A46002115
:101E4000018C4DF6FF7319404FF6FF7303EA02331E
:101E500019430184704730B5002301248C40A3B29C
:101E6000048C9C430484048C02FA01F5ADB22C432B
:101E7000048430BD30B5002304248C40A3B2048C0C
:101E80009C430484048C02FA01F5ADB22C43048413
:101E900030BD70B5034600200024184618300125D7
:101EA0008D40ACB21D8CA5431D8409B1082909D110
:101EB00000EB6100056825F07005056005681543B5
:101EC00005600EE00D1FC5F34E052844056825F496
:101ED000E045056005684FF6FF7606EA02263543C1
:101EE000056070BD21B1028842F00202028004E068
:101EF00002884FF6FD731A400280704721B10288B4
:101F000042F00402028004E002884FF6FB731A409C
:101F10000280704721B1828842F08002828004E012
:101F200082884FF67F731A408280704702884FF68E
:101F3000F7731A40028002880A4302807047828841
:101F40004FF68F731A40828082880A4382807047DE
:101F500002894FF6F8731A40028102890A4302810E
:101F6000704702894FF67F731A40028102890A4343
:101F700002817047818470478185704781867047F0
:101F80000187704781877047A0F84010704702882A
:101F90004FF6FF431A40028002880A4302807047CE
:101FA0000146888E70470146088F70470146888F2A
:101FB00070470146B1F8400070470146888C704771
:101FC0000146088D704702460020138A0B4201D05B
:101FD000012000E000207047CA430282704730B5FC
:101FE0000246002000230024158A05EA0103958992
:101FF00005EA010413B10CB1012000E0002030BD5E
:10200000CA4302827047000010B50446FB48844270
:1020100009D101218803FEF715FF00214FF480400C
:10202000FEF710FF32E0F648844209D1012148044E
:10203000FEF715FF00214FF40030FEF710FF25E0FA
:10204000F048844209D101218804FEF708FF0021ED
:102050004FF48020FEF703FF18E0EB48844209D1DB
:102060000121C804FEF7FBFE00214FF40020FEF71B
:10207000F6FE0BE0E548844208D101210805FEF791
:10208000EEFE00214FF48010FEF7E9FE10BD2DE9B1
:10209000F04786B005460E460024A24600BFA14682
:1020A0000027B08900B100BF2F462C8A4CF6FF7084
:1020B0000440F08804432C82AC894EF6F3100440AF
:1020C000B08831890843718908430443AC81AC8AE4
:1020D0004FF6FF400440B0890443AC8201A8FEF7EC
:1020E0002AFEC648874202D1DDF810A001E0DDF8E3
:1020F0000CA0A88910F4004F08D00AEBCA0000EB2E
:102100000A1031684900B0FBF1F807E00AEBCA0099
:1021100000EB0A1031688900B0FBF1F86420B8FBCD
:10212000F0F004012009642101FB1089A88910F452
:10213000004F08D0322000EBC900B0FBF1F000F0F6
:102140000700044308E0322000EB09106421B0FBD3
:10215000F1F000F00F0004432C8106B0BDE8F087D9
:102160004FF41651016000218180C18001810C2152
:10217000418100218181704710B502460020108AFC
:102180004FF2FF0318400B884C8823438C8823436D
:10219000CC8823431843108210BD00210180418068
:1021A0008180C180704721B1828942F400528281CE
:1021B00004E082894DF6FF731A4082817047F0B5C2
:1021C00003460024002600250020A1F510676A3F81
:1021D00000D100BF1846C1F3421401F01F060127C9
:1021E00007FA06F5012C01D10C3004E0022C01D1D4
:1021F000103000E014301AB107682F43076002E086
:102200000768AF430760F0BD1AB1838A0B4383822E
:1022100002E0838A8B4383827047028A4FF6F07311
:102220001A400282028A0A430282704782894FF270
:10223000FF731A40828182890A438281704721B1EB
:10224000828942F00202828104E082894FF6FD73A6
:102250001A4082817047028A4FF6DF731A40028269
:10226000028A0A430282704721B1028A42F4804204
:10227000028204E0028A4BF6FF731A400282704722
:10228000C1F308028280704701468888C0F30800C5
:102290007047818941F0010181817047028BD2B280
:1022A0000283028B42EA012202837047028B02F40E
:1022B0007F420283028B0A430283704721B1828AE4
:1022C00042F02002828204E0828A4FF6DF731A40D5
:1022D0008282704721B1828A42F01002828204E039
:1022E000828A4FF6EF731A408282704721B1828A48
:1022F00042F00802828204E0828A4FF6F7731A40A5
:102300008282704721B1828942F40042828103E0D7
:102310008289C2F30E028281704721B1828A42F41F
:102320000062828204E0828A4FF2FF731A40828246
:102330007047828A4FF6FB731A408282828A0A4370
:102340008282704721B1828A42F00202828204E0D6
:10235000828A4FF6FD731A4082827047024600203F
:10236000B1F5007F00D100BF13880B4201D00120DE
:1023700000E00020704701F40072B2F5007F00D148
:1023800000BFCA430280704770B502460024002394
:1023900000250020A1F510666A3E00D100BFC1F300
:1023A000421501F01F03012606FA03F3012D02D1A5
:1023B0009689334006E0022D02D1168A334001E0AF
:1023C000968A33400C12012606FA04F4168834402B
:1023D00013B10CB1012000E0002070BD10B5002247
:1023E0000023A1F510646A3C00D100BF0A12012449
:1023F0009440A3B2DC43048010BD000000380140CB
:102400000044004000480040004C004000500040A4
:1024100010B56FF00400FEF739F937480068374906
:10242000B0FBF1F0364908700846007800EB400137
:10243000C1EBC0104FF6FF7101EAC00031490880BE
:1024400010BD01462E4A12784A434FF0E0235A61EC
:1024500000229A611A46126942F001021A6100BF15
:102460004FF0E022106910F0010F02D010F4803F0D
:10247000F6D04FF0E022126922F001024FF0E02383
:102480001A6100229A61704701461E4A12884A4327
:102490004FF0E0235A6100229A611A46126942F015
:1024A00001021A6100BF4FF0E022106910F0010F25
:1024B00002D010F4803FF6D04FF0E022126922F0F3
:1024C00001024FF0E0231A6100229A61704710B5B3
:1024D000044600200C49088008E04FF47A70FFF7AA
:1024E000D3FF09480088401C074908800648008837
:1024F000A042F2DB10BD00000000002000127A00B4
:10250000280000202A0000202C00002010B54FF4E5
:10251000A060FEF76BF810BD014600BF704700BF1A
:10252000494A128812F0400FFAD0C2B2464B1B1D26
:102530001A80704710B586B00446012144F20400A9
:10254000FEF766FC4FF40070ADF8140003208DF820
:10255000160018208DF8170005A93C48FEF7A2F9CF
:102560004FF48060ADF8140004208DF8170005A921
:102570003648FEF797F925208DF8000003208DF8E6
:1025800001008DF8020001208DF803006846FEF777
:1025900032F801940020ADF80800ADF80A00ADF85B
:1025A0000C00ADF810000C20ADF80E0001A9264873
:1025B000FFF76DFD012240F225512348FFF7FFFD93
:1025C00001212148FFF7EFFD06B010BD10B540F224
:1025D00025511D48FFF7D8FE10B31B48FFF754FEE6
:1025E000C4B21B48008810F4004F2BD11848008853
:1025F00010F4804F0CD00A2C03D00020144908801E
:1026000020E01348008840F400401149088019E098
:102610000D2C06D10E48008840F480400C490880FB
:1026200010E00B480088C0F30D000A490C5408481C
:102630000088401C0649088008460088C72801DD3C
:102640000020088010BD0000003801400008014053
:1026500030000020FC0000200EB501210846FEF7E6
:10266000D7FB05210220FEF731FA2020019000203F
:102670008DF808000C208DF8090001208DF80A0063
:1026800001A8FEF72FF817208DF8000000208DF824
:1026900001008DF8020001208DF803006846FDF767
:1026A000AAFF0EBD1CB50A213C2000F01CFB8DF8D2
:1026B00000000B213C2000F016FB8DF801000C21DE
:1026C0003C2000F010FB8DF802001E213C2000F0A1
:1026D0000AFB8DF803009DF803109CA002F0DCF8C3
:1026E0001CBD10B5002202213C2000F01BFBE022A3
:1026F00001213C2000F016FB10BD3EB504462346E8
:10270000062203213C2000F0DBFAC5B26078217874
:1027100040EA012000B28F490880E078A17840EAC1
:10272000012000B28C4908806079217940EA0120BB
:1027300000B28A49088060792179E278CDE90021E8
:102740000290A3786278217885A002F0A5F83EBDBA
:102750002DE9F04104460025002621463C2000F0EA
:10276000C2FA0546601CC1B23C2000F0BCFA064625
:1027700046EA052007B23846BDE8F0812DE9F04170
:102780000320FFF7E5FF00B2724908800720FFF73A
:10279000DFFF00B2704908800520FFF7D9FF00B2C3
:1027A0006E4908806B480088163800B26949088075
:1027B0006948B0F9000004F0F6FA06460022724BB0
:1027C00004F0AEF8044604F0BFFA00B26249088093
:1027D0006248B0F9000004F0E6FA064600226B4BAE
:1027E00004F09EF8044604F0AFFA00B25B4908809A
:1027F000BDE8F0812DE9F04F93B0FFF7BFFF6448CB
:102800004FF06632634BD0E904A1504604F044F91E
:10281000CDE9080103F050FF04460D465C484FF037
:1028200066325C4BD0E904A1504604F035F9CDE99D
:10283000080103F097FF06460F4655484FF06632F1
:10284000544BD0E900A1504604F026F9CDE9080127
:1028500003F032FFCDE910014D49D1E900A14FF05D
:1028600066324C4B504604F017F9CDE9080103F0ED
:1028700079FF804689463948B0F9000004F093FAA0
:10288000824622462B4604F0F5FA42464B46CDE9F5
:10289000040104F0EFFACDE908012F48B0F9000077
:1028A00004F081FA824632463B4604F0E3FA42469F
:1028B0004B46CDE9000104F0DDFACDE904012548DD
:1028C000B0F9000004F06FFA8246DDE9102304F04D
:1028D000D1FACDE90201DDE9042304F021F8CDE9C4
:1028E0000601DDE9082304F01BF8CDE90E011B48C1
:1028F000B0F9000004F057FA824632463B4604F035
:10290000B9FACDE908011448B0F9000004F04BFA17
:10291000824622462B4604F0ADFACDE90601DDE9F8
:10292000082304F097FCCDE90C010CA80FC803F0B4
:1029300003FE82464FF06632164B04F09BFACDE957
:102940000A01DDE90A0113B0BDE8F08F2564200D0E
:102950000A000000380000203A0000203C0000205F
:102960002D2D2D2D2D2D2D2D2D2D2D2D2D2D2D2D97
:10297000256420202564202025642025642020252E
:1029800064202025640D0A000040414000002140E1
:10299000C801002066A64C4010B5FC48006820F035
:1029A0007040FA4908600846006840F040500860EE
:1029B0000120F7490860F749C1F898014FF0050078
:1029C000FFF73FFD0020F24908604FF00500FFF7D8
:1029D00038FD0020EF49C1F8980110BD10B5EB4853
:1029E000006820F07040E94908600846006840F03F
:1029F000405008600020E8490860E649C1F89C01A1
:102A00004FF00500FFF71DFD0120E3490860E14993
:102A1000C1F89C014FF00500FFF713FD10BD10B584
:102A20000024DA48006820F07040D8490860084661
:102A3000006840F0004008600120D54908604FF070
:102A40000200FFF7FEFC0120D249C1F898010520E1
:102A5000FFF7F7FC07E0601CC4B2FA2C03DDFFF7B8
:102A6000BDFF012010BDCD4800680028F3D1CA4940
:102A7000086000BFF6E710B50020C7490860C348EA
:102A8000006820F07040C14908600846006840F0C6
:102A9000405008604FF00000BE49C1F89C014FF063
:102AA0000300FFF7CEFC0120BB4908604FF0050092
:102AB000FFF7C7FC0020B749C1F8980110BD10B559
:102AC0000020B5490860B148006820F07040AF4967
:102AD00008600846006840F0405008604FF0010070
:102AE000AC49C1F89C014FF00200FFF7AAFC01209D
:102AF000A94908604FF00200FFF7A3FC0020A54998
:102B0000C1F8980110BD70B50446A048006820F0D7
:102B100070409E4908600846006840F040500860D8
:102B200000209D49086005461AE0E00998490860C0
:102B30004FF00200FFF785FC01209649C1F898018B
:102B40000420FFF77EFC0020934908604FEA4460B0
:102B50004FEA10644FF00200FFF773FC681CC5B227
:102B6000082DE2DB70BD70B505460024874800687B
:102B700020F07040854908600846006840F0004039
:102B80000860002616E00020834908604FF002002C
:102B9000FFF757FC01207F49C1F898016006040E39
:102BA0007E48006808B1601CC4B20120FFF749FCF0
:102BB000701CC6B2082EE6DB15B9FFF780FF01E0F6
:102BC000FFF759FF204670BD2DE9F04106460F463C
:102BD00090461C46FFF7E0FE002141EA4601C8B2DC
:102BE000FFF791FFFFF71BFF20B1FFF7F7FE002073
:102BF000BDE8F0813846FFF786FFFFF710FF00259C
:102C00000BE02078FFF77FFFFFF709FF18B1FFF710
:102C1000E5FE0020ECE7641C6D1C4545F1DBFFF789
:102C2000DDFE0120E4E72DE9F04104460D4616469D
:102C30001F463B46324629462046FFF7C5FF10B1E6
:102C40000020BDE8F0814FF0FF30FAE72DE9F041B8
:102C500005460F4614461E46FFF79EFE002141EA38
:102C60004501C8B2FFF74FFFFFF7D9FE20B1FFF7CC
:102C7000B5FE0020BDE8F0813846FFF744FFFFF7BE
:102C8000CEFEFFF789FE012101EB4501C8B2FFF737
:102C90003AFFFFF7C4FE0DE00120FFF764FF30703C
:102CA000012C02D1FFF70BFF01E0FFF7E4FE761CD9
:102CB000601EC4B2002CEFD1FFF790FE0120D9E7CF
:102CC0002DE9F04104460D4616461F463B46324666
:102CD00029462046FFF7BAFF10B10020BDE8F08179
:102CE0004FF0FF30FAE770B504460D46FFF754FE8B
:102CF0002046FFF708FFFFF792FE2846FFF703FF85
:102D0000FFF78DFEFFF748FE611CC8B2FFF7FBFE20
:102D1000FFF785FE0020FFF726FF0646FFF75EFE61
:102D2000304670BD70B506460C461546FFF734FEBA
:102D30003046FFF7E8FEFFF772FE18B1FFF74EFED0
:102D4000002070BD2046FFF7DEFEFFF768FE284634
:102D5000FFF7D9FEFFF763FEFFF740FE0120F0E723
:102D600008B501210820FEF753F8C020ADF8000097
:102D700010208DF8030003208DF8020069460348F7
:102D8000FDF790FDFFF72AFE08BD0000000C014092
:102D90009C81214200802142988121421C81214254
:102DA00008B501213020FEF733F80420ADF800000B
:102DB00010208DF8030003208DF802006946294891
:102DC000FDF770FD4FF4E050ADF80000694626486D
:102DD000FDF768FD0120254908602549C1F8B001CB
:102DE000244908602249C1F8A80108BD00201F49F4
:102DF00008604FF001001E49C1F8B0011D4908608C
:102E00001B49C1F8A80170470120184908604FF01C
:102E100000001749C1F8B0014FF0010015490860E2
:102E20001349C1F8A80170470120104908601049F2
:102E3000C1F8B0014FF000000E4908604FF00100EA
:102E40000B49C1F8A80170470120084908600849EA
:102E5000C1F8B001074908604FF000000449C1F80B
:102E6000A8017047001401400010014088812242EF
:102E700000002242AC01224270B50024002500BFB0
:102E800006E0002500E06D1CB5F57A7FFBDB641CD5
:102E9000B4F57A7FF5DB00226B21D020FFF742FFEB
:102EA00007221921D020FFF73DFF06221A21D0204A
:102EB000FFF738FF18221B21D020FFF733FF002235
:102EC0001C21D020FFF72EFF70BD10B50024752106
:102ED000D020FFF708FF044610BD2DE9F04104465D
:102EE000002500262146D020FFF7FDFE0546601C88
:102EF000C1B2D020FFF7F7FE064646EA052007B22A
:102F00003846BDE8F08110B53B20FFF7E6FF4E499B
:102F10000988401A00B24D4908803D20FFF7DDFFC7
:102F200049494988401A00B2484948803F20FFF784
:102F3000D4FF45498988401A00B24449888043201B
:102F4000FFF7CBFF00B2424908804520FFF7C5FFDD
:102F500000B2404908804720FFF7BFFF00B23E495A
:102F6000088010BD2DE9F0473849B1F9000003F0A1
:102F70001AFF044603F0A2FC384908603349B1F94E
:102F8000020003F010FF044603F098FC3349486048
:102F90002E49B1F9040003F006FF044603F08EFC4D
:102FA0002E4988602A48B0F9000003F0FCFE06466E
:102FB0004FF066322A4B03F06FFD80462948D0E976
:102FC00000633246404604F045F9044603F076FCBF
:102FD000254908601F48B0F9000003F0E4FE0646EA
:102FE0004FF066321E4B03F057FD04461D48D0E9F2
:102FF00002633246204604F02DF9804603F05EFC61
:10300000194948601448B0F9000003F0CCFE0646A8
:103010004FF06632124B03F03FFD04460D46114956
:10302000D1E904633246294604F014F9804603F0DE
:1030300045FC0D498860BDE8F08710B5FFF763FFD8
:10304000FFF790FF10BD000048000020680000203E
:10305000740000207600002078000020E0010020AD
:103060006666304050000020EC01002000B587B0BB
:1030700001211420FDF7CCFE1020ADF8180003202C
:103080008DF81A0010208DF81B0006A9B248FDF734
:1030900009FC06A9B148FDF705FC2020ADF8180091
:1030A00048208DF81B0003208DF81A0006A9AB48B4
:1030B000FDF7F8FB00F039FA0021A948FDF7DBFF26
:1030C0000020ADF804004FF48270ADF80600002037
:1030D000ADF80800ADF80A00ADF80C004FF4007030
:1030E000ADF80E001820ADF810000020ADF8120069
:1030F0000720ADF8140001A99948FDF717FF012139
:103100009748FDF7B8FF0020964908604FF001008E
:103110009549C1F8900107B000BD2DE9F04107467F
:103120000D461646002091490860384600F0D6F951
:103130008046002405E0FF2000F0D0F92855601CEF
:10314000C4B2B442F7DB0120884908604046BDE8BC
:10315000F0812DE9F04107460C46154600208349D1
:103160000860384600F0BAF98046002605E014F8F9
:10317000010B00F0B3F9701CC6B2AE42F7DB0120C0
:103180007A4908604046BDE8F0811CB578A103C9C2
:10319000CDE90001082000F009FA05226946302037
:1031A000FFF7D7FF052269461020FFF7B6FF00247E
:1031B00006E01DF80400A52800D003E0601CC4B29E
:1031C000052CF6DB00BF052C01D001201CBD002022
:1031D000FCE770B505460C460020644908602846A7
:1031E00000F07CF90646204600F078F901205E499F
:1031F000C1F89001304670BD70B5044600205B49AF
:103200000860204600F06AF9FF2000F067F90546E3
:1032100001205549C1F89001284670BD70B505469A
:10322000102000F0C3F900204E4908604FF0200242
:1032300029464FF0A000FFF78CFF01204E49C1F84E
:10324000900100BF4D4800680028FBD14FF00700F7
:10325000FFF7D2FF044621462720FFF7BAFF14F0FC
:10326000100F05D0FF21E120FFF7B3FF102070BD44
:1032700014F0200F01D02020F9E7FF20F7E770B508
:1032800004460720FFF7B8FF054629462720FFF729
:10329000A0FF202221466120FFF73FFFFF21E2200F
:1032A000FFF797FF002070BD10B500202D49086082
:1032B0004FF0050232494FF02A00FFF74AFF012183
:1032C0002120FFF786FF01212220FFF782FF28211E
:1032D0002520FFF77EFF20213120FFF77AFF0F2105
:1032E0002620FFF776FF0F212020FFF772FF012035
:1032F0002149C1F890017820FFF7A3F810BD10B55F
:103300000020184908604FF005021E494FF03000B8
:10331000FFF71FFF05221A492A20FFF71AFF012194
:103320002120FFF756FF01212220FFF752FF1A212B
:103330002420FFF74EFF28212520FFF74AFF0F2109
:103340002620FFF746FF0E212020FFF742FF012035
:103350000949C1F8900110BD00080140001001406A
:10336000003001409001214200002242900122429F
:10337000A5A5A5A5A5000000000021421401224238
:103380008B7A0008867A000830B589B005460C466D
:1033900001210846FDF749FD01210520FDF738FD13
:1033A0000F20ADF8200018208DF8230003208DF8A1
:1033B000220008A94748FDF775FAADF81850ADF896
:1033C00014400020ADF81A00ADF8160005A94FF022
:1033D0008040FDF7DFFF7020ADF804000120ADF85C
:1033E00006000020ADF80A000220ADF80C0001A98B
:1033F0004007FEF70CF80821C806FEF757FC7020BE
:10340000ADF804000120ADF806000020ADF80A0078
:103410000220ADF80C0001A94007FEF73AF8082198
:10342000C806FEF74CFC7020ADF804000120ADF892
:1034300006000020ADF80A000220ADF80C0001A93A
:103440004007FEF773F80821C806FEF745FC702018
:10345000ADF804000120ADF806000020ADF80A0028
:103460000220ADF80C0001A94007FEF7AAF80821D8
:10347000C806FEF73AFC01218807FEF7E7FB0121A9
:103480008807FEF7E3FA09B030BD10B500214FF010
:103490008040FEF779FD00214FF08040FEF770FD7F
:1034A00000214FF08040FEF769FD00214FF0804081
:1034B000FEF768FD10BD0849088070474FF0804155
:1034C000088770474FF08041888670474FF08041F1
:1034D00088877047000801404000004070B50546ED
:1034E000002405E0601CC4B2C82C01DD002070BDC2
:1034F00002213748FDF743FE0028F3D0294634481F
:10350000FDF7EAFD002405E0601CC4B2C82C01DD13
:103510000020ECE701212E48FDF731FE0028F3D012
:103520002B48FDF7DBFDC0B2E1E700B587B0012114
:1035300041F20400FDF76CFCE020ADF81800182003
:103540008DF81B0003208DF81A0006A92148FDF70D
:10355000A9F9E0211F48FDF750FA0020ADF804005A
:103560004FF48270ADF806000020ADF8080002208C
:10357000ADF80A000120ADF80C004002ADF80E00D5
:103580003820ADF810000020ADF812000720ADF88B
:10359000140001A90E48FDF7C9FC01210C48FDF7F4
:1035A0006AFDFF20FFF79AFF07B000BD10B5044683
:1035B000074800884FF6C77108400549088008464B
:1035C00000882043088001210148FDF754FD10BD0B
:1035D00000300140000801407FB505460C4601213E
:1035E0000220FDF722FCADF80850ADF804400020A1
:1035F000ADF80A00ADF8060001A93648FDF7CAFE8D
:10360000002201213348FEF73CFA1D208DF800000E
:1036100001208DF8010003208DF8020001208DF8B3
:1036200003006846FCF7E7FF01212A48FEF70EFA7F
:103630007FBD70B5002427482430008826490860E3
:1036400000202449243108802348006803F0BAFF91
:103650000546224903F0CAFF0446204670BD10B556
:1036600001211C48FEF7BBFC30B11DA001F014F98C
:1036700001211848FEF7C4FC10BD7FB505460C4675
:1036800001210420FDF7D1FBADF80850ADF804404E
:103690000020ADF80A00ADF8060001A91348FDF7B7
:1036A00079FE012211461148FEF7EBF91E208DF834
:1036B000000000208DF8010002208DF8020001209A
:1036C0008DF803006846FCF796FF01210748FEF7D6
:1036D000BDF97FBD000400407C000020BD37863569
:1036E0003320D6D0B6CF0D0A0000000000080040FD
:1036F0002DE9F04704464FF07C51204603F076FF59
:10370000814625462E46FE48A0EB660635462946EC
:10371000484603F06BFF8246294603F067FF804668
:103720004FF07F5104F02EF80746294603F05EFF64
:1037300005462846BDE8F0874FF07E50F149086005
:103740000020F1490860F1490860F14908604FF034
:103750007E50F04908600020EF490860EF4908609A
:10376000EF490860EF490860EF490860EF490860D9
:10377000EF490860EF490860EF490860EF490860C9
:1037800070470FB400B5ABB0DE480168006803F0C5
:103790002DFF1190DC480168DA48006803F026FF2D
:1037A0001090DA480168D748006803F01FFF0F90B7
:1037B000D7480168D348006803F018FF0E90D2483C
:1037C0000168006803F012FF0D90D0480168CE48F0
:1037D000006803F00BFF0C90CD480168CA480068F0
:1037E00003F004FF0B90C9480168006803F0FEFE77
:1037F0000A90C7480168C548006803F0F7FE0990C1
:10380000C3480168006803F0F1FE08902C981890F6
:103810002D9817902E9816902F98039003F004FE81
:10382000C74AC84BCDE9040103F024FBCDE90601EA
:1038300003F044F81B903098039003F0F5FDC04A64
:10384000C04BCDE9040103F015FBCDE9060103F0FF
:1038500035F81A903198039003F0E6FDB84AB94B59
:10386000CDE9040103F006FBCDE9060103F026F8DB
:1038700019901699084603F0B9FE06901799084664
:1038800003F0B4FE04901899084603F0AFFE0390CD
:10389000049903F0F5FD0590069903F0F1FD0790FA
:1038A000FFF726FF2A902A99189803F09FFE189098
:1038B0002A99179803F09AFE17902A99169803F000
:1038C00095FE16903499084603F090FE06903399C1
:1038D000084603F08BFE04903299084603F086FEFA
:1038E0000390049903F0CCFD0590069903F0C8FD00
:1038F0000790FFF7FDFE2A902A99329803F076FE92
:1039000032902A99339803F071FE33902A993498B3
:1039100003F06CFE34900F990B9803F0B1FD059005
:103920004FF08040349903F061FE0490059903F054
:103930005DFE07900E990C9803F0B6FF03904FF0D0
:103940008040339903F052FE0290039903F04EFE3B
:1039500005904FF07C500A9903F0A6FF019008995A
:1039600003F0A2FF03904FF08040329903F03EFE37
:103970000290039903F03AFE0490059903F080FD4C
:103980000690079903F07CFD29901099099803F09F
:103990008BFF05904FF08040349903F027FE049090
:1039A000059903F023FE07904FF07C500D9903F02A
:1039B0007BFF0190089903F077FF03904FF0804060
:1039C000339903F013FE0290039903F00FFE059064
:1039D0000E990C9803F054FD03904FF080403299FB
:1039E00003F004FE0290039903F000FE0490059991
:1039F00003F046FD0690079903F042FD28904FF032
:103A00007C500D9903F050FF03900A9903F04CFF8E
:103A100005904FF08040349903F0E8FD049005993B
:103A200003F0E4FD07901099099803F029FD039035
:103A30004FF08040339903F0D9FD0290039903F0D1
:103A4000D5FD05900F990B9803F02EFF03904FF0D2
:103A50008040329903F0CAFD0290039903F0C6FD3D
:103A60000490059903F00CFD0690079903F008FDFA
:103A700027902899084603F0B9FD06902999084631
:103A800003F0B4FD0590069903F0FAFC079002F0EC
:103A9000E8FE2690279825900F990B9803F004FFD5
:103AA0004FF08041079003F0A1FD249009991098F0
:103AB00003F0E6FC4FF08041079003F097FD239060
:103AC0000D99119803F0F0FE06900A9903F0ECFEB0
:103AD0000790089903F0D4FC22900F990B9803F0FB
:103AE000E3FE05904FF08040259903F07FFD0490A0
:103AF000059903F07BFD07904FF07C500A9923E075
:103B0000DF59375F800000208400002088000020FB
:103B10008C000020D0000020D4000020D80000201D
:103B2000DC0000209000002094000020980000207D
:103B3000C4000020C8000020CC000020EC000020C1
:103B40005DA79196CADB913F03F0AEFE0390089902
:103B500003F0AAFE05904FF08040269903F046FD41
:103B60000490059903F042FD0690079903F088FC44
:103B700021900999109803F083FC05904FF0804044
:103B8000259903F033FD0490059903F02FFD07906C
:103B90000E990C9803F088FE05904FF0804026990E
:103BA00003F024FD0490059903F020FD0690079989
:103BB00003F066FC20904FF07C500D9903F074FEEA
:103BC00003900A9903F070FE05904FF0804025990C
:103BD00003F00CFD0490059903F008FD07900B9984
:103BE0000F9803F04DFC05904FF08040269903F0AC
:103BF000FDFC0490059903F0F9FC0690079903F089
:103C00003FFC1F902099349803F0F0FC05901F9919
:103C1000339803F0EBFC0490059903F045FE079000
:103C20002399169803F0E2FC05902299179803F067
:103C3000DDFC0490059903F037FE0690079903F028
:103C40001FFC1E901F99329803F0D0FC059021991B
:103C5000349803F0CBFC0490059903F025FE0790FF
:103C60002299189803F0C2FC05902499169803F045
:103C7000BDFC0490059903F017FE0690079903F028
:103C8000FFFB1D902199339803F0B0FC059020991B
:103C9000329803F0ABFC0490059903F005FE079001
:103CA0002499179803F0A2FC05902399189803F023
:103CB0009DFC0490059903F0F7FD0690079903F029
:103CC000DFFB1C90FFF7B5FCFE4908600846006862
:103CD00003F0AAFB0022FC4BCDE9040103F0CAF873
:103CE000CDE9060102F0EAFDF849086000211E98BE
:103CF00003F034FC6FD000211D9803F02FFC6AD034
:103D000000211C9803F02AFC65D0F1491E9803F0AD
:103D10006DFC0690ED480168069803F067FC07907B
:103D2000EC480168079803F0ABFBEA490860E849F2
:103D30001D9803F05BFC0690E4480168069803F0C8
:103D400055FC0790E4480168079803F099FBE249A5
:103D50000860DF491C9803F049FC0690DB480168C5
:103D6000069803F043FC0790DC480168079803F0CD
:103D700087FBDA4908604FF080401E9903F036FC5B
:103D80000690D4480168069803F07AFB07901B99C7
:103D900003F076FB1B904FF080401D9903F026FC4A
:103DA0000690CD480168069803F06AFB07901A99BF
:103DB00003F066FB1A904FF080401C9903F016FC4C
:103DC0000690C6480168069803F05AFB07901999B7
:103DD00003F056FB1990C2481999006803F006FCDD
:103DE0000590C0481A99006803F000FC0390BE4893
:103DF000006880F0004001901B9903F0F7FB0290EF
:103E0000039903F051FD0490059903F04DFD0690D0
:103E1000AE480168069803F0E9FB0790B3480168D3
:103E2000079803F02DFB1590AD481A99006803F030
:103E3000DDFB0590AB481999006803F0D7FB0390B0
:103E4000AA481B99006803F0D1FB0290039903F084
:103E500017FB0490059903F027FD06909B48016825
:103E6000069803F0C3FB07909F480168079803F08A
:103E700007FB14909A481B99006803F0B7FB059064
:103E800099481999006803F0B1FB039097481A9973
:103E9000006803F0ABFB0290039903F005FD04906A
:103EA000059903F0EDFA069088480168069803F03A
:103EB0009DFB07908B480168079803F0E1FA139087
:103EC00088481B99006803F091FB059086481A9971
:103ED000006803F08BFB039084481999006803F095
:103EE00085FB0290039903F0CBFA0490059903F047
:103EF000DBFC069075480168069803F077FB079095
:103F000077480168079803F0BBFA129012990846A7
:103F100003F06CFB06901399084603F067FB0490CE
:103F20001499084603F062FB02901599084603F0C5
:103F30005DFB0190029903F0A3FA0390049903F04A
:103F40009FFA0590069903F09BFA0790FFF7D0FBC4
:103F50002A902A99159803F049FB644908602A9928
:103F6000149803F043FB604908602A99139803F002
:103F70003DFB5C4908602A99129803F037FB5849C9
:103F800008602BB05DF814FB0FB42DE9F04F8DB035
:103F9000DDF858B017980C9018980B90199803F00A
:103FA00043FA534A534BCDE9040102F063FFCDE9D4
:103FB000060102F083FC0A901A9803F035FA4C4A85
:103FC0004C4BCDE9040102F055FFCDE9060102F0AA
:103FD00075FC09901B9803F027FA454A454BCDE93B
:103FE000040102F047FFCDE9060102F067FC0890EA
:103FF0000B99084603F0FAFA06900C99084603F06C
:10400000F5FA59460490584603F0F0FA03900499E3
:1040100003F036FA0590069903F032FA0790FFF79D
:1040200067FB07460021384603F098FA02D132A018
:1040300000F032FC3946584603F0D8FA8346394638
:104040000C9803F0D3FA0C9039460B9803F0CEFA93
:104050000B90244801682548006803F0C7FA0690D1
:104060001F4801682048006803F0C0FA05900699CF
:1040700003F01AFC4FF08041079003F0B7FA804636
:10408000174801681748006803F0B0FA0690164810
:1040900001681648006803F0A9FA0590069903F034
:1040A000EFF94FF08041079003F0A0FA81460C48E9
:1040B0000168006803F09AFA07900A4801680068EE
:1040C00020E00000EC0000200000E03FC0000020E5
:1040D0000AD7A33B90000020940000209800002005
:1040E0008C00002088000020840000208000002038
:1040F0005DA79196CADB913F204552524F52202036
:104100000000000003F072FA0590FE4801680068A4
:1041100003F06CFA0390FC480168006803F066FA4B
:104120000290039903F0C0FB0490059903F0BCFBD7
:104130000690079903F0A4F9824649460B9803F0CC
:1041400055FA514607900C9803F050FA06900799DB
:1041500003F0AAFB04465146584603F047FA41468D
:1041600007900B9803F042FA0690079903F09CFB26
:10417000054641460C9803F039FA494607905846DF
:1041800003F034FA0690079903F08EFB0646DF49E8
:10419000204603F02BFA0790DD480168079803F0EA
:1041A0006FF9DB490860D949284603F01FFA0790E8
:1041B000D8480168079803F063F9D6490860D349E5
:1041C000304603F013FA0790D3480168079803F0CC
:1041D00057F9D149086021464FF0804003F006FAB4
:1041E00006900A9903F04CF90790C94801680798AE
:1041F00003F046F90A9029464FF0804003F0F6F9A3
:104200000690099903F03CF90790C24801680798A5
:1042100003F036F9099031464FF0804003F0E6F99B
:104220000690089903F02CF90790BB48016807989D
:1042300003F026F90890FFF7FCF9B8490860084632
:10424000006803F0F1F80022B54BCDE9040102F05B
:1042500011FECDE9060102F031FBB2490860B24817
:104260000899006803F0C2F90590B0480999006800
:1042700003F0BCF90390A348006880F0004001906F
:104280000A9903F0B3F90290039903F00DFB04902F
:10429000059903F009FB0690A2480168069803F00F
:1042A000A5F9079098480168079803F0E9F896493E
:1042B00008609D480999006803F098F905909B48AB
:1042C0000899006803F092F903908F480A990068F2
:1042D00003F08CF90290039903F0D2F80490059949
:1042E00003F0E2FA06908F480168069803F07EF921
:1042F000079084480168079803F0C2F88149086074
:1043000089480A99006803F071F905907D48089979
:10431000006803F06BF903907B480999006803F08B
:1043200065F90290039903F0BFFA0490059903F030
:10433000A7F806907B480168069803F057F90790A4
:104340007A480168079803F09BF878490860774835
:104350000A99006803F04AF905906A4809990068CB
:1043600003F044F9039068480899006803F03EF9A7
:104370000290039903F084F80490059903F094FAED
:10438000069068480168069803F030F9079066487F
:104390000168079803F074F86349086008460168EB
:1043A000006803F023F9069060480168006803F094
:1043B0001DF9049053480168006803F017F9029052
:1043C00051480168006803F011F90190029903F067
:1043D00057F80390049903F053F80590069903F0F9
:1043E0004FF80790FFF784F90746394646480068BA
:1043F00003F0FCF84449086039464248006803F07D
:10440000F5F84049086039464848006803F0EEF87E
:104410004649086039464448006803F0E7F84249D5
:1044200008600DB0BDE8F00F5DF814FB2DE9F04F0A
:1044300085B082463C480168006803F0D7F806461C
:104440003A480168006803F0D1F807462D48016832
:10445000006803F0CBF880462B480168006803F041
:10446000C5F88146414603F00BF80546394603F08E
:104470001BFA0446314603F017FA04902A480168F3
:104480002148006803F0B2F88146284801681D48B9
:10449000006803F0ABF84946009002F0F1FF804657
:1044A00002F0C2FF064600224FF0804302F0E2FC19
:1044B000044602F003FA03901C48016812480068A1
:1044C00003F094F88146184801680E48006803F02C
:1044D0008DF84946009003F0E7F9804602F0A4FF0A
:1044E000064600224FF0804302F0C4FC044602F06E
:1044F000E5F98346034801680348006803F076F84D
:10450000009015E084000020800000200AD7A33B23
:10451000900000209400002098000020EC00002073
:104520000000E03FC00000208C0000208800002038
:10453000B8480168B848006803F058F88146009907
:1045400002F09EFF804602F06FFF064600224FF009
:10455000804302F08FFC044602F0B0F90290AD48AF
:104560000168006803F042F80646AB48016800683D
:1045700003F03CF80746A9480168006803F036F8E4
:104580008046A7480168006803F030F8814641463C
:1045900003F08AF90546394603F086F904463146A8
:1045A00002F06EFF0190019802F03EFF06460F46B2
:1045B000029802F039FF804632463B4601F0BCFFCC
:1045C00004464FF06632974B02F054FCCAE90401EE
:1045D000584602F029FF064601F05EFD81F00041D9
:1045E00004464FF066328F4B02F044FCCAE90001EA
:1045F000FEF700F9CAE9020100221346DAE9024196
:10460000204602F0FBFB08D20022874BDAE9024188
:10461000204602F085F9CAE9020105B0BDE8F08F35
:104620007FB58248006808B9012000E000207F497A
:1046300008604FF000007E4908602FE07B4800686A
:1046400008B9012000E0002078490860FEF7F5FC79
:104650007849D1E90101CDE900017648036876483F
:1046600007C8FFF791FC7548FFF7E0FE0A20FDF749
:104670000BFF7248C1688068CDE902016F4903C928
:10468000CDE900016D48D0E9044322466CA000F05A
:1046900003F967480068401C654908606448006881
:1046A0006428CBDB00206249086048E00A20FDF75F
:1046B000EBFEFEF7C2FC5F49D1E90101CDE9000143
:1046C0005C4803685C4807C8FFF75EFC5B48FFF77F
:1046D000ADFE5A48D0E904432246614903C902F0BD
:1046E0001FF95F4A03C25549D1E9004322465D499B
:1046F00003C902F015F95B4A03C25048D0E90243EE
:104700002246594903C902F00BF9574A03C20A204D
:10471000FDF7BAFE4948C1688068CDE90201474803
:1047200003C8CDE900014549D1E9044322464FA021
:1047300000F0B2F83E480068401C3D4908603C4823
:1047400000686428B2DB0022504B454903C902F0DF
:10475000A3F94F4AC2E9040100224C4B414903C965
:1047600002F09AF94A4A03C20022484B3E4903C963
:1047700002F092F9464AC2E902010021384A11606A
:104780005160384A11605160374A116051602748C2
:10479000006808B9012000E00020244908607FBDBE
:1047A0002DE9FC41FEF749FC2249D1E90101CDE99F
:1047B000000120480368204807C8FFF7E5FB1F48B1
:1047C000FFF734FE3248D0E904431C482246D0E9C2
:1047D0000461304602F03EFD184AC2E904012C484B
:1047E0001146D0E90043D1E900612246304602F08B
:1047F00031FD124A03C22648D0E902430F4822463F
:10480000D0E90261304602F025FD0C4AC2E90201FE
:10481000BDE8FC818C00002088000020840000207E
:104820008000002066A64C4000807640A80122420D
:10483000A0000020EC010020E0010020C8010020C1
:104840004A424A422D2D2D20252E326C66202025ED
:104850002E326C662020252E326C660D0A00000078
:10486000A8000020B0000020B8000020686568653E
:104870002D2D2D20252E326C662020252E326C66A3
:104880002020252E326C660D0A00000000005940E1
:10489000F8010020704700000FB4044910B503AAC6
:1048A000029800F06DFB10BC5DF814FB3400002092
:1048B0002DE9F0410646002410687529314616A5F9
:1048C00011D0AFF30080002803DAC0F1000013A577
:1048D00007E031688A0701D511A502E0490704D530
:1048E00010A5012401E0AFF3008000210A2306F1A6
:1048F000240707E0B0FBF3F203FB120030307854DA
:104900001046491C0028F5D123462A463046BDE80A
:10491000F04100F0C8B80000000000002D000000C9
:104920002B000000200000002DE9F0474FF0000AA6
:1049300089460446C0F820A02046E1688847002840
:1049400076D0252806D0D4E901219047206A401C62
:104950002062F1E7E168204600268847C4F81CA0E1
:1049600005460027C4F818A02A2D09D0284601F0D2
:104970008BFB38B304EB8708303DC8F8185019E0BA
:1049800059F8041B204604EB87029161E1688847CF
:10499000012F054618D1E069002820DA26F020060C
:1049A0001DE0D8F8180000EB800005EB400030381F
:1049B000C8F818002046E1688847054601F064FB06
:1049C0000028EED1012F0AD02E2D08D12046E16813
:1049D00088477F1C0546022F46F02006C4DBA069ED
:1049E000002803DA404246F00106A061F00701D03A
:1049F00026F010066C2D0AD0682D08D04C2D39D029
:104A00006A2D35D0742D35D07A2D33D016E0E1687B
:104A10002F4620468847B84205460AD16C2F27D03A
:104A20004FF48060E168064320468847054605E06C
:104A300027E06C2F1AD04FF4807006430DB3A5F118
:104A40004100192802D8203546F400664A46294616
:104A5000204626604E46FBF7A5FB80B101280BD00F
:104A6000F61D26F0070000F1080965E74020E4E79D
:104A70008020D7E70020D5E706F104095CE7284647
:104A800061E7206ABDE8F08770477047704770475C
:104A900010B500F08BFA006810BD10B5044600F0A8
:104AA00085FA046010BD2DE9F0470D4699469246FF
:104AB000044600F124080168880604D5E06921F065
:104AC0001001216000E00120A84202DDA0EB0507F3
:104AD00000E00027A16907EB050202EB0900A1EB4A
:104AE0000000A0612078C00602D42046AFF3008009
:104AF000002608E0D4E901211AF806009047206A50
:104B0000401C761C20624E45F4DB2078C0060AD596
:104B10002046AFF3008006E0D4E901213020904721
:104B2000206A401C2062381EA7F10107F4DC07E070
:104B3000D4E9012118F805009047206A401C206242
:104B4000281EA5F10105F3DC2046AFF30080207894
:104B5000000602D50220BDE8F0870120FBE7704780
:104B60002DE9FF4F0C461E464FF0FF378BB0D2E9C0
:104B70000001DDF860800A908A46C1F30A5505B944
:104B80003D46002108464FF00000BAF1000F00F446
:104B9000400005DA00EB80004FF4400101EA5000CC
:104BA0004FEA9059B9F1010F00DDB9460A9850EA71
:104BB0004A000ED044F61050A5F2FF3545432F149D
:104BC000B8F1000F1ED07542291E1EDDC9F100028A
:104BD0001CE0B8F1010F4FF0000001D0302103E0DC
:104BE000F24305E02154401CB042FBDB304600227A
:104BF000002121540B99C1F80880C1E900200FB0B1
:104C0000BDE8F08FBD1B6D1CDEE74A4600DA694245
:104C100006A800F06DFA06AB07CB03AB07C35046FE
:104C20000A9900F04BFB8DE80700A0F500501F38F3
:104C300000900398002D09DD42F21F014A46084406
:104C400003A90390684600F0AAFD08E0A0F5005013
:104C50004A461F3803A90390684600F0B4FD8DE86A
:104C600007000004000C03D04FF0FF30410800E0C3
:104C70001046B8F1000F03D00022009215461FE045
:104C8000751E06D400F096F902F1300262556D1ED1
:104C9000F8D5B3460122084302D000227F1C04E06D
:104CA0002078302801D100227F1E002A099787D062
:104CB0001DE0112D07DA00F07DF9303262556D1CD0
:104CC00050EA0102F5D108430FD10021681E05E02A
:104CD000235C625C6354491C2254401E8142F7DB12
:104CE000AB46A81B401E099001E0009848B1002087
:104CF00004F80B000B98099AC0F80880C0E9002B53
:104D00007DE711264FF000085AE72DE9F04F88465D
:104D10000446D21D22F0070191B0D1E90001CDE98E
:104D20000A0100F086FE02460B98C00F01D02D202C
:104D300007E02068810701D52B2002E0202101EA4D
:104D4000C000032A099001D0072A05DB034641462B
:104D5000204600F08DF90FE12078800601D5E0694A
:104D600000E00620B8F1650F814606D0B8F1660F65
:104D700018D0B8F1670F72D132E00020B9F1110FED
:104D8000009001DB112301E009F101030AAA01A946
:104D90000CA8FFF7E5FEDDE90C70002609F101051E
:104DA000834648E001204B4600904FF000470AAA96
:104DB00001A90CA8FFF7D4FEDDE90DB00C995D4602
:104DC000002618B909F1010001EB0005B9EB050057
:104DD00003D4C0F1FF3609F10105A5EB09002BE072
:104DE000B9F1010F01DA4FF001090020B9F1110FFB
:104DF0000090484601DD112300E003460AAA01A9FC
:104E00000CA8FFF7ADFEDDE90C704D460026834689
:104E1000207800070AD4AB4500DA5D4601A8012DD1
:104E200004DD411911F8011C302907D04F4502DA81
:104E300017F1040F04DA0120824610E06D1EEEE740
:104E4000002F02DCED1B3E4403E0781CA84200DD8D
:104E50000546A7EB060000F1010A4FF00047207855
:104E6000000703D4AA4501DB4FF0FF3A0021B7F158
:104E7000004F0DF143088DF8431023D002202B235F
:104E8000002F01DA7F422D234FF00A0C011EA0F102
:104E9000010000DC4FB197FBFCF10CFB11720F46D7
:104EA00002F1300208F8012DF0E7A8F101000370CB
:104EB0002188090501D5452100E06521A0F10108FF
:104EC00000F8011C09980FA9A1EB080707F10707D3
:104ED00000B1012000EB050101EBEA70A169384443
:104EE000A1EB0000A0F10100A0612078C00602D46F
:104EF0002046AFF30080099830B1D4E901219047F2
:104F0000206A00F1010020622078C00620D52046EA
:104F1000AFF300801CE0002E04DBB34502DD01A8E6
:104F2000805D00E03020D4E901219047206A761CA2
:104F3000401CBAF1010A20620AD100F033F8C068BF
:104F40000168405CD4E901219047206A401C20623E
:104F5000281EA5F10105DEDC07E0D4E9012118F8DF
:104F6000010B9047206A401C2062381EA7F1010700
:104F7000F3DC2046AFF30080022011B040E60000D1
:104F8000074B70B50D467B4400F05FF80446284699
:104F900000F020F910B14FF0FF3070BD204670BD19
:104FA00095D5FFFF00487047300200200048704749
:104FB0001002002030B5B0F10A024FEA900E71F1F4
:104FC00000034EEA817EB0EB0E0061EB91014FEAE7
:104FD000101E4EEA017E10EB0E0041EB11114FEA5C
:104FE000102E4EEA016E10EB0E0041EB11214FEA3C
:104FF000104E4EEA014E10EB0E0041EB11414018ED
:1050000041F100014FEAD00040EA41704FEAD1017E
:1050100010EB80054FEA810444EA907444EB0104EC
:105020006D1944EB0404521BA3414FF0000348BF29
:105030000A3200D530BD401C41F1000130BD0000F6
:1050400001694A1C02610878704700B58FB0CDE94C
:1050500001310021059105497944CDE9031011463C
:105060006846FFF761FC0FB000BD0000E5FFFFFFE1
:105070002DE9F0411F46044603260168072A01F482
:10508000006004DB08B116A505E016A503E008B131
:1050900015A500E015A521F010002060A069C01E34
:1050A000A0610FB1401EA0612046AFF300804FB158
:1050B000D4E9012138469047206A401C2062C01C78
:1050C000206206E0206AFAE7D4E9012115F8010B15
:1050D0009047761EF8D22046AFF30080BDE8F081FD
:1050E0004E414E006E616E00494E4600696E66008C
:1050F0002DE9F047814616468AB035487844D0E914
:10510000002380680092CDE90130314878440C38A2
:10511000D0E90223006903924FF03702CDE9043051
:1051200041F69B30014491FBF2F0A0F1800502FBB7
:1051300010141B3C02D56442012000E00020DFF87F
:1051400090A080460027FA44AAF1C60A0DE0E007C5
:1051500009D03246684607EB47010AEB810100F0AF
:1051600032FB8DE8070064107F1C002CEFD1184F34
:105170007F44B43F17E0E80713D007EB04100DF1AC
:10518000180A90E80E00AAE80E00C068F04201D1AB
:1051900098190890324606A903A800F014FB03AB47
:1051A00007C36D10641C002DE5D132466946B8F185
:1051B000000F03A802D000F0F2FA01E000F003FBB8
:1051C000C9E90001C9F808200AB0BDE8F08700006D
:1051D0001C2C0000007B00F08000704700487047E6
:1051E000100200207546FFF7F9FFAE46050069463C
:1051F000534620F00700854618B020B5FBF7E4F9C8
:10520000BDE820404FF000064FF000074FF00008C7
:105210004FF0000B21F00701AC46ACE8C009ACE848
:10522000C009ACE8C009ACE8C0098D467047044627
:10523000AFF300802046FAF7D2FF00004FF0013CA8
:1052400050F8042B51F8043B9A4221D1A2EB0C03F5
:10525000934313EACC1317D150F8042B51F8043BB5
:105260009A4215D1A2EB0C03934313EACC130BD152
:1052700050F8042B51F8043B9A4209D1A2EB0C03DD
:10528000934313EACC13DBD04FF00000704700BF0C
:10529000D01A01BAB1FA81F101F0180122FA01F035
:1052A000CB40C1F12001DBB2C0B2C01A2CFA01F32D
:1052B000D11A914311EAC311E6D170475FEA400C5D
:1052C00008BF91F0000F4FEA8C234FEAC12243EA56
:1052D00051514FEA1C5018BF00F5F0404FEA300022
:1052E00018BF41F000415FEA6C5C00F02980BCF11E
:1052F000FF3F08BF40F080407047130C06BF120408
:105300004FF0100C4FF0000C130E04BF12020CF102
:10531000080C130F04BF12010CF1040C930F04BF0F
:1053200092000CF1020CD30F04BF52000CF1010CDF
:1053300011464FF00002A0F11F00A0EB0C007047D7
:1053400011F0004F08BF704731F000413FF4D5AF76
:105350000B0C06BF09044FF0100C4FF0000C0B0EA5
:1053600004BF09020CF1080C0B0F04BF09010CF17A
:10537000040C8B0F04BF89000CF1020CCB0F04BF8F
:1053800049000CF1010CCCF12003A0EB0C0022FA37
:1053900003F302FA0CF241EA030100F10100704745
:1053A00020F07F4C80EA030023F07F47ACEB07033B
:1053B00003F57C5300F0004003F1FF032DE9804921
:1053C0004FEA154B09B44FEA144325EA0B4E24EA81
:1053D00003480FF2042606EB132749083E785FEADC
:1053E000320203FB0667C7F5000707FB06F64FEA24
:1053F00054374FEAD64606F1020607FB066CCCF19D
:10540000005C4FEA1C472CEA074C07FB06F40CFB38
:1054100006F504EB15464FEA961634BF00204FF010
:1054200000404FEAD13706FB07FC4FEA1C4C0CFB4F
:105430000BF7D21B03FB0CF761EB07010CFB0EF71C
:10544000B0EB074072EB17420CFB08F734BFA2EB3E
:105450000742B2EB074261EB17414FEA0C444FEAB7
:10546000910706FB07FC4FEA1C4C0CFB0BF7B0EB5B
:10547000C74072EB573203FB0CF734BFA2EBC742B5
:10548000B2EBC74261EB57310CFB0EF7B0EBC70034
:1054900072EB57720CFB08F734BFA2EBC702B2EBFA
:1054A000C70261EB5771039F4FEA816141EA921194
:1054B00004EBCC044FEAD1374FEA826206FB07FCCB
:1054C00042EA90124FEA80604FEA1C4C0CFB0BF74B
:1054D000D21B03FB0CF761EB07010CFB0EF7B0EBE3
:1054E000074072EB17420CFB08F734BFA2EB0742F0
:1054F000B2EB074261EB17414FEA8C554FEA910737
:1055000004EB9C2406FB07FC4FEA1C4C0CFB0BF73E
:10551000B0EBC74072EB573203FB0CF734BFA2EB82
:10552000C742B2EBC74261EB57310CFB0EF7B0EB51
:10553000C70072EB57720CFB08F734BFA2EBC7022F
:10554000B2EBC70261EB577115EB4C254FEA816155
:1055500041EA92114FEA82624FEAD13742EA901251
:1055600006FB07FC44F100044FEA80604FEA1C4C44
:105570000CFB0BF7D21B03FB0CF761EB07010CFBD9
:105580000EF7B0EB074072EB17420CFB08F734BF85
:10559000A2EB0742B2EB074261EB174115EB1C157A
:1055A0004FEA813141EA92414FEA823242EA904227
:1055B0004FEA80304FEA0C7644F1000448EA034396
:1055C0004EEA0B484FF0000EB2EB080C71EB0307EC
:1055D00024BF624639464EEB0E0E4FF0000B00180A
:1055E000524149414BEB0B0BB2EB080C71EB03073B
:1055F0007BF1000B24BF624639464EEB0E0E4FF096
:10560000000B0018524149414BEB0B0BB2EB080C5D
:1056100071EB03077BF1000B24BF624639464EEB6A
:105620000E0E51EA020718BF46F0010616EB0E7681
:1056300055F1000254F1000103D5BDE88901BDE830
:105640000088BDE88901BDE80048B619524141EB28
:105650000101A3F10103704780807F7E7D7C7B7A0E
:105660007978777676757473727171706F6E6E6D0E
:105670006C6C6B6A6A6968686766666564646363B4
:1056800062616160605F5F5E5E5D5D5C5C5B5B5A3A
:105690005A595958585757565655555554545353A7
:1056A00052525251515050504F4F4F4E4E4D4D4D02
:1056B0004C4C4C4B4B4B4A4A4A494949484848474D
:1056C000474747464646454545444444444343438B
:1056D0004342424242414141002B26D4770021D02F
:1056E0001CB54FEA370703B44FF010004FF010011C
:1056F0004FF000000FBCBDE810400BF1010BBBF1F7
:10570000010F08BF5FEA170722BF12F1010211F172
:1057100001014FF0004143F1000300F0004043EA73
:1057200000007047F9D35708DAE746EA064613F156
:10573000400F4FEA16461FDD13F1200FDFBF16435F
:105740000A46002120335B42C8D0C3F1200746EA55
:10575000064602FA07F74FEA164646EA0706C3F17D
:10576000200722FA03F201FA07F721FA03F14FF0BA
:10577000000342EA0702B1E746EA020646EA0646A5
:105780004FEA164646EA0106BCBF46EA0646360C14
:105790004FF000034FF000024FF000019EE72DE9AB
:1057A000C048934630B491E8380007C831EA400C4D
:1057B00048BF34EA430C03D5FFF7F2FDFFF78CFF37
:1057C000F0BCBDE800882DE9C048934630B491E8AC
:1057D000380007C810F0804F08BF13F0804F03D186
:1057E00000F005F8FFF778FFF0BCBDE8008820F076
:1057F0007F4780EA030023F07F4C07EB0C03A3F5FF
:105800007C5300F00040A3F1FE0392F0000F00F083
:10581000B38095F0000F00F077802DE901494FEA41
:1058200011404FEA144621EA004800FB06FC24EA36
:10583000064708FB06F607FB08F800FB07F718EB1E
:1058400006484CEB164C4FEA124B18EB07484FEA50
:1058500015464CEB174022EA0B4E0BFB06FC25EAE3
:1058600006470EFB06F607FB0EFE0BFB07F71EEBCB
:10587000064E4CEB164C4FF000061EEB074E4CEB61
:10588000174B18EB0B0840F1000018EB0E0B58EB10
:10589000000840F100008F1A4FF000013CBFC943DF
:1058A000661B14BFB5EB040C00213CBFC943F61BBB
:1058B0004FEA17444EEA8E0E27EA04454FEA1C478A
:1058C00004FB07622CEA074C05FB07F70CFB05F607
:1058D00004FB0CFC16EB074642EB174216EB0C469A
:1058E00042EB1C421BEB060658EB0202414146EA22
:1058F0009E0601D5BDE80189B619524141EB01016F
:10590000A3F10103BDE801894FEA14454FEA1147AD
:1059100024EA054621EA074C05FB07F406FB07F7D6
:105920000CFB06F105FB0CFC11EB074144EB1744A3
:105930004FEA124711EB0C4144EB1C4422EA074C9E
:1059400005FB07F206FB07F70CFB06F605FB0CFC54
:1059500016EB074642EB174216EB0C4642EB1C4592
:105960006A1854F1000148BF7047B619524141EB23
:105970000101A3F10103704795F0000F37D04FEA02
:1059800011424FEA144721EA024624EA074C02FB7F
:1059900007F106FB07F70CFB06F402FB0CFC14EB0B
:1059A000074441EB17414FEA154714EB0C4441EB18
:1059B0001C4125EA074C02FB07F506FB07F70CFB29
:1059C00006F602FB0CFC16EB074645EB174516EBFB
:1059D0000C4645EB1C42121951F1000148BF7047BB
:1059E000B619524141EB0101A3F1010370474FEA9F
:1059F00014454FEA114724EA054621EA074C05FB06
:105A000007F106FB07F70CFB06F24FF0000605FB5B
:105A10000CFC12EB074241EB174112EB0C4251EB2D
:105A20001C4148BF7047921841EB0101A3F10103EB
:105A30007047490050EAC12018BF04204A0D18BF22
:105A400040F0010040F2FF72B2EB515F08BF40F03E
:105A50000200012808BF0520704700002DE9F74F1C
:105A6000144696B00021C4E902111799089121F05B
:105A70000045CA498D4206DC1799C4E9000119B0F6
:105A80000020BDE8F08FC649DFF818A3A9423CDD2D
:105A90000899C54E0029C54FC54A1799534619DDC7
:105AA00001F0D8FB554506D0C24AC34B01F0D2FBEA
:105AB000C4E900010AE04FF0D352BF4B01F0CAFB2A
:105AC00032463B4601F0C6FBC4E9000119B0012093
:105AD000BDE8F08F00F024FF554506D0B54AB64B1F
